{
  "abi": [
    {
      "inputs": [
        {
          "internalType": "uint256",
          "name": "",
          "type": "uint256"
        }
      ],
      "name": "campaigns",
      "outputs": [
        {
          "internalType": "address",
          "name": "owner",
          "type": "address"
        },
        {
          "internalType": "string",
          "name": "title",
          "type": "string"
        },
        {
          "internalType": "string",
          "name": "description",
          "type": "string"
        },
        {
          "internalType": "uint256",
          "name": "target",
          "type": "uint256"
        },
        {
          "internalType": "uint256",
          "name": "deadline",
          "type": "uint256"
        },
        {
          "internalType": "uint256",
          "name": "amountCollected",
          "type": "uint256"
        },
        {
          "internalType": "bool",
          "name": "active",
          "type": "bool"
        }
      ],
      "stateMutability": "view",
      "type": "function"
    },
    {
      "inputs": [
        {
          "internalType": "address",
          "name": "_owner",
          "type": "address"
        },
        {
          "internalType": "string",
          "name": "_title",
          "type": "string"
        },
        {
          "internalType": "string",
          "name": "_description",
          "type": "string"
        },
        {
          "internalType": "uint256",
          "name": "_target",
          "type": "uint256"
        },
        {
          "internalType": "uint256",
          "name": "_deadline",
          "type": "uint256"
        }
      ],
      "name": "createCampaign",
      "outputs": [
        {
          "internalType": "uint256",
          "name": "",
          "type": "uint256"
        }
      ],
      "stateMutability": "nonpayable",
      "type": "function"
    },
    {
      "inputs": [
        {
          "internalType": "uint256",
          "name": "_id",
          "type": "uint256"
        }
      ],
      "name": "donateToCampaign",
      "outputs": [],
      "stateMutability": "payable",
      "type": "function"
    },
    {
      "inputs": [],
      "name": "getCampaigns",
      "outputs": [
        {
          "components": [
            {
              "internalType": "address",
              "name": "owner",
              "type": "address"
            },
            {
              "internalType": "string",
              "name": "title",
              "type": "string"
            },
            {
              "internalType": "string",
              "name": "description",
              "type": "string"
            },
            {
              "internalType": "uint256",
              "name": "target",
              "type": "uint256"
            },
            {
              "internalType": "uint256",
              "name": "deadline",
              "type": "uint256"
            },
            {
              "internalType": "uint256",
              "name": "amountCollected",
              "type": "uint256"
            },
            {
              "internalType": "address[]",
              "name": "donators",
              "type": "address[]"
            },
            {
              "internalType": "uint256[]",
              "name": "donations",
              "type": "uint256[]"
            },
            {
              "internalType": "bool",
              "name": "active",
              "type": "bool"
            }
          ],
          "internalType": "struct CoinCamp.Campaign[]",
          "name": "",
          "type": "tuple[]"
        }
      ],
      "stateMutability": "view",
      "type": "function"
    },
    {
      "inputs": [
        {
          "internalType": "uint256",
          "name": "_id",
          "type": "uint256"
        }
      ],
      "name": "getDonators",
      "outputs": [
        {
          "internalType": "address[]",
          "name": "",
          "type": "address[]"
        },
        {
          "internalType": "uint256[]",
          "name": "",
          "type": "uint256[]"
        }
      ],
      "stateMutability": "view",
      "type": "function"
    },
    {
      "inputs": [],
      "name": "getTime",
      "outputs": [
        {
          "internalType": "uint256",
          "name": "",
          "type": "uint256"
        }
      ],
      "stateMutability": "view",
      "type": "function"
    },
    {
      "inputs": [
        {
          "internalType": "uint256",
          "name": "_id",
          "type": "uint256"
        }
      ],
      "name": "getTimeLeft",
      "outputs": [
        {
          "internalType": "uint256",
          "name": "",
          "type": "uint256"
        }
      ],
      "stateMutability": "view",
      "type": "function"
    },
    {
      "inputs": [],
      "name": "numberOfCampaigns",
      "outputs": [
        {
          "internalType": "uint16",
          "name": "",
          "type": "uint16"
        }
      ],
      "stateMutability": "view",
      "type": "function"
    }
  ],
  "devdoc": {
    "kind": "dev",
    "methods": {},
    "version": 1
  },
  "evm": {
    "assembly": "    /* \"CoinCamp.sol\":67:2938  contract CoinCamp {... */\n  mstore(0x40, 0x80)\n    /* \"CoinCamp.sol\":421:456  uint16 public numberOfCampaigns = 0 */\n  0x01\n  dup1\n  sload\n  not(0xffff)\n  and\n  swap1\n  sstore\n    /* \"CoinCamp.sol\":67:2938  contract CoinCamp {... */\n  callvalue\n  dup1\n  iszero\n  tag_1\n  jumpi\n  0x00\n  dup1\n  revert\ntag_1:\n  pop\n  dataSize(sub_0)\n  dup1\n  dataOffset(sub_0)\n  0x00\n  codecopy\n  0x00\n  return\nstop\n\nsub_0: assembly {\n        /* \"CoinCamp.sol\":67:2938  contract CoinCamp {... */\n      mstore(0x40, 0x80)\n      jumpi(tag_1, lt(calldatasize, 0x04))\n      shr(0xe0, calldataload(0x00))\n      dup1\n      0x42a4fda8\n      gt\n      tag_10\n      jumpi\n      dup1\n      0x42a4fda8\n      eq\n      tag_6\n      jumpi\n      dup1\n      0x557ed1ba\n      eq\n      tag_7\n      jumpi\n      dup1\n      0xa6b03633\n      eq\n      tag_8\n      jumpi\n      dup1\n      0xe8c58763\n      eq\n      tag_9\n      jumpi\n      0x00\n      dup1\n      revert\n    tag_10:\n      dup1\n      0x075843c3\n      eq\n      tag_2\n      jumpi\n      dup1\n      0x07ca140d\n      eq\n      tag_3\n      jumpi\n      dup1\n      0x0fa91fa9\n      eq\n      tag_4\n      jumpi\n      dup1\n      0x141961bc\n      eq\n      tag_5\n      jumpi\n    tag_1:\n      0x00\n      dup1\n      revert\n        /* \"CoinCamp.sol\":465:1133  function createCampaign(address _owner, string memory _title, string memory _description, uint256 _target, uint256 _deadline) public returns (uint256) {... */\n    tag_2:\n      callvalue\n      dup1\n      iszero\n      tag_11\n      jumpi\n      0x00\n      dup1\n      revert\n    tag_11:\n      pop\n      tag_12\n      tag_13\n      calldatasize\n      0x04\n      tag_14\n      jump\t// in\n    tag_13:\n      tag_15\n      jump\t// in\n    tag_12:\n      mload(0x40)\n        /* \"#utility.yul\":1899:1924   */\n      swap1\n      dup2\n      mstore\n        /* \"#utility.yul\":1887:1889   */\n      0x20\n        /* \"#utility.yul\":1872:1890   */\n      add\n        /* \"CoinCamp.sol\":465:1133  function createCampaign(address _owner, string memory _title, string memory _description, uint256 _target, uint256 _deadline) public returns (uint256) {... */\n    tag_16:\n      mload(0x40)\n      dup1\n      swap2\n      sub\n      swap1\n      return\n        /* \"CoinCamp.sol\":421:456  uint16 public numberOfCampaigns = 0 */\n    tag_3:\n      callvalue\n      dup1\n      iszero\n      tag_18\n      jumpi\n      0x00\n      dup1\n      revert\n    tag_18:\n      pop\n      sload(0x01)\n      tag_19\n      swap1\n      0xffff\n      and\n      dup2\n      jump\n    tag_19:\n      mload(0x40)\n        /* \"#utility.yul\":2109:2115   */\n      0xffff\n        /* \"#utility.yul\":2097:2116   */\n      swap1\n      swap2\n      and\n        /* \"#utility.yul\":2079:2117   */\n      dup2\n      mstore\n        /* \"#utility.yul\":2067:2069   */\n      0x20\n        /* \"#utility.yul\":2052:2070   */\n      add\n        /* \"CoinCamp.sol\":421:456  uint16 public numberOfCampaigns = 0 */\n      tag_16\n        /* \"#utility.yul\":1935:2123   */\n      jump\n        /* \"CoinCamp.sol\":1963:2131  function getDonators(uint256 _id) view public returns (address[] memory, uint256[] memory) {... */\n    tag_4:\n      callvalue\n      dup1\n      iszero\n      tag_23\n      jumpi\n      0x00\n      dup1\n      revert\n    tag_23:\n      pop\n      tag_24\n      tag_25\n      calldatasize\n      0x04\n      tag_26\n      jump\t// in\n    tag_25:\n      tag_27\n      jump\t// in\n    tag_24:\n      mload(0x40)\n      tag_16\n      swap3\n      swap2\n      swap1\n      tag_29\n      jump\t// in\n        /* \"CoinCamp.sol\":367:412  mapping(uint256 => Campaign) public campaigns */\n    tag_5:\n      callvalue\n      dup1\n      iszero\n      tag_30\n      jumpi\n      0x00\n      dup1\n      revert\n    tag_30:\n      pop\n      tag_31\n      tag_32\n      calldatasize\n      0x04\n      tag_26\n      jump\t// in\n    tag_32:\n      tag_33\n      jump\t// in\n    tag_31:\n      mload(0x40)\n      tag_16\n      swap8\n      swap7\n      swap6\n      swap5\n      swap4\n      swap3\n      swap2\n      swap1\n      tag_35\n      jump\t// in\n        /* \"CoinCamp.sol\":1141:1955  function donateToCampaign(uint256 _id) public payable {... */\n    tag_6:\n      tag_36\n      tag_37\n      calldatasize\n      0x04\n      tag_26\n      jump\t// in\n    tag_37:\n      tag_38\n      jump\t// in\n    tag_36:\n      stop\n        /* \"CoinCamp.sol\":2486:2579  function getTime() public view returns (uint) {... */\n    tag_7:\n      callvalue\n      dup1\n      iszero\n      tag_39\n      jumpi\n      0x00\n      dup1\n      revert\n    tag_39:\n      pop\n        /* \"CoinCamp.sol\":2555:2570  block.timestamp */\n      timestamp\n        /* \"CoinCamp.sol\":2486:2579  function getTime() public view returns (uint) {... */\n      jump(tag_12)\n        /* \"CoinCamp.sol\":2139:2478  function getCampaigns() public view returns (Campaign[] memory) {... */\n    tag_8:\n      callvalue\n      dup1\n      iszero\n      tag_43\n      jumpi\n      0x00\n      dup1\n      revert\n    tag_43:\n      pop\n      tag_44\n      tag_45\n      jump\t// in\n    tag_44:\n      mload(0x40)\n      tag_16\n      swap2\n      swap1\n      tag_47\n      jump\t// in\n        /* \"CoinCamp.sol\":2587:2935  function getTimeLeft(uint256 _id) public view returns (uint) {... */\n    tag_9:\n      callvalue\n      dup1\n      iszero\n      tag_48\n      jumpi\n      0x00\n      dup1\n      revert\n    tag_48:\n      pop\n      tag_12\n      tag_50\n      calldatasize\n      0x04\n      tag_26\n      jump\t// in\n    tag_50:\n      tag_51\n      jump\t// in\n        /* \"CoinCamp.sol\":465:1133  function createCampaign(address _owner, string memory _title, string memory _description, uint256 _target, uint256 _deadline) public returns (uint256) {... */\n    tag_15:\n        /* \"CoinCamp.sol\":665:682  numberOfCampaigns */\n      and(0xffff, sload(0x01))\n        /* \"CoinCamp.sol\":607:614  uint256 */\n      0x00\n        /* \"CoinCamp.sol\":655:683  campaigns[numberOfCampaigns] */\n      swap1\n      dup2\n      mstore\n      0x20\n      dup2\n      swap1\n      mstore\n      0x40\n      dup2\n      keccak256\n        /* \"CoinCamp.sol\":704:721  campaign.deadline */\n      0x04\n      dup2\n      add\n      sload\n        /* \"CoinCamp.sol\":724:739  block.timestamp */\n      timestamp\n      gt\n        /* \"CoinCamp.sol\":696:788  require(campaign.deadline < block.timestamp, \"The deadline should be a date in the future.\") */\n      tag_54\n      jumpi\n      mload(0x40)\n      shl(0xe5, 0x461bcd)\n      dup2\n      mstore\n        /* \"#utility.yul\":8222:8224   */\n      0x20\n        /* \"CoinCamp.sol\":696:788  require(campaign.deadline < block.timestamp, \"The deadline should be a date in the future.\") */\n      0x04\n      dup3\n      add\n        /* \"#utility.yul\":8204:8225   */\n      mstore\n        /* \"#utility.yul\":8261:8263   */\n      0x2c\n        /* \"#utility.yul\":8241:8259   */\n      0x24\n      dup3\n      add\n        /* \"#utility.yul\":8234:8264   */\n      mstore\n        /* \"#utility.yul\":8300:8334   */\n      0x54686520646561646c696e652073686f756c642062652061206461746520696e\n        /* \"#utility.yul\":8280:8298   */\n      0x44\n      dup3\n      add\n        /* \"#utility.yul\":8273:8335   */\n      mstore\n        /* \"#utility.yul\":8371:8385   */\n      0x20746865206675747572652e0000000000000000000000000000000000000000\n        /* \"#utility.yul\":8351:8369   */\n      0x64\n      dup3\n      add\n        /* \"#utility.yul\":8344:8386   */\n      mstore\n        /* \"#utility.yul\":8403:8422   */\n      0x84\n      add\n        /* \"CoinCamp.sol\":696:788  require(campaign.deadline < block.timestamp, \"The deadline should be a date in the future.\") */\n    tag_55:\n      mload(0x40)\n      dup1\n      swap2\n      sub\n      swap1\n      revert\n    tag_54:\n        /* \"CoinCamp.sol\":801:824  campaign.owner = _owner */\n      dup1\n      sload\n      not(0xffffffffffffffffffffffffffffffffffffffff)\n      and\n      sub(shl(0xa0, 0x01), 0x01)\n      dup9\n      and\n      or\n      dup2\n      sstore\n      0x01\n        /* \"CoinCamp.sol\":835:849  campaign.title */\n      dup2\n      add\n        /* \"CoinCamp.sol\":835:858  campaign.title = _title */\n      tag_57\n        /* \"CoinCamp.sol\":852:858  _title */\n      dup8\n        /* \"CoinCamp.sol\":835:849  campaign.title */\n      dup3\n        /* \"CoinCamp.sol\":835:858  campaign.title = _title */\n      tag_58\n      jump\t// in\n    tag_57:\n      pop\n        /* \"CoinCamp.sol\":869:889  campaign.description */\n      0x02\n      dup2\n      add\n        /* \"CoinCamp.sol\":869:904  campaign.description = _description */\n      tag_59\n        /* \"CoinCamp.sol\":892:904  _description */\n      dup7\n        /* \"CoinCamp.sol\":869:889  campaign.description */\n      dup3\n        /* \"CoinCamp.sol\":869:904  campaign.description = _description */\n      tag_58\n      jump\t// in\n    tag_59:\n      pop\n        /* \"CoinCamp.sol\":915:930  campaign.target */\n      0x03\n      dup2\n      add\n        /* \"CoinCamp.sol\":915:940  campaign.target = _target */\n      dup5\n      swap1\n      sstore\n        /* \"CoinCamp.sol\":951:968  campaign.deadline */\n      0x04\n      dup2\n      add\n        /* \"CoinCamp.sol\":951:980  campaign.deadline = _deadline */\n      dup4\n      swap1\n      sstore\n      0x00\n        /* \"CoinCamp.sol\":991:1015  campaign.amountCollected */\n      0x05\n      dup3\n      add\n        /* \"CoinCamp.sol\":991:1019  campaign.amountCollected = 0 */\n      dup2\n      swap1\n      sstore\n        /* \"CoinCamp.sol\":1030:1045  campaign.active */\n      0x08\n      dup3\n      add\n        /* \"CoinCamp.sol\":1030:1052  campaign.active = true */\n      dup1\n      sload\n      not(0xff)\n      and\n        /* \"CoinCamp.sol\":1048:1052  true */\n      0x01\n        /* \"CoinCamp.sol\":1030:1052  campaign.active = true */\n      swap1\n      dup2\n      or\n      swap1\n      swap2\n      sstore\n        /* \"CoinCamp.sol\":1065:1084  numberOfCampaigns++ */\n      dup1\n      sload\n      0xffff\n      and\n      swap2\n      tag_60\n      dup4\n      tag_61\n      jump\t// in\n    tag_60:\n      dup3\n      sload\n      0x0100\n      swap3\n      swap1\n      swap3\n      exp\n      0xffff\n      dup2\n      dup2\n      mul\n      not\n      swap1\n      swap4\n      and\n      swap2\n      dup4\n      and\n      mul\n      or\n      swap1\n      swap2\n      sstore\n      0x01\n        /* \"CoinCamp.sol\":1104:1121  numberOfCampaigns */\n      dup1\n      sload\n        /* \"CoinCamp.sol\":1104:1125  numberOfCampaigns - 1 */\n      tag_62\n      swap4\n      pop\n      swap1\n      swap2\n        /* \"CoinCamp.sol\":1104:1121  numberOfCampaigns */\n      and\n        /* \"CoinCamp.sol\":1104:1125  numberOfCampaigns - 1 */\n      tag_63\n      jump\t// in\n    tag_62:\n        /* \"CoinCamp.sol\":1097:1125  return numberOfCampaigns - 1 */\n      0xffff\n      and\n      swap8\n        /* \"CoinCamp.sol\":465:1133  function createCampaign(address _owner, string memory _title, string memory _description, uint256 _target, uint256 _deadline) public returns (uint256) {... */\n      swap7\n      pop\n      pop\n      pop\n      pop\n      pop\n      pop\n      pop\n      jump\t// out\n        /* \"CoinCamp.sol\":1963:2131  function getDonators(uint256 _id) view public returns (address[] memory, uint256[] memory) {... */\n    tag_27:\n        /* \"CoinCamp.sol\":2073:2082  campaigns */\n      0x00\n        /* \"CoinCamp.sol\":2073:2087  campaigns[_id] */\n      dup2\n      dup2\n      mstore\n      0x20\n      dup2\n      dup2\n      mstore\n      0x40\n      swap2\n      dup3\n      swap1\n      keccak256\n        /* \"CoinCamp.sol\":2073:2096  campaigns[_id].donators */\n      0x06\n      dup2\n      add\n        /* \"CoinCamp.sol\":2065:2123  return (campaigns[_id].donators, campaigns[_id].donations) */\n      dup1\n      sload\n      dup5\n      mload\n      dup2\n      dup6\n      mul\n      dup2\n      add\n      dup6\n      add\n      swap1\n      swap6\n      mstore\n      dup1\n      dup6\n      mstore\n        /* \"CoinCamp.sol\":2018:2034  address[] memory */\n      0x60\n      swap5\n      dup6\n      swap5\n        /* \"CoinCamp.sol\":2073:2096  campaigns[_id].donators */\n      swap3\n      swap4\n        /* \"CoinCamp.sol\":2098:2122  campaigns[_id].donations */\n      0x07\n      add\n      swap3\n        /* \"CoinCamp.sol\":2065:2123  return (campaigns[_id].donators, campaigns[_id].donations) */\n      swap1\n      swap2\n        /* \"CoinCamp.sol\":2073:2096  campaigns[_id].donators */\n      dup5\n      swap2\n        /* \"CoinCamp.sol\":2065:2123  return (campaigns[_id].donators, campaigns[_id].donations) */\n      dup4\n      add\n        /* \"CoinCamp.sol\":2073:2096  campaigns[_id].donators */\n      dup3\n        /* \"CoinCamp.sol\":2065:2123  return (campaigns[_id].donators, campaigns[_id].donations) */\n      dup3\n      dup1\n      iszero\n      tag_65\n      jumpi\n      0x20\n      mul\n      dup3\n      add\n      swap2\n      swap1\n      0x00\n      mstore\n      keccak256(0x00, 0x20)\n      swap1\n    tag_66:\n      dup2\n      sload\n      sub(shl(0xa0, 0x01), 0x01)\n      and\n      dup2\n      mstore\n      0x01\n      swap1\n      swap2\n      add\n      swap1\n      0x20\n      add\n      dup1\n      dup4\n      gt\n      tag_66\n      jumpi\n    tag_65:\n      pop\n      pop\n      pop\n      pop\n      pop\n      swap2\n      pop\n      dup1\n      dup1\n      sload\n      dup1\n      0x20\n      mul\n      0x20\n      add\n      mload(0x40)\n      swap1\n      dup2\n      add\n      0x40\n      mstore\n      dup1\n      swap3\n      swap2\n      swap1\n      dup2\n      dup2\n      mstore\n      0x20\n      add\n      dup3\n      dup1\n      sload\n      dup1\n      iszero\n      tag_67\n      jumpi\n      0x20\n      mul\n      dup3\n      add\n      swap2\n      swap1\n      0x00\n      mstore\n      keccak256(0x00, 0x20)\n      swap1\n    tag_68:\n      dup2\n      sload\n      dup2\n      mstore\n      0x20\n      add\n      swap1\n      0x01\n      add\n      swap1\n      dup1\n      dup4\n      gt\n      tag_68\n      jumpi\n    tag_67:\n      pop\n      pop\n      pop\n      pop\n      pop\n      swap1\n      pop\n      swap2\n      pop\n      swap2\n      pop\n        /* \"CoinCamp.sol\":1963:2131  function getDonators(uint256 _id) view public returns (address[] memory, uint256[] memory) {... */\n      swap2\n      pop\n      swap2\n      jump\t// out\n        /* \"CoinCamp.sol\":367:412  mapping(uint256 => Campaign) public campaigns */\n    tag_33:\n      0x00\n      0x20\n      dup2\n      swap1\n      mstore\n      swap1\n      dup2\n      mstore\n      0x40\n      swap1\n      keccak256\n      dup1\n      sload\n      0x01\n      dup3\n      add\n      dup1\n      sload\n      sub(shl(0xa0, 0x01), 0x01)\n      swap1\n      swap3\n      and\n      swap3\n      swap2\n      tag_69\n      swap1\n      tag_70\n      jump\t// in\n    tag_69:\n      dup1\n      0x1f\n      add\n      0x20\n      dup1\n      swap2\n      div\n      mul\n      0x20\n      add\n      mload(0x40)\n      swap1\n      dup2\n      add\n      0x40\n      mstore\n      dup1\n      swap3\n      swap2\n      swap1\n      dup2\n      dup2\n      mstore\n      0x20\n      add\n      dup3\n      dup1\n      sload\n      tag_71\n      swap1\n      tag_70\n      jump\t// in\n    tag_71:\n      dup1\n      iszero\n      tag_72\n      jumpi\n      dup1\n      0x1f\n      lt\n      tag_73\n      jumpi\n      0x0100\n      dup1\n      dup4\n      sload\n      div\n      mul\n      dup4\n      mstore\n      swap2\n      0x20\n      add\n      swap2\n      jump(tag_72)\n    tag_73:\n      dup3\n      add\n      swap2\n      swap1\n      0x00\n      mstore\n      keccak256(0x00, 0x20)\n      swap1\n    tag_74:\n      dup2\n      sload\n      dup2\n      mstore\n      swap1\n      0x01\n      add\n      swap1\n      0x20\n      add\n      dup1\n      dup4\n      gt\n      tag_74\n      jumpi\n      dup3\n      swap1\n      sub\n      0x1f\n      and\n      dup3\n      add\n      swap2\n    tag_72:\n      pop\n      pop\n      pop\n      pop\n      pop\n      swap1\n      dup1\n      0x02\n      add\n      dup1\n      sload\n      tag_75\n      swap1\n      tag_70\n      jump\t// in\n    tag_75:\n      dup1\n      0x1f\n      add\n      0x20\n      dup1\n      swap2\n      div\n      mul\n      0x20\n      add\n      mload(0x40)\n      swap1\n      dup2\n      add\n      0x40\n      mstore\n      dup1\n      swap3\n      swap2\n      swap1\n      dup2\n      dup2\n      mstore\n      0x20\n      add\n      dup3\n      dup1\n      sload\n      tag_76\n      swap1\n      tag_70\n      jump\t// in\n    tag_76:\n      dup1\n      iszero\n      tag_77\n      jumpi\n      dup1\n      0x1f\n      lt\n      tag_78\n      jumpi\n      0x0100\n      dup1\n      dup4\n      sload\n      div\n      mul\n      dup4\n      mstore\n      swap2\n      0x20\n      add\n      swap2\n      jump(tag_77)\n    tag_78:\n      dup3\n      add\n      swap2\n      swap1\n      0x00\n      mstore\n      keccak256(0x00, 0x20)\n      swap1\n    tag_79:\n      dup2\n      sload\n      dup2\n      mstore\n      swap1\n      0x01\n      add\n      swap1\n      0x20\n      add\n      dup1\n      dup4\n      gt\n      tag_79\n      jumpi\n      dup3\n      swap1\n      sub\n      0x1f\n      and\n      dup3\n      add\n      swap2\n    tag_77:\n      pop\n      pop\n      pop\n      pop\n      0x03\n      dup4\n      add\n      sload\n      0x04\n      dup5\n      add\n      sload\n      0x05\n      dup6\n      add\n      sload\n      0x08\n      swap1\n      swap6\n      add\n      sload\n      swap4\n      swap5\n      swap2\n      swap4\n      swap1\n      swap3\n      pop\n      0xff\n      and\n      dup8\n      jump\t// out\n        /* \"CoinCamp.sol\":1141:1955  function donateToCampaign(uint256 _id) public payable {... */\n    tag_38:\n        /* \"CoinCamp.sol\":1206:1220  uint256 amount */\n      0x00\n        /* \"CoinCamp.sol\":1271:1285  campaigns[_id] */\n      dup2\n      dup2\n      mstore\n      0x20\n      dup2\n      swap1\n      mstore\n      0x40\n      swap1\n      keccak256\n        /* \"CoinCamp.sol\":1304:1319  campaign.active */\n      0x08\n      dup2\n      add\n      sload\n        /* \"CoinCamp.sol\":1223:1232  msg.value */\n      callvalue\n      swap2\n        /* \"CoinCamp.sol\":1271:1285  campaigns[_id] */\n      swap1\n        /* \"CoinCamp.sol\":1304:1319  campaign.active */\n      0xff\n      and\n        /* \"CoinCamp.sol\":1304:1327  campaign.active == true */\n      iszero\n      iszero\n        /* \"CoinCamp.sol\":1304:1319  campaign.active */\n      0x01\n        /* \"CoinCamp.sol\":1304:1327  campaign.active == true */\n      eq\n        /* \"CoinCamp.sol\":1296:1360  require(campaign.active == true, \"The Funding Period has ended\") */\n      tag_81\n      jumpi\n      mload(0x40)\n      shl(0xe5, 0x461bcd)\n      dup2\n      mstore\n        /* \"#utility.yul\":11734:11736   */\n      0x20\n        /* \"CoinCamp.sol\":1296:1360  require(campaign.active == true, \"The Funding Period has ended\") */\n      0x04\n      dup3\n      add\n        /* \"#utility.yul\":11716:11737   */\n      mstore\n        /* \"#utility.yul\":11773:11775   */\n      0x1c\n        /* \"#utility.yul\":11753:11771   */\n      0x24\n      dup3\n      add\n        /* \"#utility.yul\":11746:11776   */\n      mstore\n        /* \"#utility.yul\":11812:11842   */\n      0x5468652046756e64696e6720506572696f642068617320656e64656400000000\n        /* \"#utility.yul\":11792:11810   */\n      0x44\n      dup3\n      add\n        /* \"#utility.yul\":11785:11843   */\n      mstore\n        /* \"#utility.yul\":11860:11878   */\n      0x64\n      add\n        /* \"CoinCamp.sol\":1296:1360  require(campaign.active == true, \"The Funding Period has ended\") */\n      tag_55\n        /* \"#utility.yul\":11532:11884   */\n      jump\n        /* \"CoinCamp.sol\":1296:1360  require(campaign.active == true, \"The Funding Period has ended\") */\n    tag_81:\n        /* \"CoinCamp.sol\":1397:1405  campaign */\n      dup1\n        /* \"CoinCamp.sol\":1397:1414  campaign.deadline */\n      0x04\n      add\n      sload\n        /* \"CoinCamp.sol\":1379:1394  block.timestamp */\n      timestamp\n        /* \"CoinCamp.sol\":1379:1414  block.timestamp < campaign.deadline */\n      lt\n        /* \"CoinCamp.sol\":1371:1452  require(block.timestamp < campaign.deadline, \"The Funding Deadline has elapsed.\") */\n      tag_84\n      jumpi\n      mload(0x40)\n      shl(0xe5, 0x461bcd)\n      dup2\n      mstore\n        /* \"#utility.yul\":12091:12093   */\n      0x20\n        /* \"CoinCamp.sol\":1371:1452  require(block.timestamp < campaign.deadline, \"The Funding Deadline has elapsed.\") */\n      0x04\n      dup3\n      add\n        /* \"#utility.yul\":12073:12094   */\n      mstore\n        /* \"#utility.yul\":12130:12132   */\n      0x21\n        /* \"#utility.yul\":12110:12128   */\n      0x24\n      dup3\n      add\n        /* \"#utility.yul\":12103:12133   */\n      mstore\n        /* \"#utility.yul\":12169:12203   */\n      0x5468652046756e64696e6720446561646c696e652068617320656c6170736564\n        /* \"#utility.yul\":12149:12167   */\n      0x44\n      dup3\n      add\n        /* \"#utility.yul\":12142:12204   */\n      mstore\n      shl(0xf9, 0x17)\n        /* \"#utility.yul\":12220:12238   */\n      0x64\n      dup3\n      add\n        /* \"#utility.yul\":12213:12244   */\n      mstore\n        /* \"#utility.yul\":12261:12280   */\n      0x84\n      add\n        /* \"CoinCamp.sol\":1371:1452  require(block.timestamp < campaign.deadline, \"The Funding Deadline has elapsed.\") */\n      tag_55\n        /* \"#utility.yul\":11889:12286   */\n      jump\n        /* \"CoinCamp.sol\":1371:1452  require(block.timestamp < campaign.deadline, \"The Funding Deadline has elapsed.\") */\n    tag_84:\n        /* \"CoinCamp.sol\":1499:1507  campaign */\n      dup1\n        /* \"CoinCamp.sol\":1499:1514  campaign.target */\n      0x03\n      add\n      sload\n        /* \"CoinCamp.sol\":1471:1479  campaign */\n      dup2\n        /* \"CoinCamp.sol\":1471:1495  campaign.amountCollected */\n      0x05\n      add\n      sload\n        /* \"CoinCamp.sol\":1471:1514  campaign.amountCollected <= campaign.target */\n      gt\n      iszero\n        /* \"CoinCamp.sol\":1463:1567  require(campaign.amountCollected <= campaign.target, \"The Funding Target has been reached or exceeded.\") */\n      tag_87\n      jumpi\n      mload(0x40)\n      shl(0xe5, 0x461bcd)\n      dup2\n      mstore\n        /* \"#utility.yul\":12493:12495   */\n      0x20\n        /* \"CoinCamp.sol\":1463:1567  require(campaign.amountCollected <= campaign.target, \"The Funding Target has been reached or exceeded.\") */\n      0x04\n      dup3\n      add\n        /* \"#utility.yul\":12475:12496   */\n      mstore\n        /* \"#utility.yul\":12532:12534   */\n      0x30\n        /* \"#utility.yul\":12512:12530   */\n      0x24\n      dup3\n      add\n        /* \"#utility.yul\":12505:12535   */\n      mstore\n        /* \"#utility.yul\":12571:12605   */\n      0x5468652046756e64696e672054617267657420686173206265656e2072656163\n        /* \"#utility.yul\":12551:12569   */\n      0x44\n      dup3\n      add\n        /* \"#utility.yul\":12544:12606   */\n      mstore\n        /* \"#utility.yul\":12642:12660   */\n      0x686564206f722065786365656465642e00000000000000000000000000000000\n        /* \"#utility.yul\":12622:12640   */\n      0x64\n      dup3\n      add\n        /* \"#utility.yul\":12615:12661   */\n      mstore\n        /* \"#utility.yul\":12678:12697   */\n      0x84\n      add\n        /* \"CoinCamp.sol\":1463:1567  require(campaign.amountCollected <= campaign.target, \"The Funding Target has been reached or exceeded.\") */\n      tag_55\n        /* \"#utility.yul\":12291:12703   */\n      jump\n        /* \"CoinCamp.sol\":1463:1567  require(campaign.amountCollected <= campaign.target, \"The Funding Target has been reached or exceeded.\") */\n    tag_87:\n        /* \"CoinCamp.sol\":1580:1597  campaign.donators */\n      0x06\n      dup2\n      add\n        /* \"CoinCamp.sol\":1580:1614  campaign.donators.push(msg.sender) */\n      dup1\n      sload\n      0x01\n      dup1\n      dup3\n      add\n      dup4\n      sstore\n      0x00\n      swap3\n      dup4\n      mstore\n      0x20\n      dup1\n      dup5\n      keccak256\n      swap1\n      swap3\n      add\n      dup1\n      sload\n      not(0xffffffffffffffffffffffffffffffffffffffff)\n      and\n        /* \"CoinCamp.sol\":1603:1613  msg.sender */\n      caller\n        /* \"CoinCamp.sol\":1580:1614  campaign.donators.push(msg.sender) */\n      or\n      swap1\n      sstore\n        /* \"CoinCamp.sol\":1625:1643  campaign.donations */\n      0x07\n      dup5\n      add\n        /* \"CoinCamp.sol\":1625:1656  campaign.donations.push(amount) */\n      dup1\n      sload\n      swap2\n      dup3\n      add\n      dup2\n      sstore\n      dup4\n      mstore\n      swap1\n      dup3\n      keccak256\n      add\n      dup4\n      swap1\n      sstore\n        /* \"CoinCamp.sol\":1692:1706  campaign.owner */\n      dup2\n      sload\n        /* \"CoinCamp.sol\":1684:1731  payable(campaign.owner).call{value: amount}(\"\") */\n      mload(0x40)\n      sub(shl(0xa0, 0x01), 0x01)\n        /* \"CoinCamp.sol\":1692:1706  campaign.owner */\n      swap1\n      swap2\n      and\n      swap1\n        /* \"CoinCamp.sol\":1625:1656  campaign.donations.push(amount) */\n      dup5\n      swap1\n      dup4\n        /* \"CoinCamp.sol\":1684:1731  payable(campaign.owner).call{value: amount}(\"\") */\n      dup2\n      dup2\n      dup2\n        /* \"CoinCamp.sol\":1625:1656  campaign.donations.push(amount) */\n      dup6\n        /* \"CoinCamp.sol\":1692:1706  campaign.owner */\n      dup8\n        /* \"CoinCamp.sol\":1684:1731  payable(campaign.owner).call{value: amount}(\"\") */\n      gas\n      call\n      swap3\n      pop\n      pop\n      pop\n      returndatasize\n      dup1\n      0x00\n      dup2\n      eq\n      tag_96\n      jumpi\n      mload(0x40)\n      swap2\n      pop\n      and(add(returndatasize, 0x3f), not(0x1f))\n      dup3\n      add\n      0x40\n      mstore\n      returndatasize\n      dup3\n      mstore\n      returndatasize\n      0x00\n      0x20\n      dup5\n      add\n      returndatacopy\n      jump(tag_95)\n    tag_96:\n      0x60\n      swap2\n      pop\n    tag_95:\n      pop\n        /* \"CoinCamp.sol\":1669:1731  (bool sent,) = payable(campaign.owner).call{value: amount}(\"\") */\n      pop\n      swap1\n      pop\n        /* \"CoinCamp.sol\":1747:1751  sent */\n      dup1\n        /* \"CoinCamp.sol\":1744:1840  if(sent) {... */\n      iszero\n      tag_97\n      jumpi\n        /* \"CoinCamp.sol\":1822:1828  amount */\n      dup3\n        /* \"CoinCamp.sol\":1795:1803  campaign */\n      dup3\n        /* \"CoinCamp.sol\":1795:1819  campaign.amountCollected */\n      0x05\n      add\n      sload\n        /* \"CoinCamp.sol\":1795:1828  campaign.amountCollected + amount */\n      tag_98\n      swap2\n      swap1\n      tag_99\n      jump\t// in\n    tag_98:\n        /* \"CoinCamp.sol\":1768:1792  campaign.amountCollected */\n      0x05\n      dup4\n      add\n        /* \"CoinCamp.sol\":1768:1828  campaign.amountCollected = campaign.amountCollected + amount */\n      sstore\n        /* \"CoinCamp.sol\":1744:1840  if(sent) {... */\n    tag_97:\n        /* \"CoinCamp.sol\":1881:1889  campaign */\n      dup2\n        /* \"CoinCamp.sol\":1881:1896  campaign.target */\n      0x03\n      add\n      sload\n        /* \"CoinCamp.sol\":1853:1861  campaign */\n      dup3\n        /* \"CoinCamp.sol\":1853:1877  campaign.amountCollected */\n      0x05\n      add\n      sload\n        /* \"CoinCamp.sol\":1853:1896  campaign.amountCollected >= campaign.target */\n      lt\n        /* \"CoinCamp.sol\":1850:1948  if(campaign.amountCollected >= campaign.target) {... */\n      tag_100\n      jumpi\n        /* \"CoinCamp.sol\":1913:1928  campaign.active */\n      0x08\n      dup3\n      add\n        /* \"CoinCamp.sol\":1913:1936  campaign.active = false */\n      dup1\n      sload\n      not(0xff)\n      and\n      swap1\n      sstore\n        /* \"CoinCamp.sol\":1850:1948  if(campaign.amountCollected >= campaign.target) {... */\n    tag_100:\n        /* \"CoinCamp.sol\":1195:1955  {... */\n      pop\n      pop\n      pop\n        /* \"CoinCamp.sol\":1141:1955  function donateToCampaign(uint256 _id) public payable {... */\n      pop\n      jump\t// out\n        /* \"CoinCamp.sol\":2139:2478  function getCampaigns() public view returns (Campaign[] memory) {... */\n    tag_45:\n        /* \"CoinCamp.sol\":2262:2279  numberOfCampaigns */\n      sload(0x01)\n        /* \"CoinCamp.sol\":2184:2201  Campaign[] memory */\n      0x60\n      swap1\n        /* \"CoinCamp.sol\":2214:2244  Campaign[] memory allCampaigns */\n      0x00\n      swap1\n        /* \"CoinCamp.sol\":2262:2279  numberOfCampaigns */\n      0xffff\n      and\n        /* \"CoinCamp.sol\":2247:2280  new Campaign[](numberOfCampaigns) */\n      0xffffffffffffffff\n      dup2\n      gt\n      iszero\n      tag_104\n      jumpi\n      tag_104\n      tag_105\n      jump\t// in\n    tag_104:\n      mload(0x40)\n      swap1\n      dup1\n      dup3\n      mstore\n      dup1\n      0x20\n      mul\n      0x20\n      add\n      dup3\n      add\n      0x40\n      mstore\n      dup1\n      iszero\n      tag_106\n      jumpi\n      dup2\n      0x20\n      add\n    tag_107:\n      tag_108\n      mload(0x40)\n      dup1\n      0x0120\n      add\n      0x40\n      mstore\n      dup1\n      and(sub(shl(0xa0, 0x01), 0x01), 0x00)\n      dup2\n      mstore\n      0x20\n      add\n      0x60\n      dup2\n      mstore\n      0x20\n      add\n      0x60\n      dup2\n      mstore\n      0x20\n      add\n      0x00\n      dup2\n      mstore\n      0x20\n      add\n      0x00\n      dup2\n      mstore\n      0x20\n      add\n      0x00\n      dup2\n      mstore\n      0x20\n      add\n      0x60\n      dup2\n      mstore\n      0x20\n      add\n      0x60\n      dup2\n      mstore\n      0x20\n      add\n      iszero(iszero(0x00))\n      dup2\n      mstore\n      pop\n      swap1\n      jump\n    tag_108:\n      dup2\n      mstore\n      0x20\n      add\n      swap1\n      0x01\n      swap1\n      sub\n      swap1\n      dup2\n      tag_107\n      jumpi\n      swap1\n      pop\n    tag_106:\n      pop\n        /* \"CoinCamp.sol\":2214:2280  Campaign[] memory allCampaigns = new Campaign[](numberOfCampaigns) */\n      swap1\n      pop\n        /* \"CoinCamp.sol\":2297:2303  uint i */\n      0x00\n        /* \"CoinCamp.sol\":2293:2439  for(uint i = 0; i < numberOfCampaigns; i++) {... */\n    tag_110:\n        /* \"CoinCamp.sol\":2313:2330  numberOfCampaigns */\n      and(0xffff, sload(0x01))\n        /* \"CoinCamp.sol\":2309:2330  i < numberOfCampaigns */\n      dup2\n      lt\n        /* \"CoinCamp.sol\":2293:2439  for(uint i = 0; i < numberOfCampaigns; i++) {... */\n      iszero\n      tag_111\n      jumpi\n        /* \"CoinCamp.sol\":2352:2373  Campaign storage item */\n      0x00\n        /* \"CoinCamp.sol\":2376:2388  campaigns[i] */\n      dup2\n      dup2\n      mstore\n      0x20\n      dup2\n      dup2\n      mstore\n      0x40\n      swap2\n      dup3\n      swap1\n      keccak256\n        /* \"CoinCamp.sol\":2405:2427  allCampaigns[i] = item */\n      dup3\n      mload\n      0x0120\n      dup2\n      add\n      swap1\n      swap4\n      mstore\n      dup1\n      sload\n      sub(shl(0xa0, 0x01), 0x01)\n      and\n      dup4\n      mstore\n      0x01\n      dup2\n      add\n      dup1\n      sload\n        /* \"CoinCamp.sol\":2376:2388  campaigns[i] */\n      swap2\n      swap4\n        /* \"CoinCamp.sol\":2405:2427  allCampaigns[i] = item */\n      swap3\n        /* \"CoinCamp.sol\":2376:2388  campaigns[i] */\n      dup5\n      swap3\n        /* \"CoinCamp.sol\":2405:2427  allCampaigns[i] = item */\n      swap1\n      dup5\n      add\n      swap2\n      swap1\n      tag_113\n      swap1\n      tag_70\n      jump\t// in\n    tag_113:\n      dup1\n      0x1f\n      add\n      0x20\n      dup1\n      swap2\n      div\n      mul\n      0x20\n      add\n      mload(0x40)\n      swap1\n      dup2\n      add\n      0x40\n      mstore\n      dup1\n      swap3\n      swap2\n      swap1\n      dup2\n      dup2\n      mstore\n      0x20\n      add\n      dup3\n      dup1\n      sload\n      tag_114\n      swap1\n      tag_70\n      jump\t// in\n    tag_114:\n      dup1\n      iszero\n      tag_115\n      jumpi\n      dup1\n      0x1f\n      lt\n      tag_116\n      jumpi\n      0x0100\n      dup1\n      dup4\n      sload\n      div\n      mul\n      dup4\n      mstore\n      swap2\n      0x20\n      add\n      swap2\n      jump(tag_115)\n    tag_116:\n      dup3\n      add\n      swap2\n      swap1\n      0x00\n      mstore\n      keccak256(0x00, 0x20)\n      swap1\n    tag_117:\n      dup2\n      sload\n      dup2\n      mstore\n      swap1\n      0x01\n      add\n      swap1\n      0x20\n      add\n      dup1\n      dup4\n      gt\n      tag_117\n      jumpi\n      dup3\n      swap1\n      sub\n      0x1f\n      and\n      dup3\n      add\n      swap2\n    tag_115:\n      pop\n      pop\n      pop\n      pop\n      pop\n      dup2\n      mstore\n      0x20\n      add\n      0x02\n      dup3\n      add\n      dup1\n      sload\n      tag_118\n      swap1\n      tag_70\n      jump\t// in\n    tag_118:\n      dup1\n      0x1f\n      add\n      0x20\n      dup1\n      swap2\n      div\n      mul\n      0x20\n      add\n      mload(0x40)\n      swap1\n      dup2\n      add\n      0x40\n      mstore\n      dup1\n      swap3\n      swap2\n      swap1\n      dup2\n      dup2\n      mstore\n      0x20\n      add\n      dup3\n      dup1\n      sload\n      tag_119\n      swap1\n      tag_70\n      jump\t// in\n    tag_119:\n      dup1\n      iszero\n      tag_120\n      jumpi\n      dup1\n      0x1f\n      lt\n      tag_121\n      jumpi\n      0x0100\n      dup1\n      dup4\n      sload\n      div\n      mul\n      dup4\n      mstore\n      swap2\n      0x20\n      add\n      swap2\n      jump(tag_120)\n    tag_121:\n      dup3\n      add\n      swap2\n      swap1\n      0x00\n      mstore\n      keccak256(0x00, 0x20)\n      swap1\n    tag_122:\n      dup2\n      sload\n      dup2\n      mstore\n      swap1\n      0x01\n      add\n      swap1\n      0x20\n      add\n      dup1\n      dup4\n      gt\n      tag_122\n      jumpi\n      dup3\n      swap1\n      sub\n      0x1f\n      and\n      dup3\n      add\n      swap2\n    tag_120:\n      pop\n      pop\n      pop\n      pop\n      pop\n      dup2\n      mstore\n      0x20\n      add\n      0x03\n      dup3\n      add\n      sload\n      dup2\n      mstore\n      0x20\n      add\n      0x04\n      dup3\n      add\n      sload\n      dup2\n      mstore\n      0x20\n      add\n      0x05\n      dup3\n      add\n      sload\n      dup2\n      mstore\n      0x20\n      add\n      0x06\n      dup3\n      add\n      dup1\n      sload\n      dup1\n      0x20\n      mul\n      0x20\n      add\n      mload(0x40)\n      swap1\n      dup2\n      add\n      0x40\n      mstore\n      dup1\n      swap3\n      swap2\n      swap1\n      dup2\n      dup2\n      mstore\n      0x20\n      add\n      dup3\n      dup1\n      sload\n      dup1\n      iszero\n      tag_123\n      jumpi\n      0x20\n      mul\n      dup3\n      add\n      swap2\n      swap1\n      0x00\n      mstore\n      keccak256(0x00, 0x20)\n      swap1\n    tag_124:\n      dup2\n      sload\n      sub(shl(0xa0, 0x01), 0x01)\n      and\n      dup2\n      mstore\n      0x01\n      swap1\n      swap2\n      add\n      swap1\n      0x20\n      add\n      dup1\n      dup4\n      gt\n      tag_124\n      jumpi\n    tag_123:\n      pop\n      pop\n      pop\n      pop\n      pop\n      dup2\n      mstore\n      0x20\n      add\n      0x07\n      dup3\n      add\n      dup1\n      sload\n      dup1\n      0x20\n      mul\n      0x20\n      add\n      mload(0x40)\n      swap1\n      dup2\n      add\n      0x40\n      mstore\n      dup1\n      swap3\n      swap2\n      swap1\n      dup2\n      dup2\n      mstore\n      0x20\n      add\n      dup3\n      dup1\n      sload\n      dup1\n      iszero\n      tag_125\n      jumpi\n      0x20\n      mul\n      dup3\n      add\n      swap2\n      swap1\n      0x00\n      mstore\n      keccak256(0x00, 0x20)\n      swap1\n    tag_126:\n      dup2\n      sload\n      dup2\n      mstore\n      0x20\n      add\n      swap1\n      0x01\n      add\n      swap1\n      dup1\n      dup4\n      gt\n      tag_126\n      jumpi\n    tag_125:\n      pop\n      pop\n      pop\n      swap2\n      dup4\n      mstore\n      pop\n      pop\n      0x08\n      swap2\n      swap1\n      swap2\n      add\n      sload\n      0xff\n      and\n      iszero\n      iszero\n      0x20\n      swap1\n      swap2\n      add\n      mstore\n        /* \"CoinCamp.sol\":2405:2420  allCampaigns[i] */\n      dup4\n      mload\n        /* \"CoinCamp.sol\":2405:2417  allCampaigns */\n      dup5\n      swap1\n        /* \"CoinCamp.sol\":2418:2419  i */\n      dup5\n      swap1\n        /* \"CoinCamp.sol\":2405:2420  allCampaigns[i] */\n      dup2\n      lt\n      tag_128\n      jumpi\n      tag_128\n      tag_129\n      jump\t// in\n    tag_128:\n      0x20\n      mul\n      0x20\n      add\n      add\n        /* \"CoinCamp.sol\":2405:2427  allCampaigns[i] = item */\n      dup2\n      swap1\n      mstore\n      pop\n        /* \"CoinCamp.sol\":2337:2439  {... */\n      pop\n        /* \"CoinCamp.sol\":2332:2335  i++ */\n      dup1\n      dup1\n      tag_130\n      swap1\n      tag_131\n      jump\t// in\n    tag_130:\n      swap2\n      pop\n      pop\n        /* \"CoinCamp.sol\":2293:2439  for(uint i = 0; i < numberOfCampaigns; i++) {... */\n      jump(tag_110)\n    tag_111:\n      pop\n        /* \"CoinCamp.sol\":2458:2470  allCampaigns */\n      swap2\n        /* \"CoinCamp.sol\":2139:2478  function getCampaigns() public view returns (Campaign[] memory) {... */\n      swap1\n      pop\n      jump\t// out\n        /* \"CoinCamp.sol\":2587:2935  function getTimeLeft(uint256 _id) public view returns (uint) {... */\n    tag_51:\n        /* \"CoinCamp.sol\":2642:2646  uint */\n      0x00\n        /* \"CoinCamp.sol\":2687:2701  campaigns[_id] */\n      dup2\n      dup2\n      mstore\n      0x20\n      dup2\n      swap1\n      mstore\n      0x40\n      dup2\n      keccak256\n        /* \"CoinCamp.sol\":2720:2735  campaign.active */\n      0x08\n      dup2\n      add\n      sload\n      0xff\n      and\n        /* \"CoinCamp.sol\":2720:2743  campaign.active == true */\n      iszero\n      iszero\n        /* \"CoinCamp.sol\":2720:2735  campaign.active */\n      0x01\n        /* \"CoinCamp.sol\":2720:2743  campaign.active == true */\n      eq\n        /* \"CoinCamp.sol\":2712:2776  require(campaign.active == true, \"The Funding Period has ended\") */\n      tag_133\n      jumpi\n      mload(0x40)\n      shl(0xe5, 0x461bcd)\n      dup2\n      mstore\n        /* \"#utility.yul\":11734:11736   */\n      0x20\n        /* \"CoinCamp.sol\":2712:2776  require(campaign.active == true, \"The Funding Period has ended\") */\n      0x04\n      dup3\n      add\n        /* \"#utility.yul\":11716:11737   */\n      mstore\n        /* \"#utility.yul\":11773:11775   */\n      0x1c\n        /* \"#utility.yul\":11753:11771   */\n      0x24\n      dup3\n      add\n        /* \"#utility.yul\":11746:11776   */\n      mstore\n        /* \"#utility.yul\":11812:11842   */\n      0x5468652046756e64696e6720506572696f642068617320656e64656400000000\n        /* \"#utility.yul\":11792:11810   */\n      0x44\n      dup3\n      add\n        /* \"#utility.yul\":11785:11843   */\n      mstore\n        /* \"#utility.yul\":11860:11878   */\n      0x64\n      add\n        /* \"CoinCamp.sol\":2712:2776  require(campaign.active == true, \"The Funding Period has ended\") */\n      tag_55\n        /* \"#utility.yul\":11532:11884   */\n      jump\n        /* \"CoinCamp.sol\":2712:2776  require(campaign.active == true, \"The Funding Period has ended\") */\n    tag_133:\n        /* \"CoinCamp.sol\":2813:2821  campaign */\n      dup1\n        /* \"CoinCamp.sol\":2813:2830  campaign.deadline */\n      0x04\n      add\n      sload\n        /* \"CoinCamp.sol\":2795:2810  block.timestamp */\n      timestamp\n        /* \"CoinCamp.sol\":2795:2830  block.timestamp < campaign.deadline */\n      lt\n        /* \"CoinCamp.sol\":2787:2868  require(block.timestamp < campaign.deadline, \"The Funding Deadline has elapsed.\") */\n      tag_135\n      jumpi\n      mload(0x40)\n      shl(0xe5, 0x461bcd)\n      dup2\n      mstore\n        /* \"#utility.yul\":12091:12093   */\n      0x20\n        /* \"CoinCamp.sol\":2787:2868  require(block.timestamp < campaign.deadline, \"The Funding Deadline has elapsed.\") */\n      0x04\n      dup3\n      add\n        /* \"#utility.yul\":12073:12094   */\n      mstore\n        /* \"#utility.yul\":12130:12132   */\n      0x21\n        /* \"#utility.yul\":12110:12128   */\n      0x24\n      dup3\n      add\n        /* \"#utility.yul\":12103:12133   */\n      mstore\n        /* \"#utility.yul\":12169:12203   */\n      0x5468652046756e64696e6720446561646c696e652068617320656c6170736564\n        /* \"#utility.yul\":12149:12167   */\n      0x44\n      dup3\n      add\n        /* \"#utility.yul\":12142:12204   */\n      mstore\n      shl(0xf9, 0x17)\n        /* \"#utility.yul\":12220:12238   */\n      0x64\n      dup3\n      add\n        /* \"#utility.yul\":12213:12244   */\n      mstore\n        /* \"#utility.yul\":12261:12280   */\n      0x84\n      add\n        /* \"CoinCamp.sol\":2787:2868  require(block.timestamp < campaign.deadline, \"The Funding Deadline has elapsed.\") */\n      tag_55\n        /* \"#utility.yul\":11889:12286   */\n      jump\n        /* \"CoinCamp.sol\":2787:2868  require(block.timestamp < campaign.deadline, \"The Funding Deadline has elapsed.\") */\n    tag_135:\n        /* \"CoinCamp.sol\":2911:2926  block.timestamp */\n      timestamp\n        /* \"CoinCamp.sol\":2891:2899  campaign */\n      dup2\n        /* \"CoinCamp.sol\":2891:2908  campaign.deadline */\n      0x04\n      add\n      sload\n        /* \"CoinCamp.sol\":2891:2926  campaign.deadline - block.timestamp */\n      tag_137\n      swap2\n      swap1\n      tag_138\n      jump\t// in\n    tag_137:\n        /* \"CoinCamp.sol\":2879:2927  return uint(campaign.deadline - block.timestamp) */\n      swap4\n        /* \"CoinCamp.sol\":2587:2935  function getTimeLeft(uint256 _id) public view returns (uint) {... */\n      swap3\n      pop\n      pop\n      pop\n      jump\t// out\n        /* \"#utility.yul\":14:141   */\n    tag_105:\n        /* \"#utility.yul\":75:85   */\n      0x4e487b71\n        /* \"#utility.yul\":70:73   */\n      0xe0\n        /* \"#utility.yul\":66:86   */\n      shl\n        /* \"#utility.yul\":63:64   */\n      0x00\n        /* \"#utility.yul\":56:87   */\n      mstore\n        /* \"#utility.yul\":106:110   */\n      0x41\n        /* \"#utility.yul\":103:104   */\n      0x04\n        /* \"#utility.yul\":96:111   */\n      mstore\n        /* \"#utility.yul\":130:134   */\n      0x24\n        /* \"#utility.yul\":127:128   */\n      0x00\n        /* \"#utility.yul\":120:135   */\n      revert\n        /* \"#utility.yul\":146:865   */\n    tag_139:\n        /* \"#utility.yul\":189:194   */\n      0x00\n        /* \"#utility.yul\":242:245   */\n      dup3\n        /* \"#utility.yul\":235:239   */\n      0x1f\n        /* \"#utility.yul\":227:233   */\n      dup4\n        /* \"#utility.yul\":223:240   */\n      add\n        /* \"#utility.yul\":219:246   */\n      slt\n        /* \"#utility.yul\":209:264   */\n      tag_152\n      jumpi\n        /* \"#utility.yul\":260:261   */\n      0x00\n        /* \"#utility.yul\":257:258   */\n      dup1\n        /* \"#utility.yul\":250:262   */\n      revert\n        /* \"#utility.yul\":209:264   */\n    tag_152:\n        /* \"#utility.yul\":296:302   */\n      dup2\n        /* \"#utility.yul\":283:303   */\n      calldataload\n        /* \"#utility.yul\":322:340   */\n      0xffffffffffffffff\n        /* \"#utility.yul\":359:361   */\n      dup1\n        /* \"#utility.yul\":355:357   */\n      dup3\n        /* \"#utility.yul\":352:362   */\n      gt\n        /* \"#utility.yul\":349:385   */\n      iszero\n      tag_154\n      jumpi\n        /* \"#utility.yul\":365:383   */\n      tag_154\n      tag_105\n      jump\t// in\n    tag_154:\n        /* \"#utility.yul\":440:442   */\n      0x40\n        /* \"#utility.yul\":434:443   */\n      mload\n        /* \"#utility.yul\":408:410   */\n      0x1f\n        /* \"#utility.yul\":494:507   */\n      dup4\n      add\n      not(0x1f)\n        /* \"#utility.yul\":490:512   */\n      swap1\n      dup2\n      and\n        /* \"#utility.yul\":514:516   */\n      0x3f\n        /* \"#utility.yul\":486:517   */\n      add\n        /* \"#utility.yul\":482:522   */\n      and\n        /* \"#utility.yul\":470:523   */\n      dup2\n      add\n      swap1\n        /* \"#utility.yul\":538:556   */\n      dup3\n      dup3\n      gt\n        /* \"#utility.yul\":558:580   */\n      dup2\n      dup4\n      lt\n        /* \"#utility.yul\":535:581   */\n      or\n        /* \"#utility.yul\":532:604   */\n      iszero\n      tag_156\n      jumpi\n        /* \"#utility.yul\":584:602   */\n      tag_156\n      tag_105\n      jump\t// in\n    tag_156:\n        /* \"#utility.yul\":624:634   */\n      dup2\n        /* \"#utility.yul\":620:622   */\n      0x40\n        /* \"#utility.yul\":613:635   */\n      mstore\n        /* \"#utility.yul\":659:661   */\n      dup4\n        /* \"#utility.yul\":651:657   */\n      dup2\n        /* \"#utility.yul\":644:662   */\n      mstore\n        /* \"#utility.yul\":705:708   */\n      dup7\n        /* \"#utility.yul\":698:702   */\n      0x20\n        /* \"#utility.yul\":693:695   */\n      dup6\n        /* \"#utility.yul\":685:691   */\n      dup9\n        /* \"#utility.yul\":681:696   */\n      add\n        /* \"#utility.yul\":677:703   */\n      add\n        /* \"#utility.yul\":674:709   */\n      gt\n        /* \"#utility.yul\":671:726   */\n      iszero\n      tag_157\n      jumpi\n        /* \"#utility.yul\":722:723   */\n      0x00\n        /* \"#utility.yul\":719:720   */\n      dup1\n        /* \"#utility.yul\":712:724   */\n      revert\n        /* \"#utility.yul\":671:726   */\n    tag_157:\n        /* \"#utility.yul\":786:788   */\n      dup4\n        /* \"#utility.yul\":779:783   */\n      0x20\n        /* \"#utility.yul\":771:777   */\n      dup8\n        /* \"#utility.yul\":767:784   */\n      add\n        /* \"#utility.yul\":760:764   */\n      0x20\n        /* \"#utility.yul\":752:758   */\n      dup4\n        /* \"#utility.yul\":748:765   */\n      add\n        /* \"#utility.yul\":735:789   */\n      calldatacopy\n        /* \"#utility.yul\":833:834   */\n      0x00\n        /* \"#utility.yul\":826:830   */\n      0x20\n        /* \"#utility.yul\":821:823   */\n      dup6\n        /* \"#utility.yul\":813:819   */\n      dup4\n        /* \"#utility.yul\":809:824   */\n      add\n        /* \"#utility.yul\":805:831   */\n      add\n        /* \"#utility.yul\":798:835   */\n      mstore\n        /* \"#utility.yul\":853:859   */\n      dup1\n        /* \"#utility.yul\":844:859   */\n      swap5\n      pop\n      pop\n      pop\n      pop\n      pop\n        /* \"#utility.yul\":146:865   */\n      swap3\n      swap2\n      pop\n      pop\n      jump\t// out\n        /* \"#utility.yul\":870:1748   */\n    tag_14:\n        /* \"#utility.yul\":985:991   */\n      0x00\n        /* \"#utility.yul\":993:999   */\n      dup1\n        /* \"#utility.yul\":1001:1007   */\n      0x00\n        /* \"#utility.yul\":1009:1015   */\n      dup1\n        /* \"#utility.yul\":1017:1023   */\n      0x00\n        /* \"#utility.yul\":1070:1073   */\n      0xa0\n        /* \"#utility.yul\":1058:1067   */\n      dup7\n        /* \"#utility.yul\":1049:1056   */\n      dup9\n        /* \"#utility.yul\":1045:1068   */\n      sub\n        /* \"#utility.yul\":1041:1074   */\n      slt\n        /* \"#utility.yul\":1038:1091   */\n      iszero\n      tag_159\n      jumpi\n        /* \"#utility.yul\":1087:1088   */\n      0x00\n        /* \"#utility.yul\":1084:1085   */\n      dup1\n        /* \"#utility.yul\":1077:1089   */\n      revert\n        /* \"#utility.yul\":1038:1091   */\n    tag_159:\n        /* \"#utility.yul\":1126:1135   */\n      dup6\n        /* \"#utility.yul\":1113:1136   */\n      calldataload\n      sub(shl(0xa0, 0x01), 0x01)\n        /* \"#utility.yul\":1169:1174   */\n      dup2\n        /* \"#utility.yul\":1165:1219   */\n      and\n        /* \"#utility.yul\":1158:1163   */\n      dup2\n        /* \"#utility.yul\":1155:1220   */\n      eq\n        /* \"#utility.yul\":1145:1238   */\n      tag_160\n      jumpi\n        /* \"#utility.yul\":1234:1235   */\n      0x00\n        /* \"#utility.yul\":1231:1232   */\n      dup1\n        /* \"#utility.yul\":1224:1236   */\n      revert\n        /* \"#utility.yul\":1145:1238   */\n    tag_160:\n        /* \"#utility.yul\":1257:1262   */\n      swap5\n      pop\n        /* \"#utility.yul\":1313:1315   */\n      0x20\n        /* \"#utility.yul\":1298:1316   */\n      dup7\n      add\n        /* \"#utility.yul\":1285:1317   */\n      calldataload\n        /* \"#utility.yul\":1336:1354   */\n      0xffffffffffffffff\n        /* \"#utility.yul\":1366:1380   */\n      dup1\n      dup3\n      gt\n        /* \"#utility.yul\":1363:1397   */\n      iszero\n      tag_161\n      jumpi\n        /* \"#utility.yul\":1393:1394   */\n      0x00\n        /* \"#utility.yul\":1390:1391   */\n      dup1\n        /* \"#utility.yul\":1383:1395   */\n      revert\n        /* \"#utility.yul\":1363:1397   */\n    tag_161:\n        /* \"#utility.yul\":1416:1466   */\n      tag_162\n        /* \"#utility.yul\":1458:1465   */\n      dup10\n        /* \"#utility.yul\":1449:1455   */\n      dup4\n        /* \"#utility.yul\":1438:1447   */\n      dup11\n        /* \"#utility.yul\":1434:1456   */\n      add\n        /* \"#utility.yul\":1416:1466   */\n      tag_139\n      jump\t// in\n    tag_162:\n        /* \"#utility.yul\":1406:1466   */\n      swap6\n      pop\n        /* \"#utility.yul\":1519:1521   */\n      0x40\n        /* \"#utility.yul\":1508:1517   */\n      dup9\n        /* \"#utility.yul\":1504:1522   */\n      add\n        /* \"#utility.yul\":1491:1523   */\n      calldataload\n        /* \"#utility.yul\":1475:1523   */\n      swap2\n      pop\n        /* \"#utility.yul\":1548:1550   */\n      dup1\n        /* \"#utility.yul\":1538:1546   */\n      dup3\n        /* \"#utility.yul\":1535:1551   */\n      gt\n        /* \"#utility.yul\":1532:1568   */\n      iszero\n      tag_163\n      jumpi\n        /* \"#utility.yul\":1564:1565   */\n      0x00\n        /* \"#utility.yul\":1561:1562   */\n      dup1\n        /* \"#utility.yul\":1554:1566   */\n      revert\n        /* \"#utility.yul\":1532:1568   */\n    tag_163:\n      pop\n        /* \"#utility.yul\":1587:1639   */\n      tag_164\n        /* \"#utility.yul\":1631:1638   */\n      dup9\n        /* \"#utility.yul\":1620:1628   */\n      dup3\n        /* \"#utility.yul\":1609:1618   */\n      dup10\n        /* \"#utility.yul\":1605:1629   */\n      add\n        /* \"#utility.yul\":1587:1639   */\n      tag_139\n      jump\t// in\n    tag_164:\n        /* \"#utility.yul\":870:1748   */\n      swap6\n      swap9\n      swap5\n      swap8\n      pop\n        /* \"#utility.yul\":1577:1639   */\n      swap5\n      swap6\n        /* \"#utility.yul\":1686:1688   */\n      0x60\n        /* \"#utility.yul\":1671:1689   */\n      dup2\n      add\n        /* \"#utility.yul\":1658:1690   */\n      calldataload\n      swap6\n      pop\n        /* \"#utility.yul\":1737:1740   */\n      0x80\n        /* \"#utility.yul\":1722:1741   */\n      add\n        /* \"#utility.yul\":1709:1742   */\n      calldataload\n      swap4\n        /* \"#utility.yul\":870:1748   */\n      swap3\n      pop\n      pop\n      pop\n      jump\t// out\n        /* \"#utility.yul\":2128:2308   */\n    tag_26:\n        /* \"#utility.yul\":2187:2193   */\n      0x00\n        /* \"#utility.yul\":2240:2242   */\n      0x20\n        /* \"#utility.yul\":2228:2237   */\n      dup3\n        /* \"#utility.yul\":2219:2226   */\n      dup5\n        /* \"#utility.yul\":2215:2238   */\n      sub\n        /* \"#utility.yul\":2211:2243   */\n      slt\n        /* \"#utility.yul\":2208:2260   */\n      iszero\n      tag_168\n      jumpi\n        /* \"#utility.yul\":2256:2257   */\n      0x00\n        /* \"#utility.yul\":2253:2254   */\n      dup1\n        /* \"#utility.yul\":2246:2258   */\n      revert\n        /* \"#utility.yul\":2208:2260   */\n    tag_168:\n      pop\n        /* \"#utility.yul\":2279:2302   */\n      calldataload\n      swap2\n        /* \"#utility.yul\":2128:2308   */\n      swap1\n      pop\n      jump\t// out\n        /* \"#utility.yul\":2445:3646   */\n    tag_29:\n        /* \"#utility.yul\":2713:2715   */\n      0x40\n        /* \"#utility.yul\":2725:2746   */\n      dup1\n      dup3\n      mstore\n        /* \"#utility.yul\":2795:2808   */\n      dup4\n      mload\n        /* \"#utility.yul\":2698:2716   */\n      swap1\n      dup3\n      add\n        /* \"#utility.yul\":2817:2839   */\n      dup2\n      swap1\n      mstore\n        /* \"#utility.yul\":2665:2669   */\n      0x00\n      swap1\n        /* \"#utility.yul\":2892:2896   */\n      0x20\n      swap1\n        /* \"#utility.yul\":2870:2872   */\n      0x60\n        /* \"#utility.yul\":2855:2873   */\n      dup5\n      add\n      swap1\n        /* \"#utility.yul\":2919:2934   */\n      dup3\n      dup8\n      add\n        /* \"#utility.yul\":2665:2669   */\n      dup5\n        /* \"#utility.yul\":2962:3180   */\n    tag_171:\n        /* \"#utility.yul\":2976:2982   */\n      dup3\n        /* \"#utility.yul\":2973:2974   */\n      dup2\n        /* \"#utility.yul\":2970:2983   */\n      lt\n        /* \"#utility.yul\":2962:3180   */\n      iszero\n      tag_173\n      jumpi\n        /* \"#utility.yul\":3041:3054   */\n      dup2\n      mload\n      sub(shl(0xa0, 0x01), 0x01)\n        /* \"#utility.yul\":3037:3099   */\n      and\n        /* \"#utility.yul\":3025:3100   */\n      dup5\n      mstore\n        /* \"#utility.yul\":3120:3132   */\n      swap3\n      dup5\n      add\n      swap3\n        /* \"#utility.yul\":3155:3170   */\n      swap1\n      dup5\n      add\n      swap1\n        /* \"#utility.yul\":2998:2999   */\n      0x01\n        /* \"#utility.yul\":2991:3000   */\n      add\n        /* \"#utility.yul\":2962:3180   */\n      jump(tag_171)\n    tag_173:\n      pop\n      pop\n      pop\n        /* \"#utility.yul\":3216:3235   */\n      dup4\n      dup2\n      sub\n        /* \"#utility.yul\":3196:3214   */\n      dup3\n      dup6\n      add\n        /* \"#utility.yul\":3189:3236   */\n      mstore\n        /* \"#utility.yul\":3286:3299   */\n      dup5\n      mload\n        /* \"#utility.yul\":3308:3329   */\n      dup1\n      dup3\n      mstore\n        /* \"#utility.yul\":3384:3399   */\n      dup6\n      dup4\n      add\n      swap2\n        /* \"#utility.yul\":3347:3359   */\n      dup4\n      add\n      swap1\n        /* \"#utility.yul\":3419:3420   */\n      0x00\n        /* \"#utility.yul\":3429:3618   */\n    tag_174:\n        /* \"#utility.yul\":3445:3453   */\n      dup2\n        /* \"#utility.yul\":3440:3443   */\n      dup2\n        /* \"#utility.yul\":3437:3454   */\n      lt\n        /* \"#utility.yul\":3429:3618   */\n      iszero\n      tag_176\n      jumpi\n        /* \"#utility.yul\":3514:3529   */\n      dup4\n      mload\n        /* \"#utility.yul\":3500:3530   */\n      dup4\n      mstore\n        /* \"#utility.yul\":3591:3608   */\n      swap3\n      dup5\n      add\n      swap3\n        /* \"#utility.yul\":3552:3566   */\n      swap2\n      dup5\n      add\n      swap2\n        /* \"#utility.yul\":3473:3474   */\n      0x01\n        /* \"#utility.yul\":3464:3475   */\n      add\n        /* \"#utility.yul\":3429:3618   */\n      jump(tag_174)\n    tag_176:\n      pop\n        /* \"#utility.yul\":3635:3640   */\n      swap1\n      swap8\n        /* \"#utility.yul\":2445:3646   */\n      swap7\n      pop\n      pop\n      pop\n      pop\n      pop\n      pop\n      pop\n      jump\t// out\n        /* \"#utility.yul\":3651:4074   */\n    tag_141:\n        /* \"#utility.yul\":3693:3696   */\n      0x00\n        /* \"#utility.yul\":3731:3736   */\n      dup2\n        /* \"#utility.yul\":3725:3737   */\n      mload\n        /* \"#utility.yul\":3758:3764   */\n      dup1\n        /* \"#utility.yul\":3753:3756   */\n      dup5\n        /* \"#utility.yul\":3746:3765   */\n      mstore\n        /* \"#utility.yul\":3783:3784   */\n      0x00\n        /* \"#utility.yul\":3793:3955   */\n    tag_178:\n        /* \"#utility.yul\":3807:3813   */\n      dup2\n        /* \"#utility.yul\":3804:3805   */\n      dup2\n        /* \"#utility.yul\":3801:3814   */\n      lt\n        /* \"#utility.yul\":3793:3955   */\n      iszero\n      tag_180\n      jumpi\n        /* \"#utility.yul\":3869:3873   */\n      0x20\n        /* \"#utility.yul\":3925:3938   */\n      dup2\n      dup6\n      add\n        /* \"#utility.yul\":3921:3943   */\n      dup2\n      add\n        /* \"#utility.yul\":3915:3944   */\n      mload\n        /* \"#utility.yul\":3897:3908   */\n      dup7\n      dup4\n      add\n        /* \"#utility.yul\":3893:3913   */\n      dup3\n      add\n        /* \"#utility.yul\":3886:3945   */\n      mstore\n        /* \"#utility.yul\":3822:3834   */\n      add\n        /* \"#utility.yul\":3793:3955   */\n      jump(tag_178)\n    tag_180:\n        /* \"#utility.yul\":3797:3800   */\n      pop\n        /* \"#utility.yul\":4000:4001   */\n      0x00\n        /* \"#utility.yul\":3993:3997   */\n      0x20\n        /* \"#utility.yul\":3984:3990   */\n      dup3\n        /* \"#utility.yul\":3979:3982   */\n      dup7\n        /* \"#utility.yul\":3975:3991   */\n      add\n        /* \"#utility.yul\":3971:3998   */\n      add\n        /* \"#utility.yul\":3964:4002   */\n      mstore\n        /* \"#utility.yul\":4063:4067   */\n      0x20\n        /* \"#utility.yul\":4056:4058   */\n      0x1f\n        /* \"#utility.yul\":4052:4059   */\n      not\n        /* \"#utility.yul\":4047:4049   */\n      0x1f\n        /* \"#utility.yul\":4039:4045   */\n      dup4\n        /* \"#utility.yul\":4035:4050   */\n      add\n        /* \"#utility.yul\":4031:4060   */\n      and\n        /* \"#utility.yul\":4026:4029   */\n      dup6\n        /* \"#utility.yul\":4022:4061   */\n      add\n        /* \"#utility.yul\":4018:4068   */\n      add\n        /* \"#utility.yul\":4011:4068   */\n      swap2\n      pop\n      pop\n        /* \"#utility.yul\":3651:4074   */\n      swap3\n      swap2\n      pop\n      pop\n      jump\t// out\n        /* \"#utility.yul\":4175:4977   */\n    tag_35:\n      sub(shl(0xa0, 0x01), 0x01)\n        /* \"#utility.yul\":4510:4516   */\n      dup9\n        /* \"#utility.yul\":4506:4561   */\n      and\n        /* \"#utility.yul\":4495:4504   */\n      dup2\n        /* \"#utility.yul\":4488:4562   */\n      mstore\n        /* \"#utility.yul\":4598:4601   */\n      0xe0\n        /* \"#utility.yul\":4593:4595   */\n      0x20\n        /* \"#utility.yul\":4582:4591   */\n      dup3\n        /* \"#utility.yul\":4578:4596   */\n      add\n        /* \"#utility.yul\":4571:4602   */\n      mstore\n        /* \"#utility.yul\":4469:4473   */\n      0x00\n        /* \"#utility.yul\":4625:4671   */\n      tag_183\n        /* \"#utility.yul\":4666:4669   */\n      0xe0\n        /* \"#utility.yul\":4655:4664   */\n      dup4\n        /* \"#utility.yul\":4651:4670   */\n      add\n        /* \"#utility.yul\":4643:4649   */\n      dup10\n        /* \"#utility.yul\":4625:4671   */\n      tag_141\n      jump\t// in\n    tag_183:\n        /* \"#utility.yul\":4719:4728   */\n      dup3\n        /* \"#utility.yul\":4711:4717   */\n      dup2\n        /* \"#utility.yul\":4707:4729   */\n      sub\n        /* \"#utility.yul\":4702:4704   */\n      0x40\n        /* \"#utility.yul\":4691:4700   */\n      dup5\n        /* \"#utility.yul\":4687:4705   */\n      add\n        /* \"#utility.yul\":4680:4730   */\n      mstore\n        /* \"#utility.yul\":4747:4780   */\n      tag_184\n        /* \"#utility.yul\":4773:4779   */\n      dup2\n        /* \"#utility.yul\":4765:4771   */\n      dup10\n        /* \"#utility.yul\":4747:4780   */\n      tag_141\n      jump\t// in\n    tag_184:\n        /* \"#utility.yul\":4739:4780   */\n      swap2\n      pop\n      pop\n        /* \"#utility.yul\":4816:4822   */\n      dup6\n        /* \"#utility.yul\":4811:4813   */\n      0x60\n        /* \"#utility.yul\":4800:4809   */\n      dup4\n        /* \"#utility.yul\":4796:4814   */\n      add\n        /* \"#utility.yul\":4789:4823   */\n      mstore\n        /* \"#utility.yul\":4860:4866   */\n      dup5\n        /* \"#utility.yul\":4854:4857   */\n      0x80\n        /* \"#utility.yul\":4843:4852   */\n      dup4\n        /* \"#utility.yul\":4839:4858   */\n      add\n        /* \"#utility.yul\":4832:4867   */\n      mstore\n        /* \"#utility.yul\":4904:4910   */\n      dup4\n        /* \"#utility.yul\":4898:4901   */\n      0xa0\n        /* \"#utility.yul\":4887:4896   */\n      dup4\n        /* \"#utility.yul\":4883:4902   */\n      add\n        /* \"#utility.yul\":4876:4911   */\n      mstore\n        /* \"#utility.yul\":4962:4968   */\n      dup3\n        /* \"#utility.yul\":4955:4969   */\n      iszero\n        /* \"#utility.yul\":4948:4970   */\n      iszero\n        /* \"#utility.yul\":4942:4945   */\n      0xc0\n        /* \"#utility.yul\":4931:4940   */\n      dup4\n        /* \"#utility.yul\":4927:4946   */\n      add\n        /* \"#utility.yul\":4920:4971   */\n      mstore\n        /* \"#utility.yul\":4175:4977   */\n      swap9\n      swap8\n      pop\n      pop\n      pop\n      pop\n      pop\n      pop\n      pop\n      pop\n      jump\t// out\n        /* \"#utility.yul\":4982:5466   */\n    tag_143:\n        /* \"#utility.yul\":5035:5038   */\n      0x00\n        /* \"#utility.yul\":5073:5078   */\n      dup2\n        /* \"#utility.yul\":5067:5079   */\n      mload\n        /* \"#utility.yul\":5100:5106   */\n      dup1\n        /* \"#utility.yul\":5095:5098   */\n      dup5\n        /* \"#utility.yul\":5088:5107   */\n      mstore\n        /* \"#utility.yul\":5126:5130   */\n      0x20\n        /* \"#utility.yul\":5155:5157   */\n      dup1\n        /* \"#utility.yul\":5150:5153   */\n      dup6\n        /* \"#utility.yul\":5146:5158   */\n      add\n        /* \"#utility.yul\":5139:5158   */\n      swap5\n      pop\n        /* \"#utility.yul\":5192:5194   */\n      dup1\n        /* \"#utility.yul\":5185:5190   */\n      dup5\n        /* \"#utility.yul\":5181:5195   */\n      add\n        /* \"#utility.yul\":5213:5214   */\n      0x00\n        /* \"#utility.yul\":5223:5441   */\n    tag_186:\n        /* \"#utility.yul\":5237:5243   */\n      dup4\n        /* \"#utility.yul\":5234:5235   */\n      dup2\n        /* \"#utility.yul\":5231:5244   */\n      lt\n        /* \"#utility.yul\":5223:5441   */\n      iszero\n      tag_188\n      jumpi\n        /* \"#utility.yul\":5302:5315   */\n      dup2\n      mload\n      sub(shl(0xa0, 0x01), 0x01)\n        /* \"#utility.yul\":5298:5360   */\n      and\n        /* \"#utility.yul\":5286:5361   */\n      dup8\n      mstore\n        /* \"#utility.yul\":5381:5393   */\n      swap6\n      dup3\n      add\n      swap6\n        /* \"#utility.yul\":5416:5431   */\n      swap1\n      dup3\n      add\n      swap1\n        /* \"#utility.yul\":5259:5260   */\n      0x01\n        /* \"#utility.yul\":5252:5261   */\n      add\n        /* \"#utility.yul\":5223:5441   */\n      jump(tag_186)\n    tag_188:\n      pop\n        /* \"#utility.yul\":5457:5460   */\n      swap5\n      swap6\n        /* \"#utility.yul\":4982:5466   */\n      swap5\n      pop\n      pop\n      pop\n      pop\n      pop\n      jump\t// out\n        /* \"#utility.yul\":5471:5906   */\n    tag_144:\n        /* \"#utility.yul\":5524:5527   */\n      0x00\n        /* \"#utility.yul\":5562:5567   */\n      dup2\n        /* \"#utility.yul\":5556:5568   */\n      mload\n        /* \"#utility.yul\":5589:5595   */\n      dup1\n        /* \"#utility.yul\":5584:5587   */\n      dup5\n        /* \"#utility.yul\":5577:5596   */\n      mstore\n        /* \"#utility.yul\":5615:5619   */\n      0x20\n        /* \"#utility.yul\":5644:5646   */\n      dup1\n        /* \"#utility.yul\":5639:5642   */\n      dup6\n        /* \"#utility.yul\":5635:5647   */\n      add\n        /* \"#utility.yul\":5628:5647   */\n      swap5\n      pop\n        /* \"#utility.yul\":5681:5683   */\n      dup1\n        /* \"#utility.yul\":5674:5679   */\n      dup5\n        /* \"#utility.yul\":5670:5684   */\n      add\n        /* \"#utility.yul\":5702:5703   */\n      0x00\n        /* \"#utility.yul\":5712:5881   */\n    tag_190:\n        /* \"#utility.yul\":5726:5732   */\n      dup4\n        /* \"#utility.yul\":5723:5724   */\n      dup2\n        /* \"#utility.yul\":5720:5733   */\n      lt\n        /* \"#utility.yul\":5712:5881   */\n      iszero\n      tag_188\n      jumpi\n        /* \"#utility.yul\":5787:5800   */\n      dup2\n      mload\n        /* \"#utility.yul\":5775:5801   */\n      dup8\n      mstore\n        /* \"#utility.yul\":5821:5833   */\n      swap6\n      dup3\n      add\n      swap6\n        /* \"#utility.yul\":5856:5871   */\n      swap1\n      dup3\n      add\n      swap1\n        /* \"#utility.yul\":5748:5749   */\n      0x01\n        /* \"#utility.yul\":5741:5750   */\n      add\n        /* \"#utility.yul\":5712:5881   */\n      jump(tag_190)\n        /* \"#utility.yul\":5911:8015   */\n    tag_47:\n        /* \"#utility.yul\":6101:6105   */\n      0x00\n        /* \"#utility.yul\":6130:6132   */\n      0x20\n        /* \"#utility.yul\":6170:6172   */\n      dup1\n        /* \"#utility.yul\":6159:6168   */\n      dup4\n        /* \"#utility.yul\":6155:6173   */\n      add\n        /* \"#utility.yul\":6200:6202   */\n      dup2\n        /* \"#utility.yul\":6189:6198   */\n      dup5\n        /* \"#utility.yul\":6182:6203   */\n      mstore\n        /* \"#utility.yul\":6223:6229   */\n      dup1\n        /* \"#utility.yul\":6258:6264   */\n      dup6\n        /* \"#utility.yul\":6252:6265   */\n      mload\n        /* \"#utility.yul\":6289:6295   */\n      dup1\n        /* \"#utility.yul\":6281:6287   */\n      dup4\n        /* \"#utility.yul\":6274:6296   */\n      mstore\n        /* \"#utility.yul\":6315:6317   */\n      0x40\n        /* \"#utility.yul\":6305:6317   */\n      swap3\n      pop\n        /* \"#utility.yul\":6348:6350   */\n      dup3\n        /* \"#utility.yul\":6337:6346   */\n      dup7\n        /* \"#utility.yul\":6333:6351   */\n      add\n        /* \"#utility.yul\":6326:6351   */\n      swap2\n      pop\n        /* \"#utility.yul\":6410:6412   */\n      dup3\n        /* \"#utility.yul\":6400:6406   */\n      dup2\n        /* \"#utility.yul\":6397:6398   */\n      0x05\n        /* \"#utility.yul\":6393:6407   */\n      shl\n        /* \"#utility.yul\":6382:6391   */\n      dup8\n        /* \"#utility.yul\":6378:6408   */\n      add\n        /* \"#utility.yul\":6374:6413   */\n      add\n        /* \"#utility.yul\":6448:6450   */\n      dup5\n        /* \"#utility.yul\":6440:6446   */\n      dup9\n        /* \"#utility.yul\":6436:6451   */\n      add\n        /* \"#utility.yul\":6469:6470   */\n      0x00\n        /* \"#utility.yul\":6479:7986   */\n    tag_194:\n        /* \"#utility.yul\":6493:6499   */\n      dup4\n        /* \"#utility.yul\":6490:6491   */\n      dup2\n        /* \"#utility.yul\":6487:6500   */\n      lt\n        /* \"#utility.yul\":6479:7986   */\n      iszero\n      tag_196\n      jumpi\n        /* \"#utility.yul\":6558:6580   */\n      dup9\n      dup4\n      sub\n      not(0x3f)\n        /* \"#utility.yul\":6554:6590   */\n      add\n        /* \"#utility.yul\":6542:6591   */\n      dup6\n      mstore\n        /* \"#utility.yul\":6614:6627   */\n      dup2\n      mload\n        /* \"#utility.yul\":6688:6697   */\n      dup1\n      mload\n      sub(shl(0xa0, 0x01), 0x01)\n        /* \"#utility.yul\":2379:2433   */\n      and\n        /* \"#utility.yul\":2367:2434   */\n      dup5\n      mstore\n        /* \"#utility.yul\":6650:6656   */\n      0x0120\n        /* \"#utility.yul\":6753:6755   */\n      dup9\n        /* \"#utility.yul\":6749:6751   */\n      dup3\n        /* \"#utility.yul\":6745:6756   */\n      add\n        /* \"#utility.yul\":6739:6757   */\n      mload\n        /* \"#utility.yul\":6794:6796   */\n      dup2\n        /* \"#utility.yul\":6789:6791   */\n      dup11\n        /* \"#utility.yul\":6781:6787   */\n      dup8\n        /* \"#utility.yul\":6777:6792   */\n      add\n        /* \"#utility.yul\":6770:6797   */\n      mstore\n        /* \"#utility.yul\":6824:6872   */\n      tag_198\n        /* \"#utility.yul\":6868:6870   */\n      dup3\n        /* \"#utility.yul\":6860:6866   */\n      dup8\n        /* \"#utility.yul\":6856:6871   */\n      add\n        /* \"#utility.yul\":6842:6854   */\n      dup3\n        /* \"#utility.yul\":6824:6872   */\n      tag_141\n      jump\t// in\n    tag_198:\n        /* \"#utility.yul\":6810:6872   */\n      swap2\n      pop\n      pop\n        /* \"#utility.yul\":6921:6923   */\n      dup8\n        /* \"#utility.yul\":6917:6919   */\n      dup3\n        /* \"#utility.yul\":6913:6924   */\n      add\n        /* \"#utility.yul\":6907:6925   */\n      mload\n        /* \"#utility.yul\":6974:6980   */\n      dup6\n        /* \"#utility.yul\":6966:6972   */\n      dup3\n        /* \"#utility.yul\":6962:6981   */\n      sub\n        /* \"#utility.yul\":6957:6959   */\n      dup10\n        /* \"#utility.yul\":6949:6955   */\n      dup8\n        /* \"#utility.yul\":6945:6960   */\n      add\n        /* \"#utility.yul\":6938:6982   */\n      mstore\n        /* \"#utility.yul\":7009:7050   */\n      tag_199\n        /* \"#utility.yul\":7043:7049   */\n      dup3\n        /* \"#utility.yul\":7027:7041   */\n      dup3\n        /* \"#utility.yul\":7009:7050   */\n      tag_141\n      jump\t// in\n    tag_199:\n        /* \"#utility.yul\":7073:7077   */\n      0x60\n        /* \"#utility.yul\":7120:7131   */\n      dup5\n      dup2\n      add\n        /* \"#utility.yul\":7114:7132   */\n      mload\n        /* \"#utility.yul\":7097:7112   */\n      swap1\n      dup9\n      add\n        /* \"#utility.yul\":7090:7133   */\n      mstore\n        /* \"#utility.yul\":7156:7160   */\n      0x80\n        /* \"#utility.yul\":7203:7214   */\n      dup1\n      dup6\n      add\n        /* \"#utility.yul\":7197:7215   */\n      mload\n        /* \"#utility.yul\":7180:7195   */\n      swap1\n      dup9\n      add\n        /* \"#utility.yul\":7173:7216   */\n      mstore\n        /* \"#utility.yul\":7239:7243   */\n      0xa0\n        /* \"#utility.yul\":7286:7297   */\n      dup1\n      dup6\n      add\n        /* \"#utility.yul\":7280:7298   */\n      mload\n        /* \"#utility.yul\":7263:7278   */\n      swap1\n      dup9\n      add\n        /* \"#utility.yul\":7256:7299   */\n      mstore\n        /* \"#utility.yul\":7322:7326   */\n      0xc0\n        /* \"#utility.yul\":7367:7378   */\n      dup1\n      dup6\n      add\n        /* \"#utility.yul\":7361:7379   */\n      mload\n        /* \"#utility.yul\":7416:7435   */\n      dup9\n      dup4\n      sub\n        /* \"#utility.yul\":7399:7414   */\n      dup3\n      dup11\n      add\n        /* \"#utility.yul\":7392:7436   */\n      mstore\n        /* \"#utility.yul\":6995:7050   */\n      swap2\n      swap4\n      pop\n        /* \"#utility.yul\":7322:7326   */\n      swap2\n      pop\n        /* \"#utility.yul\":7463:7515   */\n      tag_200\n        /* \"#utility.yul\":6995:7050   */\n      dup4\n        /* \"#utility.yul\":7361:7379   */\n      dup3\n        /* \"#utility.yul\":7463:7515   */\n      tag_143\n      jump\t// in\n    tag_200:\n        /* \"#utility.yul\":7449:7515   */\n      swap3\n      pop\n      pop\n      pop\n        /* \"#utility.yul\":7538:7542   */\n      0xe0\n        /* \"#utility.yul\":7591:7593   */\n      dup1\n        /* \"#utility.yul\":7587:7589   */\n      dup4\n        /* \"#utility.yul\":7583:7594   */\n      add\n        /* \"#utility.yul\":7577:7595   */\n      mload\n        /* \"#utility.yul\":7644:7650   */\n      dup7\n        /* \"#utility.yul\":7636:7642   */\n      dup4\n        /* \"#utility.yul\":7632:7651   */\n      sub\n        /* \"#utility.yul\":7627:7629   */\n      dup3\n        /* \"#utility.yul\":7619:7625   */\n      dup9\n        /* \"#utility.yul\":7615:7630   */\n      add\n        /* \"#utility.yul\":7608:7652   */\n      mstore\n        /* \"#utility.yul\":7679:7731   */\n      tag_201\n        /* \"#utility.yul\":7724:7730   */\n      dup4\n        /* \"#utility.yul\":7708:7722   */\n      dup3\n        /* \"#utility.yul\":7679:7731   */\n      tag_144\n      jump\t// in\n    tag_201:\n        /* \"#utility.yul\":7665:7731   */\n      swap3\n      pop\n      pop\n      pop\n        /* \"#utility.yul\":7755:7761   */\n      0x0100\n        /* \"#utility.yul\":7810:7813   */\n      dup1\n        /* \"#utility.yul\":7806:7808   */\n      dup4\n        /* \"#utility.yul\":7802:7814   */\n      add\n        /* \"#utility.yul\":7796:7815   */\n      mload\n        /* \"#utility.yul\":7774:7815   */\n      swap3\n      pop\n        /* \"#utility.yul\":7828:7877   */\n      tag_202\n        /* \"#utility.yul\":7872:7875   */\n      dup2\n        /* \"#utility.yul\":7864:7870   */\n      dup8\n        /* \"#utility.yul\":7860:7876   */\n      add\n        /* \"#utility.yul\":7844:7858   */\n      dup5\n        /* \"#utility.yul\":4149:4162   */\n      iszero\n        /* \"#utility.yul\":4142:4163   */\n      iszero\n        /* \"#utility.yul\":4130:4164   */\n      swap1\n      mstore\n        /* \"#utility.yul\":4079:4170   */\n      jump\n        /* \"#utility.yul\":7828:7877   */\n    tag_202:\n      pop\n        /* \"#utility.yul\":7964:7976   */\n      swap6\n      dup9\n      add\n      swap6\n        /* \"#utility.yul\":7900:7906   */\n      swap4\n      pop\n      pop\n        /* \"#utility.yul\":7929:7944   */\n      swap1\n      dup7\n      add\n      swap1\n        /* \"#utility.yul\":6515:6516   */\n      0x01\n        /* \"#utility.yul\":6508:6517   */\n      add\n        /* \"#utility.yul\":6479:7986   */\n      jump(tag_194)\n    tag_196:\n      pop\n        /* \"#utility.yul\":8003:8009   */\n      swap1\n      swap9\n        /* \"#utility.yul\":5911:8015   */\n      swap8\n      pop\n      pop\n      pop\n      pop\n      pop\n      pop\n      pop\n      pop\n      jump\t// out\n        /* \"#utility.yul\":8433:8813   */\n    tag_70:\n        /* \"#utility.yul\":8512:8513   */\n      0x01\n        /* \"#utility.yul\":8508:8520   */\n      dup2\n      dup2\n      shr\n      swap1\n        /* \"#utility.yul\":8555:8567   */\n      dup3\n      and\n      dup1\n        /* \"#utility.yul\":8576:8637   */\n      tag_205\n      jumpi\n        /* \"#utility.yul\":8630:8634   */\n      0x7f\n        /* \"#utility.yul\":8622:8628   */\n      dup3\n        /* \"#utility.yul\":8618:8635   */\n      and\n        /* \"#utility.yul\":8608:8635   */\n      swap2\n      pop\n        /* \"#utility.yul\":8576:8637   */\n    tag_205:\n        /* \"#utility.yul\":8683:8685   */\n      0x20\n        /* \"#utility.yul\":8675:8681   */\n      dup3\n        /* \"#utility.yul\":8672:8686   */\n      lt\n        /* \"#utility.yul\":8652:8670   */\n      dup2\n        /* \"#utility.yul\":8649:8687   */\n      sub\n        /* \"#utility.yul\":8646:8807   */\n      tag_111\n      jumpi\n        /* \"#utility.yul\":8729:8739   */\n      0x4e487b71\n        /* \"#utility.yul\":8724:8727   */\n      0xe0\n        /* \"#utility.yul\":8720:8740   */\n      shl\n        /* \"#utility.yul\":8717:8718   */\n      0x00\n        /* \"#utility.yul\":8710:8741   */\n      mstore\n        /* \"#utility.yul\":8764:8768   */\n      0x22\n        /* \"#utility.yul\":8761:8762   */\n      0x04\n        /* \"#utility.yul\":8754:8769   */\n      mstore\n        /* \"#utility.yul\":8792:8796   */\n      0x24\n        /* \"#utility.yul\":8789:8790   */\n      0x00\n        /* \"#utility.yul\":8782:8797   */\n      revert\n        /* \"#utility.yul\":8944:9489   */\n    tag_146:\n        /* \"#utility.yul\":9046:9048   */\n      0x1f\n        /* \"#utility.yul\":9041:9044   */\n      dup3\n        /* \"#utility.yul\":9038:9049   */\n      gt\n        /* \"#utility.yul\":9035:9483   */\n      iszero\n      tag_209\n      jumpi\n        /* \"#utility.yul\":9082:9083   */\n      0x00\n        /* \"#utility.yul\":9107:9112   */\n      dup2\n        /* \"#utility.yul\":9103:9105   */\n      dup2\n        /* \"#utility.yul\":9096:9113   */\n      mstore\n        /* \"#utility.yul\":9152:9156   */\n      0x20\n        /* \"#utility.yul\":9148:9150   */\n      dup2\n        /* \"#utility.yul\":9138:9157   */\n      keccak256\n        /* \"#utility.yul\":9222:9224   */\n      0x1f\n        /* \"#utility.yul\":9210:9220   */\n      dup6\n        /* \"#utility.yul\":9206:9225   */\n      add\n        /* \"#utility.yul\":9203:9204   */\n      0x05\n        /* \"#utility.yul\":9199:9226   */\n      shr\n        /* \"#utility.yul\":9193:9197   */\n      dup2\n        /* \"#utility.yul\":9189:9227   */\n      add\n        /* \"#utility.yul\":9258:9262   */\n      0x20\n        /* \"#utility.yul\":9246:9256   */\n      dup7\n        /* \"#utility.yul\":9243:9263   */\n      lt\n        /* \"#utility.yul\":9240:9287   */\n      iszero\n      tag_210\n      jumpi\n      pop\n        /* \"#utility.yul\":9281:9285   */\n      dup1\n        /* \"#utility.yul\":9240:9287   */\n    tag_210:\n        /* \"#utility.yul\":9336:9338   */\n      0x1f\n        /* \"#utility.yul\":9331:9334   */\n      dup6\n        /* \"#utility.yul\":9327:9339   */\n      add\n        /* \"#utility.yul\":9324:9325   */\n      0x05\n        /* \"#utility.yul\":9320:9340   */\n      shr\n        /* \"#utility.yul\":9314:9318   */\n      dup3\n        /* \"#utility.yul\":9310:9341   */\n      add\n        /* \"#utility.yul\":9300:9341   */\n      swap2\n      pop\n        /* \"#utility.yul\":9391:9473   */\n    tag_211:\n        /* \"#utility.yul\":9409:9411   */\n      dup2\n        /* \"#utility.yul\":9402:9407   */\n      dup2\n        /* \"#utility.yul\":9399:9412   */\n      lt\n        /* \"#utility.yul\":9391:9473   */\n      iszero\n      tag_213\n      jumpi\n        /* \"#utility.yul\":9454:9471   */\n      dup3\n      dup2\n      sstore\n        /* \"#utility.yul\":9435:9436   */\n      0x01\n        /* \"#utility.yul\":9424:9437   */\n      add\n        /* \"#utility.yul\":9391:9473   */\n      jump(tag_211)\n    tag_213:\n        /* \"#utility.yul\":9395:9398   */\n      pop\n      pop\n      pop\n        /* \"#utility.yul\":9035:9483   */\n    tag_209:\n        /* \"#utility.yul\":8944:9489   */\n      pop\n      pop\n      pop\n      jump\t// out\n        /* \"#utility.yul\":9665:11017   */\n    tag_58:\n        /* \"#utility.yul\":9791:9794   */\n      dup2\n        /* \"#utility.yul\":9785:9795   */\n      mload\n        /* \"#utility.yul\":9818:9836   */\n      0xffffffffffffffff\n        /* \"#utility.yul\":9810:9816   */\n      dup2\n        /* \"#utility.yul\":9807:9837   */\n      gt\n        /* \"#utility.yul\":9804:9860   */\n      iszero\n      tag_217\n      jumpi\n        /* \"#utility.yul\":9840:9858   */\n      tag_217\n      tag_105\n      jump\t// in\n    tag_217:\n        /* \"#utility.yul\":9869:9966   */\n      tag_218\n        /* \"#utility.yul\":9959:9965   */\n      dup2\n        /* \"#utility.yul\":9919:9957   */\n      tag_219\n        /* \"#utility.yul\":9951:9955   */\n      dup5\n        /* \"#utility.yul\":9945:9956   */\n      sload\n        /* \"#utility.yul\":9919:9957   */\n      tag_70\n      jump\t// in\n    tag_219:\n        /* \"#utility.yul\":9913:9917   */\n      dup5\n        /* \"#utility.yul\":9869:9966   */\n      tag_146\n      jump\t// in\n    tag_218:\n        /* \"#utility.yul\":10021:10025   */\n      0x20\n      dup1\n        /* \"#utility.yul\":10085:10087   */\n      0x1f\n        /* \"#utility.yul\":10074:10088   */\n      dup4\n      gt\n        /* \"#utility.yul\":10102:10103   */\n      0x01\n        /* \"#utility.yul\":10097:10760   */\n      dup2\n      eq\n      tag_221\n      jumpi\n        /* \"#utility.yul\":10804:10805   */\n      0x00\n        /* \"#utility.yul\":10821:10827   */\n      dup5\n        /* \"#utility.yul\":10818:10907   */\n      iszero\n      tag_222\n      jumpi\n      pop\n        /* \"#utility.yul\":10873:10892   */\n      dup6\n      dup4\n      add\n        /* \"#utility.yul\":10867:10893   */\n      mload\n        /* \"#utility.yul\":10818:10907   */\n    tag_222:\n      not(0x00)\n        /* \"#utility.yul\":9622:9623   */\n      0x03\n        /* \"#utility.yul\":9618:9629   */\n      dup7\n      swap1\n      shl\n        /* \"#utility.yul\":9614:9638   */\n      shr\n        /* \"#utility.yul\":9610:9639   */\n      not\n        /* \"#utility.yul\":9600:9640   */\n      and\n        /* \"#utility.yul\":9646:9647   */\n      0x01\n        /* \"#utility.yul\":9642:9653   */\n      dup6\n      swap1\n      shl\n        /* \"#utility.yul\":9597:9654   */\n      or\n        /* \"#utility.yul\":10920:11001   */\n      dup6\n      sstore\n        /* \"#utility.yul\":10067:11011   */\n      jump(tag_213)\n        /* \"#utility.yul\":10097:10760   */\n    tag_221:\n        /* \"#utility.yul\":8891:8892   */\n      0x00\n        /* \"#utility.yul\":8884:8898   */\n      dup6\n      dup2\n      mstore\n        /* \"#utility.yul\":8928:8932   */\n      0x20\n        /* \"#utility.yul\":8915:8933   */\n      dup2\n      keccak256\n      not(0x1f)\n        /* \"#utility.yul\":10133:10153   */\n      dup7\n      and\n      swap2\n        /* \"#utility.yul\":10251:10487   */\n    tag_225:\n        /* \"#utility.yul\":10265:10272   */\n      dup3\n        /* \"#utility.yul\":10262:10263   */\n      dup2\n        /* \"#utility.yul\":10259:10273   */\n      lt\n        /* \"#utility.yul\":10251:10487   */\n      iszero\n      tag_227\n      jumpi\n        /* \"#utility.yul\":10354:10373   */\n      dup9\n      dup7\n      add\n        /* \"#utility.yul\":10348:10374   */\n      mload\n        /* \"#utility.yul\":10333:10375   */\n      dup3\n      sstore\n        /* \"#utility.yul\":10446:10473   */\n      swap5\n      dup5\n      add\n      swap5\n        /* \"#utility.yul\":10414:10415   */\n      0x01\n        /* \"#utility.yul\":10402:10416   */\n      swap1\n      swap2\n      add\n      swap1\n        /* \"#utility.yul\":10281:10300   */\n      dup5\n      add\n        /* \"#utility.yul\":10251:10487   */\n      jump(tag_225)\n    tag_227:\n        /* \"#utility.yul\":10255:10258   */\n      pop\n        /* \"#utility.yul\":10515:10521   */\n      dup6\n        /* \"#utility.yul\":10506:10513   */\n      dup3\n        /* \"#utility.yul\":10503:10522   */\n      lt\n        /* \"#utility.yul\":10500:10701   */\n      iszero\n      tag_228\n      jumpi\n        /* \"#utility.yul\":10576:10595   */\n      dup8\n      dup6\n      add\n        /* \"#utility.yul\":10570:10596   */\n      mload\n      not(0x00)\n        /* \"#utility.yul\":10659:10660   */\n      0x03\n        /* \"#utility.yul\":10655:10669   */\n      dup9\n      swap1\n      shl\n        /* \"#utility.yul\":10671:10674   */\n      0xf8\n        /* \"#utility.yul\":10651:10675   */\n      and\n        /* \"#utility.yul\":10647:10684   */\n      shr\n        /* \"#utility.yul\":10643:10685   */\n      not\n        /* \"#utility.yul\":10628:10686   */\n      and\n        /* \"#utility.yul\":10613:10687   */\n      dup2\n      sstore\n        /* \"#utility.yul\":10500:10701   */\n    tag_228:\n      pop\n      pop\n      pop\n      pop\n      pop\n        /* \"#utility.yul\":10747:10748   */\n      0x01\n        /* \"#utility.yul\":10731:10745   */\n      swap1\n      dup2\n      shl\n        /* \"#utility.yul\":10727:10749   */\n      add\n        /* \"#utility.yul\":10714:10750   */\n      swap1\n      sstore\n      pop\n        /* \"#utility.yul\":9665:11017   */\n      jump\t// out\n        /* \"#utility.yul\":11022:11149   */\n    tag_148:\n        /* \"#utility.yul\":11083:11093   */\n      0x4e487b71\n        /* \"#utility.yul\":11078:11081   */\n      0xe0\n        /* \"#utility.yul\":11074:11094   */\n      shl\n        /* \"#utility.yul\":11071:11072   */\n      0x00\n        /* \"#utility.yul\":11064:11095   */\n      mstore\n        /* \"#utility.yul\":11114:11118   */\n      0x11\n        /* \"#utility.yul\":11111:11112   */\n      0x04\n        /* \"#utility.yul\":11104:11119   */\n      mstore\n        /* \"#utility.yul\":11138:11142   */\n      0x24\n        /* \"#utility.yul\":11135:11136   */\n      0x00\n        /* \"#utility.yul\":11128:11143   */\n      revert\n        /* \"#utility.yul\":11154:11351   */\n    tag_61:\n        /* \"#utility.yul\":11192:11195   */\n      0x00\n        /* \"#utility.yul\":11220:11226   */\n      0xffff\n        /* \"#utility.yul\":11261:11263   */\n      dup1\n        /* \"#utility.yul\":11254:11259   */\n      dup4\n        /* \"#utility.yul\":11250:11264   */\n      and\n        /* \"#utility.yul\":11288:11290   */\n      dup2\n        /* \"#utility.yul\":11279:11286   */\n      dup2\n        /* \"#utility.yul\":11276:11291   */\n      sub\n        /* \"#utility.yul\":11273:11314   */\n      tag_232\n      jumpi\n        /* \"#utility.yul\":11294:11312   */\n      tag_232\n      tag_148\n      jump\t// in\n    tag_232:\n        /* \"#utility.yul\":11343:11344   */\n      0x01\n        /* \"#utility.yul\":11330:11345   */\n      add\n      swap4\n        /* \"#utility.yul\":11154:11351   */\n      swap3\n      pop\n      pop\n      pop\n      jump\t// out\n        /* \"#utility.yul\":11356:11527   */\n    tag_63:\n        /* \"#utility.yul\":11424:11430   */\n      0xffff\n        /* \"#utility.yul\":11463:11473   */\n      dup3\n      dup2\n      and\n        /* \"#utility.yul\":11451:11461   */\n      dup3\n      dup3\n      and\n        /* \"#utility.yul\":11447:11474   */\n      sub\n      swap1\n        /* \"#utility.yul\":11486:11498   */\n      dup1\n      dup3\n      gt\n        /* \"#utility.yul\":11483:11521   */\n      iszero\n      tag_235\n      jumpi\n        /* \"#utility.yul\":11501:11519   */\n      tag_235\n      tag_148\n      jump\t// in\n    tag_235:\n        /* \"#utility.yul\":11483:11521   */\n      pop\n        /* \"#utility.yul\":11356:11527   */\n      swap3\n      swap2\n      pop\n      pop\n      jump\t// out\n        /* \"#utility.yul\":12918:13043   */\n    tag_99:\n        /* \"#utility.yul\":12983:12992   */\n      dup1\n      dup3\n      add\n        /* \"#utility.yul\":13004:13014   */\n      dup1\n      dup3\n      gt\n        /* \"#utility.yul\":13001:13037   */\n      iszero\n      tag_242\n      jumpi\n        /* \"#utility.yul\":13017:13035   */\n      tag_242\n      tag_148\n      jump\t// in\n    tag_242:\n        /* \"#utility.yul\":12918:13043   */\n      swap3\n      swap2\n      pop\n      pop\n      jump\t// out\n        /* \"#utility.yul\":13048:13175   */\n    tag_129:\n        /* \"#utility.yul\":13109:13119   */\n      0x4e487b71\n        /* \"#utility.yul\":13104:13107   */\n      0xe0\n        /* \"#utility.yul\":13100:13120   */\n      shl\n        /* \"#utility.yul\":13097:13098   */\n      0x00\n        /* \"#utility.yul\":13090:13121   */\n      mstore\n        /* \"#utility.yul\":13140:13144   */\n      0x32\n        /* \"#utility.yul\":13137:13138   */\n      0x04\n        /* \"#utility.yul\":13130:13145   */\n      mstore\n        /* \"#utility.yul\":13164:13168   */\n      0x24\n        /* \"#utility.yul\":13161:13162   */\n      0x00\n        /* \"#utility.yul\":13154:13169   */\n      revert\n        /* \"#utility.yul\":13180:13315   */\n    tag_131:\n        /* \"#utility.yul\":13219:13222   */\n      0x00\n        /* \"#utility.yul\":13240:13257   */\n      0x01\n      dup3\n      add\n        /* \"#utility.yul\":13237:13280   */\n      tag_246\n      jumpi\n        /* \"#utility.yul\":13260:13278   */\n      tag_246\n      tag_148\n      jump\t// in\n    tag_246:\n      pop\n        /* \"#utility.yul\":13307:13308   */\n      0x01\n        /* \"#utility.yul\":13296:13309   */\n      add\n      swap1\n        /* \"#utility.yul\":13180:13315   */\n      jump\t// out\n        /* \"#utility.yul\":13320:13448   */\n    tag_138:\n        /* \"#utility.yul\":13387:13396   */\n      dup2\n      dup2\n      sub\n        /* \"#utility.yul\":13408:13419   */\n      dup2\n      dup2\n      gt\n        /* \"#utility.yul\":13405:13442   */\n      iszero\n      tag_242\n      jumpi\n        /* \"#utility.yul\":13422:13440   */\n      tag_242\n      tag_148\n      jump\t// in\n\n    auxdata: 0xa2646970667358221220a530fd5c7807a4137efb702cbdac82a9fb7c1f9eccdf09a7929057a5530a9a1164736f6c63430008110033\n}\n",
    "bytecode": {
      "linkReferences": {},
      "object": "60806040526001805461ffff1916905534801561001b57600080fd5b506111768061002b6000396000f3fe60806040526004361061007b5760003560e01c806342a4fda81161004e57806342a4fda814610142578063557ed1ba14610157578063a6b036331461016a578063e8c587631461018c57600080fd5b8063075843c31461008057806307ca140d146100b35780630fa91fa9146100e1578063141961bc1461010f575b600080fd5b34801561008c57600080fd5b506100a061009b366004610bf9565b6101ac565b6040519081526020015b60405180910390f35b3480156100bf57600080fd5b506001546100ce9061ffff1681565b60405161ffff90911681526020016100aa565b3480156100ed57600080fd5b506101016100fc366004610c8d565b6102f7565b6040516100aa929190610ca6565b34801561011b57600080fd5b5061012f61012a366004610c8d565b6103c6565b6040516100aa9796959493929190610d70565b610155610150366004610c8d565b61051f565b005b34801561016357600080fd5b50426100a0565b34801561017657600080fd5b5061017f610741565b6040516100aa9190610e41565b34801561019857600080fd5b506100a06101a7366004610c8d565b610a7b565b60015461ffff1660009081526020819052604081206004810154421161023f5760405162461bcd60e51b815260206004820152602c60248201527f54686520646561646c696e652073686f756c642062652061206461746520696e60448201527f20746865206675747572652e000000000000000000000000000000000000000060648201526084015b60405180910390fd5b805473ffffffffffffffffffffffffffffffffffffffff19166001600160a01b038816178155600181016102738782610fcc565b50600281016102828682610fcc565b50600381018490556004810183905560006005820181905560088201805460ff19166001908117909155805461ffff16916102bc836110a2565b82546101009290920a61ffff818102199093169183160217909155600180546102e893509091166110c3565b61ffff16979650505050505050565b6000818152602081815260409182902060068101805484518185028101850190955280855260609485949293600701929091849183018282801561036457602002820191906000526020600020905b81546001600160a01b03168152600190910190602001808311610346575b50505050509150808054806020026020016040519081016040528092919081815260200182805480156103b657602002820191906000526020600020905b8154815260200190600101908083116103a2575b5050505050905091509150915091565b600060208190529081526040902080546001820180546001600160a01b0390921692916103f290610f49565b80601f016020809104026020016040519081016040528092919081815260200182805461041e90610f49565b801561046b5780601f106104405761010080835404028352916020019161046b565b820191906000526020600020905b81548152906001019060200180831161044e57829003601f168201915b50505050509080600201805461048090610f49565b80601f01602080910402602001604051908101604052809291908181526020018280546104ac90610f49565b80156104f95780601f106104ce576101008083540402835291602001916104f9565b820191906000526020600020905b8154815290600101906020018083116104dc57829003601f168201915b505050506003830154600484015460058501546008909501549394919390925060ff1687565b6000818152602081905260409020600881015434919060ff1615156001146105895760405162461bcd60e51b815260206004820152601c60248201527f5468652046756e64696e6720506572696f642068617320656e646564000000006044820152606401610236565b806004015442106105e65760405162461bcd60e51b815260206004820152602160248201527f5468652046756e64696e6720446561646c696e652068617320656c61707365646044820152601760f91b6064820152608401610236565b8060030154816005015411156106645760405162461bcd60e51b815260206004820152603060248201527f5468652046756e64696e672054617267657420686173206265656e207265616360448201527f686564206f722065786365656465642e000000000000000000000000000000006064820152608401610236565b6006810180546001808201835560009283526020808420909201805473ffffffffffffffffffffffffffffffffffffffff191633179055600784018054918201815583529082200183905581546040516001600160a01b039091169084908381818185875af1925050503d80600081146106fa576040519150601f19603f3d011682016040523d82523d6000602084013e6106ff565b606091505b50509050801561071f5782826005015461071991906110e5565b60058301555b816003015482600501541061073b5760088201805460ff191690555b50505050565b60015460609060009061ffff1667ffffffffffffffff81111561076657610766610b56565b6040519080825280602002602001820160405280156107f157816020015b6107de60405180610120016040528060006001600160a01b03168152602001606081526020016060815260200160008152602001600081526020016000815260200160608152602001606081526020016000151581525090565b8152602001906001900390816107845790505b50905060005b60015461ffff16811015610a7557600081815260208181526040918290208251610120810190935280546001600160a01b031683526001810180549193928492908401919061084590610f49565b80601f016020809104026020016040519081016040528092919081815260200182805461087190610f49565b80156108be5780601f10610893576101008083540402835291602001916108be565b820191906000526020600020905b8154815290600101906020018083116108a157829003601f168201915b505050505081526020016002820180546108d790610f49565b80601f016020809104026020016040519081016040528092919081815260200182805461090390610f49565b80156109505780601f1061092557610100808354040283529160200191610950565b820191906000526020600020905b81548152906001019060200180831161093357829003601f168201915b50505050508152602001600382015481526020016004820154815260200160058201548152602001600682018054806020026020016040519081016040528092919081815260200182805480156109d057602002820191906000526020600020905b81546001600160a01b031681526001909101906020018083116109b2575b5050505050815260200160078201805480602002602001604051908101604052809291908181526020018280548015610a2857602002820191906000526020600020905b815481526020019060010190808311610a14575b50505091835250506008919091015460ff1615156020909101528351849084908110610a5657610a566110fe565b6020026020010181905250508080610a6d90611114565b9150506107f7565b50919050565b6000818152602081905260408120600881015460ff161515600114610ae25760405162461bcd60e51b815260206004820152601c60248201527f5468652046756e64696e6720506572696f642068617320656e646564000000006044820152606401610236565b80600401544210610b3f5760405162461bcd60e51b815260206004820152602160248201527f5468652046756e64696e6720446561646c696e652068617320656c61707365646044820152601760f91b6064820152608401610236565b428160040154610b4f919061112d565b9392505050565b634e487b7160e01b600052604160045260246000fd5b600082601f830112610b7d57600080fd5b813567ffffffffffffffff80821115610b9857610b98610b56565b604051601f8301601f19908116603f01168101908282118183101715610bc057610bc0610b56565b81604052838152866020858801011115610bd957600080fd5b836020870160208301376000602085830101528094505050505092915050565b600080600080600060a08688031215610c1157600080fd5b85356001600160a01b0381168114610c2857600080fd5b9450602086013567ffffffffffffffff80821115610c4557600080fd5b610c5189838a01610b6c565b95506040880135915080821115610c6757600080fd5b50610c7488828901610b6c565b9598949750949560608101359550608001359392505050565b600060208284031215610c9f57600080fd5b5035919050565b604080825283519082018190526000906020906060840190828701845b82811015610ce85781516001600160a01b031684529284019290840190600101610cc3565b5050508381038285015284518082528583019183019060005b81811015610d1d57835183529284019291840191600101610d01565b5090979650505050505050565b6000815180845260005b81811015610d5057602081850181015186830182015201610d34565b506000602082860101526020601f19601f83011685010191505092915050565b6001600160a01b038816815260e060208201526000610d9260e0830189610d2a565b8281036040840152610da48189610d2a565b9150508560608301528460808301528360a083015282151560c083015298975050505050505050565b600081518084526020808501945080840160005b83811015610e065781516001600160a01b031687529582019590820190600101610de1565b509495945050505050565b600081518084526020808501945080840160005b83811015610e0657815187529582019590820190600101610e25565b60006020808301818452808551808352604092508286019150828160051b87010184880160005b83811015610f3b57888303603f19018552815180516001600160a01b0316845261012088820151818a870152610ea082870182610d2a565b9150508782015185820389870152610eb88282610d2a565b606084810151908801526080808501519088015260a0808501519088015260c080850151888303828a01529193509150610ef28382610dcd565b9250505060e08083015186830382880152610f0d8382610e11565b92505050610100808301519250610f278187018415159052565b509588019593505090860190600101610e68565b509098975050505050505050565b600181811c90821680610f5d57607f821691505b602082108103610a7557634e487b7160e01b600052602260045260246000fd5b601f821115610fc757600081815260208120601f850160051c81016020861015610fa45750805b601f850160051c820191505b81811015610fc357828155600101610fb0565b5050505b505050565b815167ffffffffffffffff811115610fe657610fe6610b56565b610ffa81610ff48454610f49565b84610f7d565b602080601f83116001811461102f57600084156110175750858301515b600019600386901b1c1916600185901b178555610fc3565b600085815260208120601f198616915b8281101561105e5788860151825594840194600190910190840161103f565b508582101561107c5787850151600019600388901b60f8161c191681555b5050505050600190811b01905550565b634e487b7160e01b600052601160045260246000fd5b600061ffff8083168181036110b9576110b961108c565b6001019392505050565b61ffff8281168282160390808211156110de576110de61108c565b5092915050565b808201808211156110f8576110f861108c565b92915050565b634e487b7160e01b600052603260045260246000fd5b6000600182016111265761112661108c565b5060010190565b818103818111156110f8576110f861108c56fea2646970667358221220a530fd5c7807a4137efb702cbdac82a9fb7c1f9eccdf09a7929057a5530a9a1164736f6c63430008110033",
      "opcodes": "PUSH1 0x80 PUSH1 0x40 MSTORE PUSH1 0x1 DUP1 SLOAD PUSH2 0xFFFF NOT AND SWAP1 SSTORE CALLVALUE DUP1 ISZERO PUSH2 0x1B JUMPI PUSH1 0x0 DUP1 REVERT JUMPDEST POP PUSH2 0x1176 DUP1 PUSH2 0x2B PUSH1 0x0 CODECOPY PUSH1 0x0 RETURN INVALID PUSH1 0x80 PUSH1 0x40 MSTORE PUSH1 0x4 CALLDATASIZE LT PUSH2 0x7B JUMPI PUSH1 0x0 CALLDATALOAD PUSH1 0xE0 SHR DUP1 PUSH4 0x42A4FDA8 GT PUSH2 0x4E JUMPI DUP1 PUSH4 0x42A4FDA8 EQ PUSH2 0x142 JUMPI DUP1 PUSH4 0x557ED1BA EQ PUSH2 0x157 JUMPI DUP1 PUSH4 0xA6B03633 EQ PUSH2 0x16A JUMPI DUP1 PUSH4 0xE8C58763 EQ PUSH2 0x18C JUMPI PUSH1 0x0 DUP1 REVERT JUMPDEST DUP1 PUSH4 0x75843C3 EQ PUSH2 0x80 JUMPI DUP1 PUSH4 0x7CA140D EQ PUSH2 0xB3 JUMPI DUP1 PUSH4 0xFA91FA9 EQ PUSH2 0xE1 JUMPI DUP1 PUSH4 0x141961BC EQ PUSH2 0x10F JUMPI JUMPDEST PUSH1 0x0 DUP1 REVERT JUMPDEST CALLVALUE DUP1 ISZERO PUSH2 0x8C JUMPI PUSH1 0x0 DUP1 REVERT JUMPDEST POP PUSH2 0xA0 PUSH2 0x9B CALLDATASIZE PUSH1 0x4 PUSH2 0xBF9 JUMP JUMPDEST PUSH2 0x1AC JUMP JUMPDEST PUSH1 0x40 MLOAD SWAP1 DUP2 MSTORE PUSH1 0x20 ADD JUMPDEST PUSH1 0x40 MLOAD DUP1 SWAP2 SUB SWAP1 RETURN JUMPDEST CALLVALUE DUP1 ISZERO PUSH2 0xBF JUMPI PUSH1 0x0 DUP1 REVERT JUMPDEST POP PUSH1 0x1 SLOAD PUSH2 0xCE SWAP1 PUSH2 0xFFFF AND DUP2 JUMP JUMPDEST PUSH1 0x40 MLOAD PUSH2 0xFFFF SWAP1 SWAP2 AND DUP2 MSTORE PUSH1 0x20 ADD PUSH2 0xAA JUMP JUMPDEST CALLVALUE DUP1 ISZERO PUSH2 0xED JUMPI PUSH1 0x0 DUP1 REVERT JUMPDEST POP PUSH2 0x101 PUSH2 0xFC CALLDATASIZE PUSH1 0x4 PUSH2 0xC8D JUMP JUMPDEST PUSH2 0x2F7 JUMP JUMPDEST PUSH1 0x40 MLOAD PUSH2 0xAA SWAP3 SWAP2 SWAP1 PUSH2 0xCA6 JUMP JUMPDEST CALLVALUE DUP1 ISZERO PUSH2 0x11B JUMPI PUSH1 0x0 DUP1 REVERT JUMPDEST POP PUSH2 0x12F PUSH2 0x12A CALLDATASIZE PUSH1 0x4 PUSH2 0xC8D JUMP JUMPDEST PUSH2 0x3C6 JUMP JUMPDEST PUSH1 0x40 MLOAD PUSH2 0xAA SWAP8 SWAP7 SWAP6 SWAP5 SWAP4 SWAP3 SWAP2 SWAP1 PUSH2 0xD70 JUMP JUMPDEST PUSH2 0x155 PUSH2 0x150 CALLDATASIZE PUSH1 0x4 PUSH2 0xC8D JUMP JUMPDEST PUSH2 0x51F JUMP JUMPDEST STOP JUMPDEST CALLVALUE DUP1 ISZERO PUSH2 0x163 JUMPI PUSH1 0x0 DUP1 REVERT JUMPDEST POP TIMESTAMP PUSH2 0xA0 JUMP JUMPDEST CALLVALUE DUP1 ISZERO PUSH2 0x176 JUMPI PUSH1 0x0 DUP1 REVERT JUMPDEST POP PUSH2 0x17F PUSH2 0x741 JUMP JUMPDEST PUSH1 0x40 MLOAD PUSH2 0xAA SWAP2 SWAP1 PUSH2 0xE41 JUMP JUMPDEST CALLVALUE DUP1 ISZERO PUSH2 0x198 JUMPI PUSH1 0x0 DUP1 REVERT JUMPDEST POP PUSH2 0xA0 PUSH2 0x1A7 CALLDATASIZE PUSH1 0x4 PUSH2 0xC8D JUMP JUMPDEST PUSH2 0xA7B JUMP JUMPDEST PUSH1 0x1 SLOAD PUSH2 0xFFFF AND PUSH1 0x0 SWAP1 DUP2 MSTORE PUSH1 0x20 DUP2 SWAP1 MSTORE PUSH1 0x40 DUP2 KECCAK256 PUSH1 0x4 DUP2 ADD SLOAD TIMESTAMP GT PUSH2 0x23F JUMPI PUSH1 0x40 MLOAD PUSH3 0x461BCD PUSH1 0xE5 SHL DUP2 MSTORE PUSH1 0x20 PUSH1 0x4 DUP3 ADD MSTORE PUSH1 0x2C PUSH1 0x24 DUP3 ADD MSTORE PUSH32 0x54686520646561646C696E652073686F756C642062652061206461746520696E PUSH1 0x44 DUP3 ADD MSTORE PUSH32 0x20746865206675747572652E0000000000000000000000000000000000000000 PUSH1 0x64 DUP3 ADD MSTORE PUSH1 0x84 ADD JUMPDEST PUSH1 0x40 MLOAD DUP1 SWAP2 SUB SWAP1 REVERT JUMPDEST DUP1 SLOAD PUSH20 0xFFFFFFFFFFFFFFFFFFFFFFFFFFFFFFFFFFFFFFFF NOT AND PUSH1 0x1 PUSH1 0x1 PUSH1 0xA0 SHL SUB DUP9 AND OR DUP2 SSTORE PUSH1 0x1 DUP2 ADD PUSH2 0x273 DUP8 DUP3 PUSH2 0xFCC JUMP JUMPDEST POP PUSH1 0x2 DUP2 ADD PUSH2 0x282 DUP7 DUP3 PUSH2 0xFCC JUMP JUMPDEST POP PUSH1 0x3 DUP2 ADD DUP5 SWAP1 SSTORE PUSH1 0x4 DUP2 ADD DUP4 SWAP1 SSTORE PUSH1 0x0 PUSH1 0x5 DUP3 ADD DUP2 SWAP1 SSTORE PUSH1 0x8 DUP3 ADD DUP1 SLOAD PUSH1 0xFF NOT AND PUSH1 0x1 SWAP1 DUP2 OR SWAP1 SWAP2 SSTORE DUP1 SLOAD PUSH2 0xFFFF AND SWAP2 PUSH2 0x2BC DUP4 PUSH2 0x10A2 JUMP JUMPDEST DUP3 SLOAD PUSH2 0x100 SWAP3 SWAP1 SWAP3 EXP PUSH2 0xFFFF DUP2 DUP2 MUL NOT SWAP1 SWAP4 AND SWAP2 DUP4 AND MUL OR SWAP1 SWAP2 SSTORE PUSH1 0x1 DUP1 SLOAD PUSH2 0x2E8 SWAP4 POP SWAP1 SWAP2 AND PUSH2 0x10C3 JUMP JUMPDEST PUSH2 0xFFFF AND SWAP8 SWAP7 POP POP POP POP POP POP POP JUMP JUMPDEST PUSH1 0x0 DUP2 DUP2 MSTORE PUSH1 0x20 DUP2 DUP2 MSTORE PUSH1 0x40 SWAP2 DUP3 SWAP1 KECCAK256 PUSH1 0x6 DUP2 ADD DUP1 SLOAD DUP5 MLOAD DUP2 DUP6 MUL DUP2 ADD DUP6 ADD SWAP1 SWAP6 MSTORE DUP1 DUP6 MSTORE PUSH1 0x60 SWAP5 DUP6 SWAP5 SWAP3 SWAP4 PUSH1 0x7 ADD SWAP3 SWAP1 SWAP2 DUP5 SWAP2 DUP4 ADD DUP3 DUP3 DUP1 ISZERO PUSH2 0x364 JUMPI PUSH1 0x20 MUL DUP3 ADD SWAP2 SWAP1 PUSH1 0x0 MSTORE PUSH1 0x20 PUSH1 0x0 KECCAK256 SWAP1 JUMPDEST DUP2 SLOAD PUSH1 0x1 PUSH1 0x1 PUSH1 0xA0 SHL SUB AND DUP2 MSTORE PUSH1 0x1 SWAP1 SWAP2 ADD SWAP1 PUSH1 0x20 ADD DUP1 DUP4 GT PUSH2 0x346 JUMPI JUMPDEST POP POP POP POP POP SWAP2 POP DUP1 DUP1 SLOAD DUP1 PUSH1 0x20 MUL PUSH1 0x20 ADD PUSH1 0x40 MLOAD SWAP1 DUP2 ADD PUSH1 0x40 MSTORE DUP1 SWAP3 SWAP2 SWAP1 DUP2 DUP2 MSTORE PUSH1 0x20 ADD DUP3 DUP1 SLOAD DUP1 ISZERO PUSH2 0x3B6 JUMPI PUSH1 0x20 MUL DUP3 ADD SWAP2 SWAP1 PUSH1 0x0 MSTORE PUSH1 0x20 PUSH1 0x0 KECCAK256 SWAP1 JUMPDEST DUP2 SLOAD DUP2 MSTORE PUSH1 0x20 ADD SWAP1 PUSH1 0x1 ADD SWAP1 DUP1 DUP4 GT PUSH2 0x3A2 JUMPI JUMPDEST POP POP POP POP POP SWAP1 POP SWAP2 POP SWAP2 POP SWAP2 POP SWAP2 JUMP JUMPDEST PUSH1 0x0 PUSH1 0x20 DUP2 SWAP1 MSTORE SWAP1 DUP2 MSTORE PUSH1 0x40 SWAP1 KECCAK256 DUP1 SLOAD PUSH1 0x1 DUP3 ADD DUP1 SLOAD PUSH1 0x1 PUSH1 0x1 PUSH1 0xA0 SHL SUB SWAP1 SWAP3 AND SWAP3 SWAP2 PUSH2 0x3F2 SWAP1 PUSH2 0xF49 JUMP JUMPDEST DUP1 PUSH1 0x1F ADD PUSH1 0x20 DUP1 SWAP2 DIV MUL PUSH1 0x20 ADD PUSH1 0x40 MLOAD SWAP1 DUP2 ADD PUSH1 0x40 MSTORE DUP1 SWAP3 SWAP2 SWAP1 DUP2 DUP2 MSTORE PUSH1 0x20 ADD DUP3 DUP1 SLOAD PUSH2 0x41E SWAP1 PUSH2 0xF49 JUMP JUMPDEST DUP1 ISZERO PUSH2 0x46B JUMPI DUP1 PUSH1 0x1F LT PUSH2 0x440 JUMPI PUSH2 0x100 DUP1 DUP4 SLOAD DIV MUL DUP4 MSTORE SWAP2 PUSH1 0x20 ADD SWAP2 PUSH2 0x46B JUMP JUMPDEST DUP3 ADD SWAP2 SWAP1 PUSH1 0x0 MSTORE PUSH1 0x20 PUSH1 0x0 KECCAK256 SWAP1 JUMPDEST DUP2 SLOAD DUP2 MSTORE SWAP1 PUSH1 0x1 ADD SWAP1 PUSH1 0x20 ADD DUP1 DUP4 GT PUSH2 0x44E JUMPI DUP3 SWAP1 SUB PUSH1 0x1F AND DUP3 ADD SWAP2 JUMPDEST POP POP POP POP POP SWAP1 DUP1 PUSH1 0x2 ADD DUP1 SLOAD PUSH2 0x480 SWAP1 PUSH2 0xF49 JUMP JUMPDEST DUP1 PUSH1 0x1F ADD PUSH1 0x20 DUP1 SWAP2 DIV MUL PUSH1 0x20 ADD PUSH1 0x40 MLOAD SWAP1 DUP2 ADD PUSH1 0x40 MSTORE DUP1 SWAP3 SWAP2 SWAP1 DUP2 DUP2 MSTORE PUSH1 0x20 ADD DUP3 DUP1 SLOAD PUSH2 0x4AC SWAP1 PUSH2 0xF49 JUMP JUMPDEST DUP1 ISZERO PUSH2 0x4F9 JUMPI DUP1 PUSH1 0x1F LT PUSH2 0x4CE JUMPI PUSH2 0x100 DUP1 DUP4 SLOAD DIV MUL DUP4 MSTORE SWAP2 PUSH1 0x20 ADD SWAP2 PUSH2 0x4F9 JUMP JUMPDEST DUP3 ADD SWAP2 SWAP1 PUSH1 0x0 MSTORE PUSH1 0x20 PUSH1 0x0 KECCAK256 SWAP1 JUMPDEST DUP2 SLOAD DUP2 MSTORE SWAP1 PUSH1 0x1 ADD SWAP1 PUSH1 0x20 ADD DUP1 DUP4 GT PUSH2 0x4DC JUMPI DUP3 SWAP1 SUB PUSH1 0x1F AND DUP3 ADD SWAP2 JUMPDEST POP POP POP POP PUSH1 0x3 DUP4 ADD SLOAD PUSH1 0x4 DUP5 ADD SLOAD PUSH1 0x5 DUP6 ADD SLOAD PUSH1 0x8 SWAP1 SWAP6 ADD SLOAD SWAP4 SWAP5 SWAP2 SWAP4 SWAP1 SWAP3 POP PUSH1 0xFF AND DUP8 JUMP JUMPDEST PUSH1 0x0 DUP2 DUP2 MSTORE PUSH1 0x20 DUP2 SWAP1 MSTORE PUSH1 0x40 SWAP1 KECCAK256 PUSH1 0x8 DUP2 ADD SLOAD CALLVALUE SWAP2 SWAP1 PUSH1 0xFF AND ISZERO ISZERO PUSH1 0x1 EQ PUSH2 0x589 JUMPI PUSH1 0x40 MLOAD PUSH3 0x461BCD PUSH1 0xE5 SHL DUP2 MSTORE PUSH1 0x20 PUSH1 0x4 DUP3 ADD MSTORE PUSH1 0x1C PUSH1 0x24 DUP3 ADD MSTORE PUSH32 0x5468652046756E64696E6720506572696F642068617320656E64656400000000 PUSH1 0x44 DUP3 ADD MSTORE PUSH1 0x64 ADD PUSH2 0x236 JUMP JUMPDEST DUP1 PUSH1 0x4 ADD SLOAD TIMESTAMP LT PUSH2 0x5E6 JUMPI PUSH1 0x40 MLOAD PUSH3 0x461BCD PUSH1 0xE5 SHL DUP2 MSTORE PUSH1 0x20 PUSH1 0x4 DUP3 ADD MSTORE PUSH1 0x21 PUSH1 0x24 DUP3 ADD MSTORE PUSH32 0x5468652046756E64696E6720446561646C696E652068617320656C6170736564 PUSH1 0x44 DUP3 ADD MSTORE PUSH1 0x17 PUSH1 0xF9 SHL PUSH1 0x64 DUP3 ADD MSTORE PUSH1 0x84 ADD PUSH2 0x236 JUMP JUMPDEST DUP1 PUSH1 0x3 ADD SLOAD DUP2 PUSH1 0x5 ADD SLOAD GT ISZERO PUSH2 0x664 JUMPI PUSH1 0x40 MLOAD PUSH3 0x461BCD PUSH1 0xE5 SHL DUP2 MSTORE PUSH1 0x20 PUSH1 0x4 DUP3 ADD MSTORE PUSH1 0x30 PUSH1 0x24 DUP3 ADD MSTORE PUSH32 0x5468652046756E64696E672054617267657420686173206265656E2072656163 PUSH1 0x44 DUP3 ADD MSTORE PUSH32 0x686564206F722065786365656465642E00000000000000000000000000000000 PUSH1 0x64 DUP3 ADD MSTORE PUSH1 0x84 ADD PUSH2 0x236 JUMP JUMPDEST PUSH1 0x6 DUP2 ADD DUP1 SLOAD PUSH1 0x1 DUP1 DUP3 ADD DUP4 SSTORE PUSH1 0x0 SWAP3 DUP4 MSTORE PUSH1 0x20 DUP1 DUP5 KECCAK256 SWAP1 SWAP3 ADD DUP1 SLOAD PUSH20 0xFFFFFFFFFFFFFFFFFFFFFFFFFFFFFFFFFFFFFFFF NOT AND CALLER OR SWAP1 SSTORE PUSH1 0x7 DUP5 ADD DUP1 SLOAD SWAP2 DUP3 ADD DUP2 SSTORE DUP4 MSTORE SWAP1 DUP3 KECCAK256 ADD DUP4 SWAP1 SSTORE DUP2 SLOAD PUSH1 0x40 MLOAD PUSH1 0x1 PUSH1 0x1 PUSH1 0xA0 SHL SUB SWAP1 SWAP2 AND SWAP1 DUP5 SWAP1 DUP4 DUP2 DUP2 DUP2 DUP6 DUP8 GAS CALL SWAP3 POP POP POP RETURNDATASIZE DUP1 PUSH1 0x0 DUP2 EQ PUSH2 0x6FA JUMPI PUSH1 0x40 MLOAD SWAP2 POP PUSH1 0x1F NOT PUSH1 0x3F RETURNDATASIZE ADD AND DUP3 ADD PUSH1 0x40 MSTORE RETURNDATASIZE DUP3 MSTORE RETURNDATASIZE PUSH1 0x0 PUSH1 0x20 DUP5 ADD RETURNDATACOPY PUSH2 0x6FF JUMP JUMPDEST PUSH1 0x60 SWAP2 POP JUMPDEST POP POP SWAP1 POP DUP1 ISZERO PUSH2 0x71F JUMPI DUP3 DUP3 PUSH1 0x5 ADD SLOAD PUSH2 0x719 SWAP2 SWAP1 PUSH2 0x10E5 JUMP JUMPDEST PUSH1 0x5 DUP4 ADD SSTORE JUMPDEST DUP2 PUSH1 0x3 ADD SLOAD DUP3 PUSH1 0x5 ADD SLOAD LT PUSH2 0x73B JUMPI PUSH1 0x8 DUP3 ADD DUP1 SLOAD PUSH1 0xFF NOT AND SWAP1 SSTORE JUMPDEST POP POP POP POP JUMP JUMPDEST PUSH1 0x1 SLOAD PUSH1 0x60 SWAP1 PUSH1 0x0 SWAP1 PUSH2 0xFFFF AND PUSH8 0xFFFFFFFFFFFFFFFF DUP2 GT ISZERO PUSH2 0x766 JUMPI PUSH2 0x766 PUSH2 0xB56 JUMP JUMPDEST PUSH1 0x40 MLOAD SWAP1 DUP1 DUP3 MSTORE DUP1 PUSH1 0x20 MUL PUSH1 0x20 ADD DUP3 ADD PUSH1 0x40 MSTORE DUP1 ISZERO PUSH2 0x7F1 JUMPI DUP2 PUSH1 0x20 ADD JUMPDEST PUSH2 0x7DE PUSH1 0x40 MLOAD DUP1 PUSH2 0x120 ADD PUSH1 0x40 MSTORE DUP1 PUSH1 0x0 PUSH1 0x1 PUSH1 0x1 PUSH1 0xA0 SHL SUB AND DUP2 MSTORE PUSH1 0x20 ADD PUSH1 0x60 DUP2 MSTORE PUSH1 0x20 ADD PUSH1 0x60 DUP2 MSTORE PUSH1 0x20 ADD PUSH1 0x0 DUP2 MSTORE PUSH1 0x20 ADD PUSH1 0x0 DUP2 MSTORE PUSH1 0x20 ADD PUSH1 0x0 DUP2 MSTORE PUSH1 0x20 ADD PUSH1 0x60 DUP2 MSTORE PUSH1 0x20 ADD PUSH1 0x60 DUP2 MSTORE PUSH1 0x20 ADD PUSH1 0x0 ISZERO ISZERO DUP2 MSTORE POP SWAP1 JUMP JUMPDEST DUP2 MSTORE PUSH1 0x20 ADD SWAP1 PUSH1 0x1 SWAP1 SUB SWAP1 DUP2 PUSH2 0x784 JUMPI SWAP1 POP JUMPDEST POP SWAP1 POP PUSH1 0x0 JUMPDEST PUSH1 0x1 SLOAD PUSH2 0xFFFF AND DUP2 LT ISZERO PUSH2 0xA75 JUMPI PUSH1 0x0 DUP2 DUP2 MSTORE PUSH1 0x20 DUP2 DUP2 MSTORE PUSH1 0x40 SWAP2 DUP3 SWAP1 KECCAK256 DUP3 MLOAD PUSH2 0x120 DUP2 ADD SWAP1 SWAP4 MSTORE DUP1 SLOAD PUSH1 0x1 PUSH1 0x1 PUSH1 0xA0 SHL SUB AND DUP4 MSTORE PUSH1 0x1 DUP2 ADD DUP1 SLOAD SWAP2 SWAP4 SWAP3 DUP5 SWAP3 SWAP1 DUP5 ADD SWAP2 SWAP1 PUSH2 0x845 SWAP1 PUSH2 0xF49 JUMP JUMPDEST DUP1 PUSH1 0x1F ADD PUSH1 0x20 DUP1 SWAP2 DIV MUL PUSH1 0x20 ADD PUSH1 0x40 MLOAD SWAP1 DUP2 ADD PUSH1 0x40 MSTORE DUP1 SWAP3 SWAP2 SWAP1 DUP2 DUP2 MSTORE PUSH1 0x20 ADD DUP3 DUP1 SLOAD PUSH2 0x871 SWAP1 PUSH2 0xF49 JUMP JUMPDEST DUP1 ISZERO PUSH2 0x8BE JUMPI DUP1 PUSH1 0x1F LT PUSH2 0x893 JUMPI PUSH2 0x100 DUP1 DUP4 SLOAD DIV MUL DUP4 MSTORE SWAP2 PUSH1 0x20 ADD SWAP2 PUSH2 0x8BE JUMP JUMPDEST DUP3 ADD SWAP2 SWAP1 PUSH1 0x0 MSTORE PUSH1 0x20 PUSH1 0x0 KECCAK256 SWAP1 JUMPDEST DUP2 SLOAD DUP2 MSTORE SWAP1 PUSH1 0x1 ADD SWAP1 PUSH1 0x20 ADD DUP1 DUP4 GT PUSH2 0x8A1 JUMPI DUP3 SWAP1 SUB PUSH1 0x1F AND DUP3 ADD SWAP2 JUMPDEST POP POP POP POP POP DUP2 MSTORE PUSH1 0x20 ADD PUSH1 0x2 DUP3 ADD DUP1 SLOAD PUSH2 0x8D7 SWAP1 PUSH2 0xF49 JUMP JUMPDEST DUP1 PUSH1 0x1F ADD PUSH1 0x20 DUP1 SWAP2 DIV MUL PUSH1 0x20 ADD PUSH1 0x40 MLOAD SWAP1 DUP2 ADD PUSH1 0x40 MSTORE DUP1 SWAP3 SWAP2 SWAP1 DUP2 DUP2 MSTORE PUSH1 0x20 ADD DUP3 DUP1 SLOAD PUSH2 0x903 SWAP1 PUSH2 0xF49 JUMP JUMPDEST DUP1 ISZERO PUSH2 0x950 JUMPI DUP1 PUSH1 0x1F LT PUSH2 0x925 JUMPI PUSH2 0x100 DUP1 DUP4 SLOAD DIV MUL DUP4 MSTORE SWAP2 PUSH1 0x20 ADD SWAP2 PUSH2 0x950 JUMP JUMPDEST DUP3 ADD SWAP2 SWAP1 PUSH1 0x0 MSTORE PUSH1 0x20 PUSH1 0x0 KECCAK256 SWAP1 JUMPDEST DUP2 SLOAD DUP2 MSTORE SWAP1 PUSH1 0x1 ADD SWAP1 PUSH1 0x20 ADD DUP1 DUP4 GT PUSH2 0x933 JUMPI DUP3 SWAP1 SUB PUSH1 0x1F AND DUP3 ADD SWAP2 JUMPDEST POP POP POP POP POP DUP2 MSTORE PUSH1 0x20 ADD PUSH1 0x3 DUP3 ADD SLOAD DUP2 MSTORE PUSH1 0x20 ADD PUSH1 0x4 DUP3 ADD SLOAD DUP2 MSTORE PUSH1 0x20 ADD PUSH1 0x5 DUP3 ADD SLOAD DUP2 MSTORE PUSH1 0x20 ADD PUSH1 0x6 DUP3 ADD DUP1 SLOAD DUP1 PUSH1 0x20 MUL PUSH1 0x20 ADD PUSH1 0x40 MLOAD SWAP1 DUP2 ADD PUSH1 0x40 MSTORE DUP1 SWAP3 SWAP2 SWAP1 DUP2 DUP2 MSTORE PUSH1 0x20 ADD DUP3 DUP1 SLOAD DUP1 ISZERO PUSH2 0x9D0 JUMPI PUSH1 0x20 MUL DUP3 ADD SWAP2 SWAP1 PUSH1 0x0 MSTORE PUSH1 0x20 PUSH1 0x0 KECCAK256 SWAP1 JUMPDEST DUP2 SLOAD PUSH1 0x1 PUSH1 0x1 PUSH1 0xA0 SHL SUB AND DUP2 MSTORE PUSH1 0x1 SWAP1 SWAP2 ADD SWAP1 PUSH1 0x20 ADD DUP1 DUP4 GT PUSH2 0x9B2 JUMPI JUMPDEST POP POP POP POP POP DUP2 MSTORE PUSH1 0x20 ADD PUSH1 0x7 DUP3 ADD DUP1 SLOAD DUP1 PUSH1 0x20 MUL PUSH1 0x20 ADD PUSH1 0x40 MLOAD SWAP1 DUP2 ADD PUSH1 0x40 MSTORE DUP1 SWAP3 SWAP2 SWAP1 DUP2 DUP2 MSTORE PUSH1 0x20 ADD DUP3 DUP1 SLOAD DUP1 ISZERO PUSH2 0xA28 JUMPI PUSH1 0x20 MUL DUP3 ADD SWAP2 SWAP1 PUSH1 0x0 MSTORE PUSH1 0x20 PUSH1 0x0 KECCAK256 SWAP1 JUMPDEST DUP2 SLOAD DUP2 MSTORE PUSH1 0x20 ADD SWAP1 PUSH1 0x1 ADD SWAP1 DUP1 DUP4 GT PUSH2 0xA14 JUMPI JUMPDEST POP POP POP SWAP2 DUP4 MSTORE POP POP PUSH1 0x8 SWAP2 SWAP1 SWAP2 ADD SLOAD PUSH1 0xFF AND ISZERO ISZERO PUSH1 0x20 SWAP1 SWAP2 ADD MSTORE DUP4 MLOAD DUP5 SWAP1 DUP5 SWAP1 DUP2 LT PUSH2 0xA56 JUMPI PUSH2 0xA56 PUSH2 0x10FE JUMP JUMPDEST PUSH1 0x20 MUL PUSH1 0x20 ADD ADD DUP2 SWAP1 MSTORE POP POP DUP1 DUP1 PUSH2 0xA6D SWAP1 PUSH2 0x1114 JUMP JUMPDEST SWAP2 POP POP PUSH2 0x7F7 JUMP JUMPDEST POP SWAP2 SWAP1 POP JUMP JUMPDEST PUSH1 0x0 DUP2 DUP2 MSTORE PUSH1 0x20 DUP2 SWAP1 MSTORE PUSH1 0x40 DUP2 KECCAK256 PUSH1 0x8 DUP2 ADD SLOAD PUSH1 0xFF AND ISZERO ISZERO PUSH1 0x1 EQ PUSH2 0xAE2 JUMPI PUSH1 0x40 MLOAD PUSH3 0x461BCD PUSH1 0xE5 SHL DUP2 MSTORE PUSH1 0x20 PUSH1 0x4 DUP3 ADD MSTORE PUSH1 0x1C PUSH1 0x24 DUP3 ADD MSTORE PUSH32 0x5468652046756E64696E6720506572696F642068617320656E64656400000000 PUSH1 0x44 DUP3 ADD MSTORE PUSH1 0x64 ADD PUSH2 0x236 JUMP JUMPDEST DUP1 PUSH1 0x4 ADD SLOAD TIMESTAMP LT PUSH2 0xB3F JUMPI PUSH1 0x40 MLOAD PUSH3 0x461BCD PUSH1 0xE5 SHL DUP2 MSTORE PUSH1 0x20 PUSH1 0x4 DUP3 ADD MSTORE PUSH1 0x21 PUSH1 0x24 DUP3 ADD MSTORE PUSH32 0x5468652046756E64696E6720446561646C696E652068617320656C6170736564 PUSH1 0x44 DUP3 ADD MSTORE PUSH1 0x17 PUSH1 0xF9 SHL PUSH1 0x64 DUP3 ADD MSTORE PUSH1 0x84 ADD PUSH2 0x236 JUMP JUMPDEST TIMESTAMP DUP2 PUSH1 0x4 ADD SLOAD PUSH2 0xB4F SWAP2 SWAP1 PUSH2 0x112D JUMP JUMPDEST SWAP4 SWAP3 POP POP POP JUMP JUMPDEST PUSH4 0x4E487B71 PUSH1 0xE0 SHL PUSH1 0x0 MSTORE PUSH1 0x41 PUSH1 0x4 MSTORE PUSH1 0x24 PUSH1 0x0 REVERT JUMPDEST PUSH1 0x0 DUP3 PUSH1 0x1F DUP4 ADD SLT PUSH2 0xB7D JUMPI PUSH1 0x0 DUP1 REVERT JUMPDEST DUP2 CALLDATALOAD PUSH8 0xFFFFFFFFFFFFFFFF DUP1 DUP3 GT ISZERO PUSH2 0xB98 JUMPI PUSH2 0xB98 PUSH2 0xB56 JUMP JUMPDEST PUSH1 0x40 MLOAD PUSH1 0x1F DUP4 ADD PUSH1 0x1F NOT SWAP1 DUP2 AND PUSH1 0x3F ADD AND DUP2 ADD SWAP1 DUP3 DUP3 GT DUP2 DUP4 LT OR ISZERO PUSH2 0xBC0 JUMPI PUSH2 0xBC0 PUSH2 0xB56 JUMP JUMPDEST DUP2 PUSH1 0x40 MSTORE DUP4 DUP2 MSTORE DUP7 PUSH1 0x20 DUP6 DUP9 ADD ADD GT ISZERO PUSH2 0xBD9 JUMPI PUSH1 0x0 DUP1 REVERT JUMPDEST DUP4 PUSH1 0x20 DUP8 ADD PUSH1 0x20 DUP4 ADD CALLDATACOPY PUSH1 0x0 PUSH1 0x20 DUP6 DUP4 ADD ADD MSTORE DUP1 SWAP5 POP POP POP POP POP SWAP3 SWAP2 POP POP JUMP JUMPDEST PUSH1 0x0 DUP1 PUSH1 0x0 DUP1 PUSH1 0x0 PUSH1 0xA0 DUP7 DUP9 SUB SLT ISZERO PUSH2 0xC11 JUMPI PUSH1 0x0 DUP1 REVERT JUMPDEST DUP6 CALLDATALOAD PUSH1 0x1 PUSH1 0x1 PUSH1 0xA0 SHL SUB DUP2 AND DUP2 EQ PUSH2 0xC28 JUMPI PUSH1 0x0 DUP1 REVERT JUMPDEST SWAP5 POP PUSH1 0x20 DUP7 ADD CALLDATALOAD PUSH8 0xFFFFFFFFFFFFFFFF DUP1 DUP3 GT ISZERO PUSH2 0xC45 JUMPI PUSH1 0x0 DUP1 REVERT JUMPDEST PUSH2 0xC51 DUP10 DUP4 DUP11 ADD PUSH2 0xB6C JUMP JUMPDEST SWAP6 POP PUSH1 0x40 DUP9 ADD CALLDATALOAD SWAP2 POP DUP1 DUP3 GT ISZERO PUSH2 0xC67 JUMPI PUSH1 0x0 DUP1 REVERT JUMPDEST POP PUSH2 0xC74 DUP9 DUP3 DUP10 ADD PUSH2 0xB6C JUMP JUMPDEST SWAP6 SWAP9 SWAP5 SWAP8 POP SWAP5 SWAP6 PUSH1 0x60 DUP2 ADD CALLDATALOAD SWAP6 POP PUSH1 0x80 ADD CALLDATALOAD SWAP4 SWAP3 POP POP POP JUMP JUMPDEST PUSH1 0x0 PUSH1 0x20 DUP3 DUP5 SUB SLT ISZERO PUSH2 0xC9F JUMPI PUSH1 0x0 DUP1 REVERT JUMPDEST POP CALLDATALOAD SWAP2 SWAP1 POP JUMP JUMPDEST PUSH1 0x40 DUP1 DUP3 MSTORE DUP4 MLOAD SWAP1 DUP3 ADD DUP2 SWAP1 MSTORE PUSH1 0x0 SWAP1 PUSH1 0x20 SWAP1 PUSH1 0x60 DUP5 ADD SWAP1 DUP3 DUP8 ADD DUP5 JUMPDEST DUP3 DUP2 LT ISZERO PUSH2 0xCE8 JUMPI DUP2 MLOAD PUSH1 0x1 PUSH1 0x1 PUSH1 0xA0 SHL SUB AND DUP5 MSTORE SWAP3 DUP5 ADD SWAP3 SWAP1 DUP5 ADD SWAP1 PUSH1 0x1 ADD PUSH2 0xCC3 JUMP JUMPDEST POP POP POP DUP4 DUP2 SUB DUP3 DUP6 ADD MSTORE DUP5 MLOAD DUP1 DUP3 MSTORE DUP6 DUP4 ADD SWAP2 DUP4 ADD SWAP1 PUSH1 0x0 JUMPDEST DUP2 DUP2 LT ISZERO PUSH2 0xD1D JUMPI DUP4 MLOAD DUP4 MSTORE SWAP3 DUP5 ADD SWAP3 SWAP2 DUP5 ADD SWAP2 PUSH1 0x1 ADD PUSH2 0xD01 JUMP JUMPDEST POP SWAP1 SWAP8 SWAP7 POP POP POP POP POP POP POP JUMP JUMPDEST PUSH1 0x0 DUP2 MLOAD DUP1 DUP5 MSTORE PUSH1 0x0 JUMPDEST DUP2 DUP2 LT ISZERO PUSH2 0xD50 JUMPI PUSH1 0x20 DUP2 DUP6 ADD DUP2 ADD MLOAD DUP7 DUP4 ADD DUP3 ADD MSTORE ADD PUSH2 0xD34 JUMP JUMPDEST POP PUSH1 0x0 PUSH1 0x20 DUP3 DUP7 ADD ADD MSTORE PUSH1 0x20 PUSH1 0x1F NOT PUSH1 0x1F DUP4 ADD AND DUP6 ADD ADD SWAP2 POP POP SWAP3 SWAP2 POP POP JUMP JUMPDEST PUSH1 0x1 PUSH1 0x1 PUSH1 0xA0 SHL SUB DUP9 AND DUP2 MSTORE PUSH1 0xE0 PUSH1 0x20 DUP3 ADD MSTORE PUSH1 0x0 PUSH2 0xD92 PUSH1 0xE0 DUP4 ADD DUP10 PUSH2 0xD2A JUMP JUMPDEST DUP3 DUP2 SUB PUSH1 0x40 DUP5 ADD MSTORE PUSH2 0xDA4 DUP2 DUP10 PUSH2 0xD2A JUMP JUMPDEST SWAP2 POP POP DUP6 PUSH1 0x60 DUP4 ADD MSTORE DUP5 PUSH1 0x80 DUP4 ADD MSTORE DUP4 PUSH1 0xA0 DUP4 ADD MSTORE DUP3 ISZERO ISZERO PUSH1 0xC0 DUP4 ADD MSTORE SWAP9 SWAP8 POP POP POP POP POP POP POP POP JUMP JUMPDEST PUSH1 0x0 DUP2 MLOAD DUP1 DUP5 MSTORE PUSH1 0x20 DUP1 DUP6 ADD SWAP5 POP DUP1 DUP5 ADD PUSH1 0x0 JUMPDEST DUP4 DUP2 LT ISZERO PUSH2 0xE06 JUMPI DUP2 MLOAD PUSH1 0x1 PUSH1 0x1 PUSH1 0xA0 SHL SUB AND DUP8 MSTORE SWAP6 DUP3 ADD SWAP6 SWAP1 DUP3 ADD SWAP1 PUSH1 0x1 ADD PUSH2 0xDE1 JUMP JUMPDEST POP SWAP5 SWAP6 SWAP5 POP POP POP POP POP JUMP JUMPDEST PUSH1 0x0 DUP2 MLOAD DUP1 DUP5 MSTORE PUSH1 0x20 DUP1 DUP6 ADD SWAP5 POP DUP1 DUP5 ADD PUSH1 0x0 JUMPDEST DUP4 DUP2 LT ISZERO PUSH2 0xE06 JUMPI DUP2 MLOAD DUP8 MSTORE SWAP6 DUP3 ADD SWAP6 SWAP1 DUP3 ADD SWAP1 PUSH1 0x1 ADD PUSH2 0xE25 JUMP JUMPDEST PUSH1 0x0 PUSH1 0x20 DUP1 DUP4 ADD DUP2 DUP5 MSTORE DUP1 DUP6 MLOAD DUP1 DUP4 MSTORE PUSH1 0x40 SWAP3 POP DUP3 DUP7 ADD SWAP2 POP DUP3 DUP2 PUSH1 0x5 SHL DUP8 ADD ADD DUP5 DUP9 ADD PUSH1 0x0 JUMPDEST DUP4 DUP2 LT ISZERO PUSH2 0xF3B JUMPI DUP9 DUP4 SUB PUSH1 0x3F NOT ADD DUP6 MSTORE DUP2 MLOAD DUP1 MLOAD PUSH1 0x1 PUSH1 0x1 PUSH1 0xA0 SHL SUB AND DUP5 MSTORE PUSH2 0x120 DUP9 DUP3 ADD MLOAD DUP2 DUP11 DUP8 ADD MSTORE PUSH2 0xEA0 DUP3 DUP8 ADD DUP3 PUSH2 0xD2A JUMP JUMPDEST SWAP2 POP POP DUP8 DUP3 ADD MLOAD DUP6 DUP3 SUB DUP10 DUP8 ADD MSTORE PUSH2 0xEB8 DUP3 DUP3 PUSH2 0xD2A JUMP JUMPDEST PUSH1 0x60 DUP5 DUP2 ADD MLOAD SWAP1 DUP9 ADD MSTORE PUSH1 0x80 DUP1 DUP6 ADD MLOAD SWAP1 DUP9 ADD MSTORE PUSH1 0xA0 DUP1 DUP6 ADD MLOAD SWAP1 DUP9 ADD MSTORE PUSH1 0xC0 DUP1 DUP6 ADD MLOAD DUP9 DUP4 SUB DUP3 DUP11 ADD MSTORE SWAP2 SWAP4 POP SWAP2 POP PUSH2 0xEF2 DUP4 DUP3 PUSH2 0xDCD JUMP JUMPDEST SWAP3 POP POP POP PUSH1 0xE0 DUP1 DUP4 ADD MLOAD DUP7 DUP4 SUB DUP3 DUP9 ADD MSTORE PUSH2 0xF0D DUP4 DUP3 PUSH2 0xE11 JUMP JUMPDEST SWAP3 POP POP POP PUSH2 0x100 DUP1 DUP4 ADD MLOAD SWAP3 POP PUSH2 0xF27 DUP2 DUP8 ADD DUP5 ISZERO ISZERO SWAP1 MSTORE JUMP JUMPDEST POP SWAP6 DUP9 ADD SWAP6 SWAP4 POP POP SWAP1 DUP7 ADD SWAP1 PUSH1 0x1 ADD PUSH2 0xE68 JUMP JUMPDEST POP SWAP1 SWAP9 SWAP8 POP POP POP POP POP POP POP POP JUMP JUMPDEST PUSH1 0x1 DUP2 DUP2 SHR SWAP1 DUP3 AND DUP1 PUSH2 0xF5D JUMPI PUSH1 0x7F DUP3 AND SWAP2 POP JUMPDEST PUSH1 0x20 DUP3 LT DUP2 SUB PUSH2 0xA75 JUMPI PUSH4 0x4E487B71 PUSH1 0xE0 SHL PUSH1 0x0 MSTORE PUSH1 0x22 PUSH1 0x4 MSTORE PUSH1 0x24 PUSH1 0x0 REVERT JUMPDEST PUSH1 0x1F DUP3 GT ISZERO PUSH2 0xFC7 JUMPI PUSH1 0x0 DUP2 DUP2 MSTORE PUSH1 0x20 DUP2 KECCAK256 PUSH1 0x1F DUP6 ADD PUSH1 0x5 SHR DUP2 ADD PUSH1 0x20 DUP7 LT ISZERO PUSH2 0xFA4 JUMPI POP DUP1 JUMPDEST PUSH1 0x1F DUP6 ADD PUSH1 0x5 SHR DUP3 ADD SWAP2 POP JUMPDEST DUP2 DUP2 LT ISZERO PUSH2 0xFC3 JUMPI DUP3 DUP2 SSTORE PUSH1 0x1 ADD PUSH2 0xFB0 JUMP JUMPDEST POP POP POP JUMPDEST POP POP POP JUMP JUMPDEST DUP2 MLOAD PUSH8 0xFFFFFFFFFFFFFFFF DUP2 GT ISZERO PUSH2 0xFE6 JUMPI PUSH2 0xFE6 PUSH2 0xB56 JUMP JUMPDEST PUSH2 0xFFA DUP2 PUSH2 0xFF4 DUP5 SLOAD PUSH2 0xF49 JUMP JUMPDEST DUP5 PUSH2 0xF7D JUMP JUMPDEST PUSH1 0x20 DUP1 PUSH1 0x1F DUP4 GT PUSH1 0x1 DUP2 EQ PUSH2 0x102F JUMPI PUSH1 0x0 DUP5 ISZERO PUSH2 0x1017 JUMPI POP DUP6 DUP4 ADD MLOAD JUMPDEST PUSH1 0x0 NOT PUSH1 0x3 DUP7 SWAP1 SHL SHR NOT AND PUSH1 0x1 DUP6 SWAP1 SHL OR DUP6 SSTORE PUSH2 0xFC3 JUMP JUMPDEST PUSH1 0x0 DUP6 DUP2 MSTORE PUSH1 0x20 DUP2 KECCAK256 PUSH1 0x1F NOT DUP7 AND SWAP2 JUMPDEST DUP3 DUP2 LT ISZERO PUSH2 0x105E JUMPI DUP9 DUP7 ADD MLOAD DUP3 SSTORE SWAP5 DUP5 ADD SWAP5 PUSH1 0x1 SWAP1 SWAP2 ADD SWAP1 DUP5 ADD PUSH2 0x103F JUMP JUMPDEST POP DUP6 DUP3 LT ISZERO PUSH2 0x107C JUMPI DUP8 DUP6 ADD MLOAD PUSH1 0x0 NOT PUSH1 0x3 DUP9 SWAP1 SHL PUSH1 0xF8 AND SHR NOT AND DUP2 SSTORE JUMPDEST POP POP POP POP POP PUSH1 0x1 SWAP1 DUP2 SHL ADD SWAP1 SSTORE POP JUMP JUMPDEST PUSH4 0x4E487B71 PUSH1 0xE0 SHL PUSH1 0x0 MSTORE PUSH1 0x11 PUSH1 0x4 MSTORE PUSH1 0x24 PUSH1 0x0 REVERT JUMPDEST PUSH1 0x0 PUSH2 0xFFFF DUP1 DUP4 AND DUP2 DUP2 SUB PUSH2 0x10B9 JUMPI PUSH2 0x10B9 PUSH2 0x108C JUMP JUMPDEST PUSH1 0x1 ADD SWAP4 SWAP3 POP POP POP JUMP JUMPDEST PUSH2 0xFFFF DUP3 DUP2 AND DUP3 DUP3 AND SUB SWAP1 DUP1 DUP3 GT ISZERO PUSH2 0x10DE JUMPI PUSH2 0x10DE PUSH2 0x108C JUMP JUMPDEST POP SWAP3 SWAP2 POP POP JUMP JUMPDEST DUP1 DUP3 ADD DUP1 DUP3 GT ISZERO PUSH2 0x10F8 JUMPI PUSH2 0x10F8 PUSH2 0x108C JUMP JUMPDEST SWAP3 SWAP2 POP POP JUMP JUMPDEST PUSH4 0x4E487B71 PUSH1 0xE0 SHL PUSH1 0x0 MSTORE PUSH1 0x32 PUSH1 0x4 MSTORE PUSH1 0x24 PUSH1 0x0 REVERT JUMPDEST PUSH1 0x0 PUSH1 0x1 DUP3 ADD PUSH2 0x1126 JUMPI PUSH2 0x1126 PUSH2 0x108C JUMP JUMPDEST POP PUSH1 0x1 ADD SWAP1 JUMP JUMPDEST DUP2 DUP2 SUB DUP2 DUP2 GT ISZERO PUSH2 0x10F8 JUMPI PUSH2 0x10F8 PUSH2 0x108C JUMP INVALID LOG2 PUSH5 0x6970667358 0x22 SLT KECCAK256 0xA5 ADDRESS REVERT 0x5C PUSH25 0x7A4137EFB702CBDAC82A9FB7C1F9ECCDF09A7929057A5530A SWAP11 GT PUSH5 0x736F6C6343 STOP ADDMOD GT STOP CALLER "
    },
    "gasEstimates": {
      "creation": {
        "codeDepositCost": "894000",
        "executionCost": "25147",
        "totalCost": "919147"
      },
      "external": {
        "campaigns(uint256)": "infinite",
        "createCampaign(address,string,string,uint256,uint256)": "infinite",
        "donateToCampaign(uint256)": "infinite",
        "getCampaigns()": "infinite",
        "getDonators(uint256)": "infinite",
        "getTime()": "202",
        "getTimeLeft(uint256)": "6872",
        "numberOfCampaigns()": "2336"
      }
    },
    "methodIdentifiers": {
      "campaigns(uint256)": "141961bc",
      "createCampaign(address,string,string,uint256,uint256)": "075843c3",
      "donateToCampaign(uint256)": "42a4fda8",
      "getCampaigns()": "a6b03633",
      "getDonators(uint256)": "0fa91fa9",
      "getTime()": "557ed1ba",
      "getTimeLeft(uint256)": "e8c58763",
      "numberOfCampaigns()": "07ca140d"
    }
  },
  "storageLayout": {
    "storage": [
      {
        "astId": 27,
        "contract": "CoinCamp.sol:CoinCamp",
        "label": "campaigns",
        "offset": 0,
        "slot": "0",
        "type": "t_mapping(t_uint256,t_struct(Campaign)22_storage)"
      },
      {
        "astId": 30,
        "contract": "CoinCamp.sol:CoinCamp",
        "label": "numberOfCampaigns",
        "offset": 0,
        "slot": "1",
        "type": "t_uint16"
      }
    ],
    "types": {
      "t_address": {
        "encoding": "inplace",
        "label": "address",
        "numberOfBytes": "20"
      },
      "t_array(t_address)dyn_storage": {
        "base": "t_address",
        "encoding": "dynamic_array",
        "label": "address[]",
        "numberOfBytes": "32"
      },
      "t_array(t_uint256)dyn_storage": {
        "base": "t_uint256",
        "encoding": "dynamic_array",
        "label": "uint256[]",
        "numberOfBytes": "32"
      },
      "t_bool": {
        "encoding": "inplace",
        "label": "bool",
        "numberOfBytes": "1"
      },
      "t_mapping(t_uint256,t_struct(Campaign)22_storage)": {
        "encoding": "mapping",
        "key": "t_uint256",
        "label": "mapping(uint256 => struct CoinCamp.Campaign)",
        "numberOfBytes": "32",
        "value": "t_struct(Campaign)22_storage"
      },
      "t_string_storage": {
        "encoding": "bytes",
        "label": "string",
        "numberOfBytes": "32"
      },
      "t_struct(Campaign)22_storage": {
        "encoding": "inplace",
        "label": "struct CoinCamp.Campaign",
        "members": [
          {
            "astId": 3,
            "contract": "CoinCamp.sol:CoinCamp",
            "label": "owner",
            "offset": 0,
            "slot": "0",
            "type": "t_address"
          },
          {
            "astId": 5,
            "contract": "CoinCamp.sol:CoinCamp",
            "label": "title",
            "offset": 0,
            "slot": "1",
            "type": "t_string_storage"
          },
          {
            "astId": 7,
            "contract": "CoinCamp.sol:CoinCamp",
            "label": "description",
            "offset": 0,
            "slot": "2",
            "type": "t_string_storage"
          },
          {
            "astId": 9,
            "contract": "CoinCamp.sol:CoinCamp",
            "label": "target",
            "offset": 0,
            "slot": "3",
            "type": "t_uint256"
          },
          {
            "astId": 11,
            "contract": "CoinCamp.sol:CoinCamp",
            "label": "deadline",
            "offset": 0,
            "slot": "4",
            "type": "t_uint256"
          },
          {
            "astId": 13,
            "contract": "CoinCamp.sol:CoinCamp",
            "label": "amountCollected",
            "offset": 0,
            "slot": "5",
            "type": "t_uint256"
          },
          {
            "astId": 16,
            "contract": "CoinCamp.sol:CoinCamp",
            "label": "donators",
            "offset": 0,
            "slot": "6",
            "type": "t_array(t_address)dyn_storage"
          },
          {
            "astId": 19,
            "contract": "CoinCamp.sol:CoinCamp",
            "label": "donations",
            "offset": 0,
            "slot": "7",
            "type": "t_array(t_uint256)dyn_storage"
          },
          {
            "astId": 21,
            "contract": "CoinCamp.sol:CoinCamp",
            "label": "active",
            "offset": 0,
            "slot": "8",
            "type": "t_bool"
          }
        ],
        "numberOfBytes": "288"
      },
      "t_uint16": {
        "encoding": "inplace",
        "label": "uint16",
        "numberOfBytes": "2"
      },
      "t_uint256": {
        "encoding": "inplace",
        "label": "uint256",
        "numberOfBytes": "32"
      }
    }
  },
  "userdoc": {
    "kind": "user",
    "methods": {},
    "version": 1
  }
}