{
  "abi": [
    {
      "inputs": [
        {
          "internalType": "uint256",
          "name": "",
          "type": "uint256"
        }
      ],
      "name": "campaigns",
      "outputs": [
        {
          "internalType": "address",
          "name": "owner",
          "type": "address"
        },
        {
          "internalType": "string",
          "name": "title",
          "type": "string"
        },
        {
          "internalType": "string",
          "name": "description",
          "type": "string"
        },
        {
          "internalType": "uint256",
          "name": "target",
          "type": "uint256"
        },
        {
          "internalType": "uint256",
          "name": "deadline",
          "type": "uint256"
        },
        {
          "internalType": "uint256",
          "name": "amountCollected",
          "type": "uint256"
        },
        {
          "internalType": "bool",
          "name": "active",
          "type": "bool"
        },
        {
          "internalType": "uint256",
          "name": "id",
          "type": "uint256"
        }
      ],
      "stateMutability": "view",
      "type": "function"
    },
    {
      "inputs": [
        {
          "internalType": "address",
          "name": "_owner",
          "type": "address"
        },
        {
          "internalType": "string",
          "name": "_title",
          "type": "string"
        },
        {
          "internalType": "string",
          "name": "_description",
          "type": "string"
        },
        {
          "internalType": "uint256",
          "name": "_target",
          "type": "uint256"
        },
        {
          "internalType": "uint256",
          "name": "_deadline",
          "type": "uint256"
        }
      ],
      "name": "createCampaign",
      "outputs": [
        {
          "internalType": "uint256",
          "name": "",
          "type": "uint256"
        }
      ],
      "stateMutability": "nonpayable",
      "type": "function"
    },
    {
      "inputs": [
        {
          "internalType": "uint256",
          "name": "_id",
          "type": "uint256"
        }
      ],
      "name": "donateToCampaign",
      "outputs": [],
      "stateMutability": "payable",
      "type": "function"
    },
    {
      "inputs": [],
      "name": "getCampaigns",
      "outputs": [
        {
          "components": [
            {
              "internalType": "address",
              "name": "owner",
              "type": "address"
            },
            {
              "internalType": "string",
              "name": "title",
              "type": "string"
            },
            {
              "internalType": "string",
              "name": "description",
              "type": "string"
            },
            {
              "internalType": "uint256",
              "name": "target",
              "type": "uint256"
            },
            {
              "internalType": "uint256",
              "name": "deadline",
              "type": "uint256"
            },
            {
              "internalType": "uint256",
              "name": "amountCollected",
              "type": "uint256"
            },
            {
              "internalType": "address[]",
              "name": "donators",
              "type": "address[]"
            },
            {
              "internalType": "uint256[]",
              "name": "donations",
              "type": "uint256[]"
            },
            {
              "internalType": "bool",
              "name": "active",
              "type": "bool"
            },
            {
              "internalType": "uint256",
              "name": "id",
              "type": "uint256"
            }
          ],
          "internalType": "struct CoinCamp.Campaign[]",
          "name": "",
          "type": "tuple[]"
        }
      ],
      "stateMutability": "view",
      "type": "function"
    },
    {
      "inputs": [
        {
          "internalType": "uint256",
          "name": "_id",
          "type": "uint256"
        }
      ],
      "name": "getDonators",
      "outputs": [
        {
          "internalType": "address[]",
          "name": "",
          "type": "address[]"
        },
        {
          "internalType": "uint256[]",
          "name": "",
          "type": "uint256[]"
        }
      ],
      "stateMutability": "view",
      "type": "function"
    },
    {
      "inputs": [],
      "name": "getTime",
      "outputs": [
        {
          "internalType": "uint256",
          "name": "",
          "type": "uint256"
        }
      ],
      "stateMutability": "view",
      "type": "function"
    },
    {
      "inputs": [
        {
          "internalType": "uint256",
          "name": "_id",
          "type": "uint256"
        }
      ],
      "name": "getTimeLeft",
      "outputs": [
        {
          "internalType": "uint256",
          "name": "",
          "type": "uint256"
        }
      ],
      "stateMutability": "view",
      "type": "function"
    },
    {
      "inputs": [],
      "name": "numberOfCampaigns",
      "outputs": [
        {
          "internalType": "uint16",
          "name": "",
          "type": "uint16"
        }
      ],
      "stateMutability": "view",
      "type": "function"
    }
  ],
  "devdoc": {
    "kind": "dev",
    "methods": {},
    "version": 1
  },
  "evm": {
    "assembly": "    /* \"CoinCamp.sol\":67:3001  contract CoinCamp {... */\n  mstore(0x40, 0x80)\n    /* \"CoinCamp.sol\":442:477  uint16 public numberOfCampaigns = 0 */\n  0x01\n  dup1\n  sload\n  not(0xffff)\n  and\n  swap1\n  sstore\n    /* \"CoinCamp.sol\":67:3001  contract CoinCamp {... */\n  callvalue\n  dup1\n  iszero\n  tag_1\n  jumpi\n  0x00\n  dup1\n  revert\ntag_1:\n  pop\n  dataSize(sub_0)\n  dup1\n  dataOffset(sub_0)\n  0x00\n  codecopy\n  0x00\n  return\nstop\n\nsub_0: assembly {\n        /* \"CoinCamp.sol\":67:3001  contract CoinCamp {... */\n      mstore(0x40, 0x80)\n      jumpi(tag_1, lt(calldatasize, 0x04))\n      shr(0xe0, calldataload(0x00))\n      dup1\n      0x42a4fda8\n      gt\n      tag_10\n      jumpi\n      dup1\n      0x42a4fda8\n      eq\n      tag_6\n      jumpi\n      dup1\n      0x557ed1ba\n      eq\n      tag_7\n      jumpi\n      dup1\n      0xa6b03633\n      eq\n      tag_8\n      jumpi\n      dup1\n      0xe8c58763\n      eq\n      tag_9\n      jumpi\n      0x00\n      dup1\n      revert\n    tag_10:\n      dup1\n      0x075843c3\n      eq\n      tag_2\n      jumpi\n      dup1\n      0x07ca140d\n      eq\n      tag_3\n      jumpi\n      dup1\n      0x0fa91fa9\n      eq\n      tag_4\n      jumpi\n      dup1\n      0x141961bc\n      eq\n      tag_5\n      jumpi\n    tag_1:\n      0x00\n      dup1\n      revert\n        /* \"CoinCamp.sol\":486:1196  function createCampaign(address _owner, string memory _title, string memory _description, uint256 _target, uint256 _deadline) public returns (uint256) {... */\n    tag_2:\n      callvalue\n      dup1\n      iszero\n      tag_11\n      jumpi\n      0x00\n      dup1\n      revert\n    tag_11:\n      pop\n      tag_12\n      tag_13\n      calldatasize\n      0x04\n      tag_14\n      jump\t// in\n    tag_13:\n      tag_15\n      jump\t// in\n    tag_12:\n      mload(0x40)\n        /* \"#utility.yul\":1899:1924   */\n      swap1\n      dup2\n      mstore\n        /* \"#utility.yul\":1887:1889   */\n      0x20\n        /* \"#utility.yul\":1872:1890   */\n      add\n        /* \"CoinCamp.sol\":486:1196  function createCampaign(address _owner, string memory _title, string memory _description, uint256 _target, uint256 _deadline) public returns (uint256) {... */\n    tag_16:\n      mload(0x40)\n      dup1\n      swap2\n      sub\n      swap1\n      return\n        /* \"CoinCamp.sol\":442:477  uint16 public numberOfCampaigns = 0 */\n    tag_3:\n      callvalue\n      dup1\n      iszero\n      tag_18\n      jumpi\n      0x00\n      dup1\n      revert\n    tag_18:\n      pop\n      sload(0x01)\n      tag_19\n      swap1\n      0xffff\n      and\n      dup2\n      jump\n    tag_19:\n      mload(0x40)\n        /* \"#utility.yul\":2109:2115   */\n      0xffff\n        /* \"#utility.yul\":2097:2116   */\n      swap1\n      swap2\n      and\n        /* \"#utility.yul\":2079:2117   */\n      dup2\n      mstore\n        /* \"#utility.yul\":2067:2069   */\n      0x20\n        /* \"#utility.yul\":2052:2070   */\n      add\n        /* \"CoinCamp.sol\":442:477  uint16 public numberOfCampaigns = 0 */\n      tag_16\n        /* \"#utility.yul\":1935:2123   */\n      jump\n        /* \"CoinCamp.sol\":2026:2194  function getDonators(uint256 _id) view public returns (address[] memory, uint256[] memory) {... */\n    tag_4:\n      callvalue\n      dup1\n      iszero\n      tag_23\n      jumpi\n      0x00\n      dup1\n      revert\n    tag_23:\n      pop\n      tag_24\n      tag_25\n      calldatasize\n      0x04\n      tag_26\n      jump\t// in\n    tag_25:\n      tag_27\n      jump\t// in\n    tag_24:\n      mload(0x40)\n      tag_16\n      swap3\n      swap2\n      swap1\n      tag_29\n      jump\t// in\n        /* \"CoinCamp.sol\":388:433  mapping(uint256 => Campaign) public campaigns */\n    tag_5:\n      callvalue\n      dup1\n      iszero\n      tag_30\n      jumpi\n      0x00\n      dup1\n      revert\n    tag_30:\n      pop\n      tag_31\n      tag_32\n      calldatasize\n      0x04\n      tag_26\n      jump\t// in\n    tag_32:\n      tag_33\n      jump\t// in\n    tag_31:\n      mload(0x40)\n      tag_16\n      swap9\n      swap8\n      swap7\n      swap6\n      swap5\n      swap4\n      swap3\n      swap2\n      swap1\n      tag_35\n      jump\t// in\n        /* \"CoinCamp.sol\":1204:2018  function donateToCampaign(uint256 _id) public payable {... */\n    tag_6:\n      tag_36\n      tag_37\n      calldatasize\n      0x04\n      tag_26\n      jump\t// in\n    tag_37:\n      tag_38\n      jump\t// in\n    tag_36:\n      stop\n        /* \"CoinCamp.sol\":2549:2642  function getTime() public view returns (uint) {... */\n    tag_7:\n      callvalue\n      dup1\n      iszero\n      tag_39\n      jumpi\n      0x00\n      dup1\n      revert\n    tag_39:\n      pop\n        /* \"CoinCamp.sol\":2618:2633  block.timestamp */\n      timestamp\n        /* \"CoinCamp.sol\":2549:2642  function getTime() public view returns (uint) {... */\n      jump(tag_12)\n        /* \"CoinCamp.sol\":2202:2541  function getCampaigns() public view returns (Campaign[] memory) {... */\n    tag_8:\n      callvalue\n      dup1\n      iszero\n      tag_43\n      jumpi\n      0x00\n      dup1\n      revert\n    tag_43:\n      pop\n      tag_44\n      tag_45\n      jump\t// in\n    tag_44:\n      mload(0x40)\n      tag_16\n      swap2\n      swap1\n      tag_47\n      jump\t// in\n        /* \"CoinCamp.sol\":2650:2998  function getTimeLeft(uint256 _id) public view returns (uint) {... */\n    tag_9:\n      callvalue\n      dup1\n      iszero\n      tag_48\n      jumpi\n      0x00\n      dup1\n      revert\n    tag_48:\n      pop\n      tag_12\n      tag_50\n      calldatasize\n      0x04\n      tag_26\n      jump\t// in\n    tag_50:\n      tag_51\n      jump\t// in\n        /* \"CoinCamp.sol\":486:1196  function createCampaign(address _owner, string memory _title, string memory _description, uint256 _target, uint256 _deadline) public returns (uint256) {... */\n    tag_15:\n        /* \"CoinCamp.sol\":686:703  numberOfCampaigns */\n      and(0xffff, sload(0x01))\n        /* \"CoinCamp.sol\":628:635  uint256 */\n      0x00\n        /* \"CoinCamp.sol\":676:704  campaigns[numberOfCampaigns] */\n      swap1\n      dup2\n      mstore\n      0x20\n      dup2\n      swap1\n      mstore\n      0x40\n      dup2\n      keccak256\n        /* \"CoinCamp.sol\":725:742  campaign.deadline */\n      0x04\n      dup2\n      add\n      sload\n        /* \"CoinCamp.sol\":745:760  block.timestamp */\n      timestamp\n      gt\n        /* \"CoinCamp.sol\":717:809  require(campaign.deadline < block.timestamp, \"The deadline should be a date in the future.\") */\n      tag_54\n      jumpi\n      mload(0x40)\n      shl(0xe5, 0x461bcd)\n      dup2\n      mstore\n        /* \"#utility.yul\":8402:8404   */\n      0x20\n        /* \"CoinCamp.sol\":717:809  require(campaign.deadline < block.timestamp, \"The deadline should be a date in the future.\") */\n      0x04\n      dup3\n      add\n        /* \"#utility.yul\":8384:8405   */\n      mstore\n        /* \"#utility.yul\":8441:8443   */\n      0x2c\n        /* \"#utility.yul\":8421:8439   */\n      0x24\n      dup3\n      add\n        /* \"#utility.yul\":8414:8444   */\n      mstore\n        /* \"#utility.yul\":8480:8514   */\n      0x54686520646561646c696e652073686f756c642062652061206461746520696e\n        /* \"#utility.yul\":8460:8478   */\n      0x44\n      dup3\n      add\n        /* \"#utility.yul\":8453:8515   */\n      mstore\n        /* \"#utility.yul\":8551:8565   */\n      0x20746865206675747572652e0000000000000000000000000000000000000000\n        /* \"#utility.yul\":8531:8549   */\n      0x64\n      dup3\n      add\n        /* \"#utility.yul\":8524:8566   */\n      mstore\n        /* \"#utility.yul\":8583:8602   */\n      0x84\n      add\n        /* \"CoinCamp.sol\":717:809  require(campaign.deadline < block.timestamp, \"The deadline should be a date in the future.\") */\n    tag_55:\n      mload(0x40)\n      dup1\n      swap2\n      sub\n      swap1\n      revert\n    tag_54:\n        /* \"CoinCamp.sol\":822:845  campaign.owner = _owner */\n      dup1\n      sload\n      not(0xffffffffffffffffffffffffffffffffffffffff)\n      and\n      sub(shl(0xa0, 0x01), 0x01)\n      dup9\n      and\n      or\n      dup2\n      sstore\n      0x01\n        /* \"CoinCamp.sol\":856:870  campaign.title */\n      dup2\n      add\n        /* \"CoinCamp.sol\":856:879  campaign.title = _title */\n      tag_57\n        /* \"CoinCamp.sol\":873:879  _title */\n      dup8\n        /* \"CoinCamp.sol\":856:870  campaign.title */\n      dup3\n        /* \"CoinCamp.sol\":856:879  campaign.title = _title */\n      tag_58\n      jump\t// in\n    tag_57:\n      pop\n        /* \"CoinCamp.sol\":890:910  campaign.description */\n      0x02\n      dup2\n      add\n        /* \"CoinCamp.sol\":890:925  campaign.description = _description */\n      tag_59\n        /* \"CoinCamp.sol\":913:925  _description */\n      dup7\n        /* \"CoinCamp.sol\":890:910  campaign.description */\n      dup3\n        /* \"CoinCamp.sol\":890:925  campaign.description = _description */\n      tag_58\n      jump\t// in\n    tag_59:\n      pop\n        /* \"CoinCamp.sol\":936:951  campaign.target */\n      0x03\n      dup2\n      add\n        /* \"CoinCamp.sol\":936:961  campaign.target = _target */\n      dup5\n      swap1\n      sstore\n        /* \"CoinCamp.sol\":972:989  campaign.deadline */\n      0x04\n      dup2\n      add\n        /* \"CoinCamp.sol\":972:1001  campaign.deadline = _deadline */\n      dup4\n      swap1\n      sstore\n      0x00\n        /* \"CoinCamp.sol\":1012:1036  campaign.amountCollected */\n      0x05\n      dup3\n      add\n        /* \"CoinCamp.sol\":1012:1040  campaign.amountCollected = 0 */\n      dup2\n      swap1\n      sstore\n        /* \"CoinCamp.sol\":1051:1066  campaign.active */\n      0x08\n      dup3\n      add\n        /* \"CoinCamp.sol\":1051:1073  campaign.active = true */\n      dup1\n      sload\n      not(0xff)\n      and\n        /* \"CoinCamp.sol\":1069:1073  true */\n      0x01\n        /* \"CoinCamp.sol\":1051:1073  campaign.active = true */\n      swap1\n      dup2\n      or\n      swap1\n      swap2\n      sstore\n        /* \"CoinCamp.sol\":1098:1115  numberOfCampaigns */\n      dup1\n      sload\n      0xffff\n      swap1\n      dup2\n      and\n        /* \"CoinCamp.sol\":1084:1095  campaign.id */\n      0x09\n      dup6\n      add\n        /* \"CoinCamp.sol\":1084:1115  campaign.id = numberOfCampaigns */\n      sstore\n        /* \"CoinCamp.sol\":1128:1147  numberOfCampaigns++ */\n      dup2\n      sload\n      and\n      swap2\n      tag_60\n      dup4\n      tag_61\n      jump\t// in\n    tag_60:\n      dup3\n      sload\n      0x0100\n      swap3\n      swap1\n      swap3\n      exp\n      0xffff\n      dup2\n      dup2\n      mul\n      not\n      swap1\n      swap4\n      and\n      swap2\n      dup4\n      and\n      mul\n      or\n      swap1\n      swap2\n      sstore\n      0x01\n        /* \"CoinCamp.sol\":1167:1184  numberOfCampaigns */\n      dup1\n      sload\n        /* \"CoinCamp.sol\":1167:1188  numberOfCampaigns - 1 */\n      tag_62\n      swap4\n      pop\n      swap1\n      swap2\n        /* \"CoinCamp.sol\":1167:1184  numberOfCampaigns */\n      and\n        /* \"CoinCamp.sol\":1167:1188  numberOfCampaigns - 1 */\n      tag_63\n      jump\t// in\n    tag_62:\n        /* \"CoinCamp.sol\":1160:1188  return numberOfCampaigns - 1 */\n      0xffff\n      and\n      swap8\n        /* \"CoinCamp.sol\":486:1196  function createCampaign(address _owner, string memory _title, string memory _description, uint256 _target, uint256 _deadline) public returns (uint256) {... */\n      swap7\n      pop\n      pop\n      pop\n      pop\n      pop\n      pop\n      pop\n      jump\t// out\n        /* \"CoinCamp.sol\":2026:2194  function getDonators(uint256 _id) view public returns (address[] memory, uint256[] memory) {... */\n    tag_27:\n        /* \"CoinCamp.sol\":2136:2145  campaigns */\n      0x00\n        /* \"CoinCamp.sol\":2136:2150  campaigns[_id] */\n      dup2\n      dup2\n      mstore\n      0x20\n      dup2\n      dup2\n      mstore\n      0x40\n      swap2\n      dup3\n      swap1\n      keccak256\n        /* \"CoinCamp.sol\":2136:2159  campaigns[_id].donators */\n      0x06\n      dup2\n      add\n        /* \"CoinCamp.sol\":2128:2186  return (campaigns[_id].donators, campaigns[_id].donations) */\n      dup1\n      sload\n      dup5\n      mload\n      dup2\n      dup6\n      mul\n      dup2\n      add\n      dup6\n      add\n      swap1\n      swap6\n      mstore\n      dup1\n      dup6\n      mstore\n        /* \"CoinCamp.sol\":2081:2097  address[] memory */\n      0x60\n      swap5\n      dup6\n      swap5\n        /* \"CoinCamp.sol\":2136:2159  campaigns[_id].donators */\n      swap3\n      swap4\n        /* \"CoinCamp.sol\":2161:2185  campaigns[_id].donations */\n      0x07\n      add\n      swap3\n        /* \"CoinCamp.sol\":2128:2186  return (campaigns[_id].donators, campaigns[_id].donations) */\n      swap1\n      swap2\n        /* \"CoinCamp.sol\":2136:2159  campaigns[_id].donators */\n      dup5\n      swap2\n        /* \"CoinCamp.sol\":2128:2186  return (campaigns[_id].donators, campaigns[_id].donations) */\n      dup4\n      add\n        /* \"CoinCamp.sol\":2136:2159  campaigns[_id].donators */\n      dup3\n        /* \"CoinCamp.sol\":2128:2186  return (campaigns[_id].donators, campaigns[_id].donations) */\n      dup3\n      dup1\n      iszero\n      tag_65\n      jumpi\n      0x20\n      mul\n      dup3\n      add\n      swap2\n      swap1\n      0x00\n      mstore\n      keccak256(0x00, 0x20)\n      swap1\n    tag_66:\n      dup2\n      sload\n      sub(shl(0xa0, 0x01), 0x01)\n      and\n      dup2\n      mstore\n      0x01\n      swap1\n      swap2\n      add\n      swap1\n      0x20\n      add\n      dup1\n      dup4\n      gt\n      tag_66\n      jumpi\n    tag_65:\n      pop\n      pop\n      pop\n      pop\n      pop\n      swap2\n      pop\n      dup1\n      dup1\n      sload\n      dup1\n      0x20\n      mul\n      0x20\n      add\n      mload(0x40)\n      swap1\n      dup2\n      add\n      0x40\n      mstore\n      dup1\n      swap3\n      swap2\n      swap1\n      dup2\n      dup2\n      mstore\n      0x20\n      add\n      dup3\n      dup1\n      sload\n      dup1\n      iszero\n      tag_67\n      jumpi\n      0x20\n      mul\n      dup3\n      add\n      swap2\n      swap1\n      0x00\n      mstore\n      keccak256(0x00, 0x20)\n      swap1\n    tag_68:\n      dup2\n      sload\n      dup2\n      mstore\n      0x20\n      add\n      swap1\n      0x01\n      add\n      swap1\n      dup1\n      dup4\n      gt\n      tag_68\n      jumpi\n    tag_67:\n      pop\n      pop\n      pop\n      pop\n      pop\n      swap1\n      pop\n      swap2\n      pop\n      swap2\n      pop\n        /* \"CoinCamp.sol\":2026:2194  function getDonators(uint256 _id) view public returns (address[] memory, uint256[] memory) {... */\n      swap2\n      pop\n      swap2\n      jump\t// out\n        /* \"CoinCamp.sol\":388:433  mapping(uint256 => Campaign) public campaigns */\n    tag_33:\n      0x00\n      0x20\n      dup2\n      swap1\n      mstore\n      swap1\n      dup2\n      mstore\n      0x40\n      swap1\n      keccak256\n      dup1\n      sload\n      0x01\n      dup3\n      add\n      dup1\n      sload\n      sub(shl(0xa0, 0x01), 0x01)\n      swap1\n      swap3\n      and\n      swap3\n      swap2\n      tag_69\n      swap1\n      tag_70\n      jump\t// in\n    tag_69:\n      dup1\n      0x1f\n      add\n      0x20\n      dup1\n      swap2\n      div\n      mul\n      0x20\n      add\n      mload(0x40)\n      swap1\n      dup2\n      add\n      0x40\n      mstore\n      dup1\n      swap3\n      swap2\n      swap1\n      dup2\n      dup2\n      mstore\n      0x20\n      add\n      dup3\n      dup1\n      sload\n      tag_71\n      swap1\n      tag_70\n      jump\t// in\n    tag_71:\n      dup1\n      iszero\n      tag_72\n      jumpi\n      dup1\n      0x1f\n      lt\n      tag_73\n      jumpi\n      0x0100\n      dup1\n      dup4\n      sload\n      div\n      mul\n      dup4\n      mstore\n      swap2\n      0x20\n      add\n      swap2\n      jump(tag_72)\n    tag_73:\n      dup3\n      add\n      swap2\n      swap1\n      0x00\n      mstore\n      keccak256(0x00, 0x20)\n      swap1\n    tag_74:\n      dup2\n      sload\n      dup2\n      mstore\n      swap1\n      0x01\n      add\n      swap1\n      0x20\n      add\n      dup1\n      dup4\n      gt\n      tag_74\n      jumpi\n      dup3\n      swap1\n      sub\n      0x1f\n      and\n      dup3\n      add\n      swap2\n    tag_72:\n      pop\n      pop\n      pop\n      pop\n      pop\n      swap1\n      dup1\n      0x02\n      add\n      dup1\n      sload\n      tag_75\n      swap1\n      tag_70\n      jump\t// in\n    tag_75:\n      dup1\n      0x1f\n      add\n      0x20\n      dup1\n      swap2\n      div\n      mul\n      0x20\n      add\n      mload(0x40)\n      swap1\n      dup2\n      add\n      0x40\n      mstore\n      dup1\n      swap3\n      swap2\n      swap1\n      dup2\n      dup2\n      mstore\n      0x20\n      add\n      dup3\n      dup1\n      sload\n      tag_76\n      swap1\n      tag_70\n      jump\t// in\n    tag_76:\n      dup1\n      iszero\n      tag_77\n      jumpi\n      dup1\n      0x1f\n      lt\n      tag_78\n      jumpi\n      0x0100\n      dup1\n      dup4\n      sload\n      div\n      mul\n      dup4\n      mstore\n      swap2\n      0x20\n      add\n      swap2\n      jump(tag_77)\n    tag_78:\n      dup3\n      add\n      swap2\n      swap1\n      0x00\n      mstore\n      keccak256(0x00, 0x20)\n      swap1\n    tag_79:\n      dup2\n      sload\n      dup2\n      mstore\n      swap1\n      0x01\n      add\n      swap1\n      0x20\n      add\n      dup1\n      dup4\n      gt\n      tag_79\n      jumpi\n      dup3\n      swap1\n      sub\n      0x1f\n      and\n      dup3\n      add\n      swap2\n    tag_77:\n      pop\n      pop\n      pop\n      pop\n      0x03\n      dup4\n      add\n      sload\n      0x04\n      dup5\n      add\n      sload\n      0x05\n      dup6\n      add\n      sload\n      0x08\n      dup7\n      add\n      sload\n      0x09\n      swap1\n      swap7\n      add\n      sload\n      swap5\n      swap6\n      swap3\n      swap5\n      swap2\n      swap4\n      pop\n      swap2\n      0xff\n      and\n      swap1\n      dup9\n      jump\t// out\n        /* \"CoinCamp.sol\":1204:2018  function donateToCampaign(uint256 _id) public payable {... */\n    tag_38:\n        /* \"CoinCamp.sol\":1269:1283  uint256 amount */\n      0x00\n        /* \"CoinCamp.sol\":1334:1348  campaigns[_id] */\n      dup2\n      dup2\n      mstore\n      0x20\n      dup2\n      swap1\n      mstore\n      0x40\n      swap1\n      keccak256\n        /* \"CoinCamp.sol\":1367:1382  campaign.active */\n      0x08\n      dup2\n      add\n      sload\n        /* \"CoinCamp.sol\":1286:1295  msg.value */\n      callvalue\n      swap2\n        /* \"CoinCamp.sol\":1334:1348  campaigns[_id] */\n      swap1\n        /* \"CoinCamp.sol\":1367:1382  campaign.active */\n      0xff\n      and\n        /* \"CoinCamp.sol\":1367:1390  campaign.active == true */\n      iszero\n      iszero\n        /* \"CoinCamp.sol\":1367:1382  campaign.active */\n      0x01\n        /* \"CoinCamp.sol\":1367:1390  campaign.active == true */\n      eq\n        /* \"CoinCamp.sol\":1359:1423  require(campaign.active == true, \"The Funding Period has ended\") */\n      tag_81\n      jumpi\n      mload(0x40)\n      shl(0xe5, 0x461bcd)\n      dup2\n      mstore\n        /* \"#utility.yul\":11914:11916   */\n      0x20\n        /* \"CoinCamp.sol\":1359:1423  require(campaign.active == true, \"The Funding Period has ended\") */\n      0x04\n      dup3\n      add\n        /* \"#utility.yul\":11896:11917   */\n      mstore\n        /* \"#utility.yul\":11953:11955   */\n      0x1c\n        /* \"#utility.yul\":11933:11951   */\n      0x24\n      dup3\n      add\n        /* \"#utility.yul\":11926:11956   */\n      mstore\n        /* \"#utility.yul\":11992:12022   */\n      0x5468652046756e64696e6720506572696f642068617320656e64656400000000\n        /* \"#utility.yul\":11972:11990   */\n      0x44\n      dup3\n      add\n        /* \"#utility.yul\":11965:12023   */\n      mstore\n        /* \"#utility.yul\":12040:12058   */\n      0x64\n      add\n        /* \"CoinCamp.sol\":1359:1423  require(campaign.active == true, \"The Funding Period has ended\") */\n      tag_55\n        /* \"#utility.yul\":11712:12064   */\n      jump\n        /* \"CoinCamp.sol\":1359:1423  require(campaign.active == true, \"The Funding Period has ended\") */\n    tag_81:\n        /* \"CoinCamp.sol\":1460:1468  campaign */\n      dup1\n        /* \"CoinCamp.sol\":1460:1477  campaign.deadline */\n      0x04\n      add\n      sload\n        /* \"CoinCamp.sol\":1442:1457  block.timestamp */\n      timestamp\n        /* \"CoinCamp.sol\":1442:1477  block.timestamp < campaign.deadline */\n      lt\n        /* \"CoinCamp.sol\":1434:1515  require(block.timestamp < campaign.deadline, \"The Funding Deadline has elapsed.\") */\n      tag_84\n      jumpi\n      mload(0x40)\n      shl(0xe5, 0x461bcd)\n      dup2\n      mstore\n        /* \"#utility.yul\":12271:12273   */\n      0x20\n        /* \"CoinCamp.sol\":1434:1515  require(block.timestamp < campaign.deadline, \"The Funding Deadline has elapsed.\") */\n      0x04\n      dup3\n      add\n        /* \"#utility.yul\":12253:12274   */\n      mstore\n        /* \"#utility.yul\":12310:12312   */\n      0x21\n        /* \"#utility.yul\":12290:12308   */\n      0x24\n      dup3\n      add\n        /* \"#utility.yul\":12283:12313   */\n      mstore\n        /* \"#utility.yul\":12349:12383   */\n      0x5468652046756e64696e6720446561646c696e652068617320656c6170736564\n        /* \"#utility.yul\":12329:12347   */\n      0x44\n      dup3\n      add\n        /* \"#utility.yul\":12322:12384   */\n      mstore\n      shl(0xf9, 0x17)\n        /* \"#utility.yul\":12400:12418   */\n      0x64\n      dup3\n      add\n        /* \"#utility.yul\":12393:12424   */\n      mstore\n        /* \"#utility.yul\":12441:12460   */\n      0x84\n      add\n        /* \"CoinCamp.sol\":1434:1515  require(block.timestamp < campaign.deadline, \"The Funding Deadline has elapsed.\") */\n      tag_55\n        /* \"#utility.yul\":12069:12466   */\n      jump\n        /* \"CoinCamp.sol\":1434:1515  require(block.timestamp < campaign.deadline, \"The Funding Deadline has elapsed.\") */\n    tag_84:\n        /* \"CoinCamp.sol\":1562:1570  campaign */\n      dup1\n        /* \"CoinCamp.sol\":1562:1577  campaign.target */\n      0x03\n      add\n      sload\n        /* \"CoinCamp.sol\":1534:1542  campaign */\n      dup2\n        /* \"CoinCamp.sol\":1534:1558  campaign.amountCollected */\n      0x05\n      add\n      sload\n        /* \"CoinCamp.sol\":1534:1577  campaign.amountCollected <= campaign.target */\n      gt\n      iszero\n        /* \"CoinCamp.sol\":1526:1630  require(campaign.amountCollected <= campaign.target, \"The Funding Target has been reached or exceeded.\") */\n      tag_87\n      jumpi\n      mload(0x40)\n      shl(0xe5, 0x461bcd)\n      dup2\n      mstore\n        /* \"#utility.yul\":12673:12675   */\n      0x20\n        /* \"CoinCamp.sol\":1526:1630  require(campaign.amountCollected <= campaign.target, \"The Funding Target has been reached or exceeded.\") */\n      0x04\n      dup3\n      add\n        /* \"#utility.yul\":12655:12676   */\n      mstore\n        /* \"#utility.yul\":12712:12714   */\n      0x30\n        /* \"#utility.yul\":12692:12710   */\n      0x24\n      dup3\n      add\n        /* \"#utility.yul\":12685:12715   */\n      mstore\n        /* \"#utility.yul\":12751:12785   */\n      0x5468652046756e64696e672054617267657420686173206265656e2072656163\n        /* \"#utility.yul\":12731:12749   */\n      0x44\n      dup3\n      add\n        /* \"#utility.yul\":12724:12786   */\n      mstore\n        /* \"#utility.yul\":12822:12840   */\n      0x686564206f722065786365656465642e00000000000000000000000000000000\n        /* \"#utility.yul\":12802:12820   */\n      0x64\n      dup3\n      add\n        /* \"#utility.yul\":12795:12841   */\n      mstore\n        /* \"#utility.yul\":12858:12877   */\n      0x84\n      add\n        /* \"CoinCamp.sol\":1526:1630  require(campaign.amountCollected <= campaign.target, \"The Funding Target has been reached or exceeded.\") */\n      tag_55\n        /* \"#utility.yul\":12471:12883   */\n      jump\n        /* \"CoinCamp.sol\":1526:1630  require(campaign.amountCollected <= campaign.target, \"The Funding Target has been reached or exceeded.\") */\n    tag_87:\n        /* \"CoinCamp.sol\":1643:1660  campaign.donators */\n      0x06\n      dup2\n      add\n        /* \"CoinCamp.sol\":1643:1677  campaign.donators.push(msg.sender) */\n      dup1\n      sload\n      0x01\n      dup1\n      dup3\n      add\n      dup4\n      sstore\n      0x00\n      swap3\n      dup4\n      mstore\n      0x20\n      dup1\n      dup5\n      keccak256\n      swap1\n      swap3\n      add\n      dup1\n      sload\n      not(0xffffffffffffffffffffffffffffffffffffffff)\n      and\n        /* \"CoinCamp.sol\":1666:1676  msg.sender */\n      caller\n        /* \"CoinCamp.sol\":1643:1677  campaign.donators.push(msg.sender) */\n      or\n      swap1\n      sstore\n        /* \"CoinCamp.sol\":1688:1706  campaign.donations */\n      0x07\n      dup5\n      add\n        /* \"CoinCamp.sol\":1688:1719  campaign.donations.push(amount) */\n      dup1\n      sload\n      swap2\n      dup3\n      add\n      dup2\n      sstore\n      dup4\n      mstore\n      swap1\n      dup3\n      keccak256\n      add\n      dup4\n      swap1\n      sstore\n        /* \"CoinCamp.sol\":1755:1769  campaign.owner */\n      dup2\n      sload\n        /* \"CoinCamp.sol\":1747:1794  payable(campaign.owner).call{value: amount}(\"\") */\n      mload(0x40)\n      sub(shl(0xa0, 0x01), 0x01)\n        /* \"CoinCamp.sol\":1755:1769  campaign.owner */\n      swap1\n      swap2\n      and\n      swap1\n        /* \"CoinCamp.sol\":1688:1719  campaign.donations.push(amount) */\n      dup5\n      swap1\n      dup4\n        /* \"CoinCamp.sol\":1747:1794  payable(campaign.owner).call{value: amount}(\"\") */\n      dup2\n      dup2\n      dup2\n        /* \"CoinCamp.sol\":1688:1719  campaign.donations.push(amount) */\n      dup6\n        /* \"CoinCamp.sol\":1755:1769  campaign.owner */\n      dup8\n        /* \"CoinCamp.sol\":1747:1794  payable(campaign.owner).call{value: amount}(\"\") */\n      gas\n      call\n      swap3\n      pop\n      pop\n      pop\n      returndatasize\n      dup1\n      0x00\n      dup2\n      eq\n      tag_96\n      jumpi\n      mload(0x40)\n      swap2\n      pop\n      and(add(returndatasize, 0x3f), not(0x1f))\n      dup3\n      add\n      0x40\n      mstore\n      returndatasize\n      dup3\n      mstore\n      returndatasize\n      0x00\n      0x20\n      dup5\n      add\n      returndatacopy\n      jump(tag_95)\n    tag_96:\n      0x60\n      swap2\n      pop\n    tag_95:\n      pop\n        /* \"CoinCamp.sol\":1732:1794  (bool sent,) = payable(campaign.owner).call{value: amount}(\"\") */\n      pop\n      swap1\n      pop\n        /* \"CoinCamp.sol\":1810:1814  sent */\n      dup1\n        /* \"CoinCamp.sol\":1807:1903  if(sent) {... */\n      iszero\n      tag_97\n      jumpi\n        /* \"CoinCamp.sol\":1885:1891  amount */\n      dup3\n        /* \"CoinCamp.sol\":1858:1866  campaign */\n      dup3\n        /* \"CoinCamp.sol\":1858:1882  campaign.amountCollected */\n      0x05\n      add\n      sload\n        /* \"CoinCamp.sol\":1858:1891  campaign.amountCollected + amount */\n      tag_98\n      swap2\n      swap1\n      tag_99\n      jump\t// in\n    tag_98:\n        /* \"CoinCamp.sol\":1831:1855  campaign.amountCollected */\n      0x05\n      dup4\n      add\n        /* \"CoinCamp.sol\":1831:1891  campaign.amountCollected = campaign.amountCollected + amount */\n      sstore\n        /* \"CoinCamp.sol\":1807:1903  if(sent) {... */\n    tag_97:\n        /* \"CoinCamp.sol\":1944:1952  campaign */\n      dup2\n        /* \"CoinCamp.sol\":1944:1959  campaign.target */\n      0x03\n      add\n      sload\n        /* \"CoinCamp.sol\":1916:1924  campaign */\n      dup3\n        /* \"CoinCamp.sol\":1916:1940  campaign.amountCollected */\n      0x05\n      add\n      sload\n        /* \"CoinCamp.sol\":1916:1959  campaign.amountCollected >= campaign.target */\n      lt\n        /* \"CoinCamp.sol\":1913:2011  if(campaign.amountCollected >= campaign.target) {... */\n      tag_100\n      jumpi\n        /* \"CoinCamp.sol\":1976:1991  campaign.active */\n      0x08\n      dup3\n      add\n        /* \"CoinCamp.sol\":1976:1999  campaign.active = false */\n      dup1\n      sload\n      not(0xff)\n      and\n      swap1\n      sstore\n        /* \"CoinCamp.sol\":1913:2011  if(campaign.amountCollected >= campaign.target) {... */\n    tag_100:\n        /* \"CoinCamp.sol\":1258:2018  {... */\n      pop\n      pop\n      pop\n        /* \"CoinCamp.sol\":1204:2018  function donateToCampaign(uint256 _id) public payable {... */\n      pop\n      jump\t// out\n        /* \"CoinCamp.sol\":2202:2541  function getCampaigns() public view returns (Campaign[] memory) {... */\n    tag_45:\n        /* \"CoinCamp.sol\":2325:2342  numberOfCampaigns */\n      sload(0x01)\n        /* \"CoinCamp.sol\":2247:2264  Campaign[] memory */\n      0x60\n      swap1\n        /* \"CoinCamp.sol\":2277:2307  Campaign[] memory allCampaigns */\n      0x00\n      swap1\n        /* \"CoinCamp.sol\":2325:2342  numberOfCampaigns */\n      0xffff\n      and\n        /* \"CoinCamp.sol\":2310:2343  new Campaign[](numberOfCampaigns) */\n      0xffffffffffffffff\n      dup2\n      gt\n      iszero\n      tag_104\n      jumpi\n      tag_104\n      tag_105\n      jump\t// in\n    tag_104:\n      mload(0x40)\n      swap1\n      dup1\n      dup3\n      mstore\n      dup1\n      0x20\n      mul\n      0x20\n      add\n      dup3\n      add\n      0x40\n      mstore\n      dup1\n      iszero\n      tag_106\n      jumpi\n      dup2\n      0x20\n      add\n    tag_107:\n      tag_108\n      mload(0x40)\n      dup1\n      0x0140\n      add\n      0x40\n      mstore\n      dup1\n      and(sub(shl(0xa0, 0x01), 0x01), 0x00)\n      dup2\n      mstore\n      0x20\n      add\n      0x60\n      dup2\n      mstore\n      0x20\n      add\n      0x60\n      dup2\n      mstore\n      0x20\n      add\n      0x00\n      dup2\n      mstore\n      0x20\n      add\n      0x00\n      dup2\n      mstore\n      0x20\n      add\n      0x00\n      dup2\n      mstore\n      0x20\n      add\n      0x60\n      dup2\n      mstore\n      0x20\n      add\n      0x60\n      dup2\n      mstore\n      0x20\n      add\n      iszero(iszero(0x00))\n      dup2\n      mstore\n      0x20\n      add\n      0x00\n      dup2\n      mstore\n      pop\n      swap1\n      jump\n    tag_108:\n      dup2\n      mstore\n      0x20\n      add\n      swap1\n      0x01\n      swap1\n      sub\n      swap1\n      dup2\n      tag_107\n      jumpi\n      swap1\n      pop\n    tag_106:\n      pop\n        /* \"CoinCamp.sol\":2277:2343  Campaign[] memory allCampaigns = new Campaign[](numberOfCampaigns) */\n      swap1\n      pop\n        /* \"CoinCamp.sol\":2360:2366  uint i */\n      0x00\n        /* \"CoinCamp.sol\":2356:2502  for(uint i = 0; i < numberOfCampaigns; i++) {... */\n    tag_110:\n        /* \"CoinCamp.sol\":2376:2393  numberOfCampaigns */\n      and(0xffff, sload(0x01))\n        /* \"CoinCamp.sol\":2372:2393  i < numberOfCampaigns */\n      dup2\n      lt\n        /* \"CoinCamp.sol\":2356:2502  for(uint i = 0; i < numberOfCampaigns; i++) {... */\n      iszero\n      tag_111\n      jumpi\n        /* \"CoinCamp.sol\":2415:2436  Campaign storage item */\n      0x00\n        /* \"CoinCamp.sol\":2439:2451  campaigns[i] */\n      dup2\n      dup2\n      mstore\n      0x20\n      dup2\n      dup2\n      mstore\n      0x40\n      swap2\n      dup3\n      swap1\n      keccak256\n        /* \"CoinCamp.sol\":2468:2490  allCampaigns[i] = item */\n      dup3\n      mload\n      0x0140\n      dup2\n      add\n      swap1\n      swap4\n      mstore\n      dup1\n      sload\n      sub(shl(0xa0, 0x01), 0x01)\n      and\n      dup4\n      mstore\n      0x01\n      dup2\n      add\n      dup1\n      sload\n        /* \"CoinCamp.sol\":2439:2451  campaigns[i] */\n      swap2\n      swap4\n        /* \"CoinCamp.sol\":2468:2490  allCampaigns[i] = item */\n      swap3\n        /* \"CoinCamp.sol\":2439:2451  campaigns[i] */\n      dup5\n      swap3\n        /* \"CoinCamp.sol\":2468:2490  allCampaigns[i] = item */\n      swap1\n      dup5\n      add\n      swap2\n      swap1\n      tag_113\n      swap1\n      tag_70\n      jump\t// in\n    tag_113:\n      dup1\n      0x1f\n      add\n      0x20\n      dup1\n      swap2\n      div\n      mul\n      0x20\n      add\n      mload(0x40)\n      swap1\n      dup2\n      add\n      0x40\n      mstore\n      dup1\n      swap3\n      swap2\n      swap1\n      dup2\n      dup2\n      mstore\n      0x20\n      add\n      dup3\n      dup1\n      sload\n      tag_114\n      swap1\n      tag_70\n      jump\t// in\n    tag_114:\n      dup1\n      iszero\n      tag_115\n      jumpi\n      dup1\n      0x1f\n      lt\n      tag_116\n      jumpi\n      0x0100\n      dup1\n      dup4\n      sload\n      div\n      mul\n      dup4\n      mstore\n      swap2\n      0x20\n      add\n      swap2\n      jump(tag_115)\n    tag_116:\n      dup3\n      add\n      swap2\n      swap1\n      0x00\n      mstore\n      keccak256(0x00, 0x20)\n      swap1\n    tag_117:\n      dup2\n      sload\n      dup2\n      mstore\n      swap1\n      0x01\n      add\n      swap1\n      0x20\n      add\n      dup1\n      dup4\n      gt\n      tag_117\n      jumpi\n      dup3\n      swap1\n      sub\n      0x1f\n      and\n      dup3\n      add\n      swap2\n    tag_115:\n      pop\n      pop\n      pop\n      pop\n      pop\n      dup2\n      mstore\n      0x20\n      add\n      0x02\n      dup3\n      add\n      dup1\n      sload\n      tag_118\n      swap1\n      tag_70\n      jump\t// in\n    tag_118:\n      dup1\n      0x1f\n      add\n      0x20\n      dup1\n      swap2\n      div\n      mul\n      0x20\n      add\n      mload(0x40)\n      swap1\n      dup2\n      add\n      0x40\n      mstore\n      dup1\n      swap3\n      swap2\n      swap1\n      dup2\n      dup2\n      mstore\n      0x20\n      add\n      dup3\n      dup1\n      sload\n      tag_119\n      swap1\n      tag_70\n      jump\t// in\n    tag_119:\n      dup1\n      iszero\n      tag_120\n      jumpi\n      dup1\n      0x1f\n      lt\n      tag_121\n      jumpi\n      0x0100\n      dup1\n      dup4\n      sload\n      div\n      mul\n      dup4\n      mstore\n      swap2\n      0x20\n      add\n      swap2\n      jump(tag_120)\n    tag_121:\n      dup3\n      add\n      swap2\n      swap1\n      0x00\n      mstore\n      keccak256(0x00, 0x20)\n      swap1\n    tag_122:\n      dup2\n      sload\n      dup2\n      mstore\n      swap1\n      0x01\n      add\n      swap1\n      0x20\n      add\n      dup1\n      dup4\n      gt\n      tag_122\n      jumpi\n      dup3\n      swap1\n      sub\n      0x1f\n      and\n      dup3\n      add\n      swap2\n    tag_120:\n      pop\n      pop\n      pop\n      pop\n      pop\n      dup2\n      mstore\n      0x20\n      add\n      0x03\n      dup3\n      add\n      sload\n      dup2\n      mstore\n      0x20\n      add\n      0x04\n      dup3\n      add\n      sload\n      dup2\n      mstore\n      0x20\n      add\n      0x05\n      dup3\n      add\n      sload\n      dup2\n      mstore\n      0x20\n      add\n      0x06\n      dup3\n      add\n      dup1\n      sload\n      dup1\n      0x20\n      mul\n      0x20\n      add\n      mload(0x40)\n      swap1\n      dup2\n      add\n      0x40\n      mstore\n      dup1\n      swap3\n      swap2\n      swap1\n      dup2\n      dup2\n      mstore\n      0x20\n      add\n      dup3\n      dup1\n      sload\n      dup1\n      iszero\n      tag_123\n      jumpi\n      0x20\n      mul\n      dup3\n      add\n      swap2\n      swap1\n      0x00\n      mstore\n      keccak256(0x00, 0x20)\n      swap1\n    tag_124:\n      dup2\n      sload\n      sub(shl(0xa0, 0x01), 0x01)\n      and\n      dup2\n      mstore\n      0x01\n      swap1\n      swap2\n      add\n      swap1\n      0x20\n      add\n      dup1\n      dup4\n      gt\n      tag_124\n      jumpi\n    tag_123:\n      pop\n      pop\n      pop\n      pop\n      pop\n      dup2\n      mstore\n      0x20\n      add\n      0x07\n      dup3\n      add\n      dup1\n      sload\n      dup1\n      0x20\n      mul\n      0x20\n      add\n      mload(0x40)\n      swap1\n      dup2\n      add\n      0x40\n      mstore\n      dup1\n      swap3\n      swap2\n      swap1\n      dup2\n      dup2\n      mstore\n      0x20\n      add\n      dup3\n      dup1\n      sload\n      dup1\n      iszero\n      tag_125\n      jumpi\n      0x20\n      mul\n      dup3\n      add\n      swap2\n      swap1\n      0x00\n      mstore\n      keccak256(0x00, 0x20)\n      swap1\n    tag_126:\n      dup2\n      sload\n      dup2\n      mstore\n      0x20\n      add\n      swap1\n      0x01\n      add\n      swap1\n      dup1\n      dup4\n      gt\n      tag_126\n      jumpi\n    tag_125:\n      pop\n      pop\n      pop\n      swap2\n      dup4\n      mstore\n      pop\n      pop\n      0x08\n      dup3\n      add\n      sload\n      0xff\n      and\n      iszero\n      iszero\n      0x20\n      dup3\n      add\n      mstore\n      0x09\n      swap1\n      swap2\n      add\n      sload\n      0x40\n      swap1\n      swap2\n      add\n      mstore\n        /* \"CoinCamp.sol\":2468:2483  allCampaigns[i] */\n      dup4\n      mload\n        /* \"CoinCamp.sol\":2468:2480  allCampaigns */\n      dup5\n      swap1\n        /* \"CoinCamp.sol\":2481:2482  i */\n      dup5\n      swap1\n        /* \"CoinCamp.sol\":2468:2483  allCampaigns[i] */\n      dup2\n      lt\n      tag_128\n      jumpi\n      tag_128\n      tag_129\n      jump\t// in\n    tag_128:\n      0x20\n      mul\n      0x20\n      add\n      add\n        /* \"CoinCamp.sol\":2468:2490  allCampaigns[i] = item */\n      dup2\n      swap1\n      mstore\n      pop\n        /* \"CoinCamp.sol\":2400:2502  {... */\n      pop\n        /* \"CoinCamp.sol\":2395:2398  i++ */\n      dup1\n      dup1\n      tag_130\n      swap1\n      tag_131\n      jump\t// in\n    tag_130:\n      swap2\n      pop\n      pop\n        /* \"CoinCamp.sol\":2356:2502  for(uint i = 0; i < numberOfCampaigns; i++) {... */\n      jump(tag_110)\n    tag_111:\n      pop\n        /* \"CoinCamp.sol\":2521:2533  allCampaigns */\n      swap2\n        /* \"CoinCamp.sol\":2202:2541  function getCampaigns() public view returns (Campaign[] memory) {... */\n      swap1\n      pop\n      jump\t// out\n        /* \"CoinCamp.sol\":2650:2998  function getTimeLeft(uint256 _id) public view returns (uint) {... */\n    tag_51:\n        /* \"CoinCamp.sol\":2705:2709  uint */\n      0x00\n        /* \"CoinCamp.sol\":2750:2764  campaigns[_id] */\n      dup2\n      dup2\n      mstore\n      0x20\n      dup2\n      swap1\n      mstore\n      0x40\n      dup2\n      keccak256\n        /* \"CoinCamp.sol\":2783:2798  campaign.active */\n      0x08\n      dup2\n      add\n      sload\n      0xff\n      and\n        /* \"CoinCamp.sol\":2783:2806  campaign.active == true */\n      iszero\n      iszero\n        /* \"CoinCamp.sol\":2783:2798  campaign.active */\n      0x01\n        /* \"CoinCamp.sol\":2783:2806  campaign.active == true */\n      eq\n        /* \"CoinCamp.sol\":2775:2839  require(campaign.active == true, \"The Funding Period has ended\") */\n      tag_133\n      jumpi\n      mload(0x40)\n      shl(0xe5, 0x461bcd)\n      dup2\n      mstore\n        /* \"#utility.yul\":11914:11916   */\n      0x20\n        /* \"CoinCamp.sol\":2775:2839  require(campaign.active == true, \"The Funding Period has ended\") */\n      0x04\n      dup3\n      add\n        /* \"#utility.yul\":11896:11917   */\n      mstore\n        /* \"#utility.yul\":11953:11955   */\n      0x1c\n        /* \"#utility.yul\":11933:11951   */\n      0x24\n      dup3\n      add\n        /* \"#utility.yul\":11926:11956   */\n      mstore\n        /* \"#utility.yul\":11992:12022   */\n      0x5468652046756e64696e6720506572696f642068617320656e64656400000000\n        /* \"#utility.yul\":11972:11990   */\n      0x44\n      dup3\n      add\n        /* \"#utility.yul\":11965:12023   */\n      mstore\n        /* \"#utility.yul\":12040:12058   */\n      0x64\n      add\n        /* \"CoinCamp.sol\":2775:2839  require(campaign.active == true, \"The Funding Period has ended\") */\n      tag_55\n        /* \"#utility.yul\":11712:12064   */\n      jump\n        /* \"CoinCamp.sol\":2775:2839  require(campaign.active == true, \"The Funding Period has ended\") */\n    tag_133:\n        /* \"CoinCamp.sol\":2876:2884  campaign */\n      dup1\n        /* \"CoinCamp.sol\":2876:2893  campaign.deadline */\n      0x04\n      add\n      sload\n        /* \"CoinCamp.sol\":2858:2873  block.timestamp */\n      timestamp\n        /* \"CoinCamp.sol\":2858:2893  block.timestamp < campaign.deadline */\n      lt\n        /* \"CoinCamp.sol\":2850:2931  require(block.timestamp < campaign.deadline, \"The Funding Deadline has elapsed.\") */\n      tag_135\n      jumpi\n      mload(0x40)\n      shl(0xe5, 0x461bcd)\n      dup2\n      mstore\n        /* \"#utility.yul\":12271:12273   */\n      0x20\n        /* \"CoinCamp.sol\":2850:2931  require(block.timestamp < campaign.deadline, \"The Funding Deadline has elapsed.\") */\n      0x04\n      dup3\n      add\n        /* \"#utility.yul\":12253:12274   */\n      mstore\n        /* \"#utility.yul\":12310:12312   */\n      0x21\n        /* \"#utility.yul\":12290:12308   */\n      0x24\n      dup3\n      add\n        /* \"#utility.yul\":12283:12313   */\n      mstore\n        /* \"#utility.yul\":12349:12383   */\n      0x5468652046756e64696e6720446561646c696e652068617320656c6170736564\n        /* \"#utility.yul\":12329:12347   */\n      0x44\n      dup3\n      add\n        /* \"#utility.yul\":12322:12384   */\n      mstore\n      shl(0xf9, 0x17)\n        /* \"#utility.yul\":12400:12418   */\n      0x64\n      dup3\n      add\n        /* \"#utility.yul\":12393:12424   */\n      mstore\n        /* \"#utility.yul\":12441:12460   */\n      0x84\n      add\n        /* \"CoinCamp.sol\":2850:2931  require(block.timestamp < campaign.deadline, \"The Funding Deadline has elapsed.\") */\n      tag_55\n        /* \"#utility.yul\":12069:12466   */\n      jump\n        /* \"CoinCamp.sol\":2850:2931  require(block.timestamp < campaign.deadline, \"The Funding Deadline has elapsed.\") */\n    tag_135:\n        /* \"CoinCamp.sol\":2974:2989  block.timestamp */\n      timestamp\n        /* \"CoinCamp.sol\":2954:2962  campaign */\n      dup2\n        /* \"CoinCamp.sol\":2954:2971  campaign.deadline */\n      0x04\n      add\n      sload\n        /* \"CoinCamp.sol\":2954:2989  campaign.deadline - block.timestamp */\n      tag_137\n      swap2\n      swap1\n      tag_138\n      jump\t// in\n    tag_137:\n        /* \"CoinCamp.sol\":2942:2990  return uint(campaign.deadline - block.timestamp) */\n      swap4\n        /* \"CoinCamp.sol\":2650:2998  function getTimeLeft(uint256 _id) public view returns (uint) {... */\n      swap3\n      pop\n      pop\n      pop\n      jump\t// out\n        /* \"#utility.yul\":14:141   */\n    tag_105:\n        /* \"#utility.yul\":75:85   */\n      0x4e487b71\n        /* \"#utility.yul\":70:73   */\n      0xe0\n        /* \"#utility.yul\":66:86   */\n      shl\n        /* \"#utility.yul\":63:64   */\n      0x00\n        /* \"#utility.yul\":56:87   */\n      mstore\n        /* \"#utility.yul\":106:110   */\n      0x41\n        /* \"#utility.yul\":103:104   */\n      0x04\n        /* \"#utility.yul\":96:111   */\n      mstore\n        /* \"#utility.yul\":130:134   */\n      0x24\n        /* \"#utility.yul\":127:128   */\n      0x00\n        /* \"#utility.yul\":120:135   */\n      revert\n        /* \"#utility.yul\":146:865   */\n    tag_139:\n        /* \"#utility.yul\":189:194   */\n      0x00\n        /* \"#utility.yul\":242:245   */\n      dup3\n        /* \"#utility.yul\":235:239   */\n      0x1f\n        /* \"#utility.yul\":227:233   */\n      dup4\n        /* \"#utility.yul\":223:240   */\n      add\n        /* \"#utility.yul\":219:246   */\n      slt\n        /* \"#utility.yul\":209:264   */\n      tag_152\n      jumpi\n        /* \"#utility.yul\":260:261   */\n      0x00\n        /* \"#utility.yul\":257:258   */\n      dup1\n        /* \"#utility.yul\":250:262   */\n      revert\n        /* \"#utility.yul\":209:264   */\n    tag_152:\n        /* \"#utility.yul\":296:302   */\n      dup2\n        /* \"#utility.yul\":283:303   */\n      calldataload\n        /* \"#utility.yul\":322:340   */\n      0xffffffffffffffff\n        /* \"#utility.yul\":359:361   */\n      dup1\n        /* \"#utility.yul\":355:357   */\n      dup3\n        /* \"#utility.yul\":352:362   */\n      gt\n        /* \"#utility.yul\":349:385   */\n      iszero\n      tag_154\n      jumpi\n        /* \"#utility.yul\":365:383   */\n      tag_154\n      tag_105\n      jump\t// in\n    tag_154:\n        /* \"#utility.yul\":440:442   */\n      0x40\n        /* \"#utility.yul\":434:443   */\n      mload\n        /* \"#utility.yul\":408:410   */\n      0x1f\n        /* \"#utility.yul\":494:507   */\n      dup4\n      add\n      not(0x1f)\n        /* \"#utility.yul\":490:512   */\n      swap1\n      dup2\n      and\n        /* \"#utility.yul\":514:516   */\n      0x3f\n        /* \"#utility.yul\":486:517   */\n      add\n        /* \"#utility.yul\":482:522   */\n      and\n        /* \"#utility.yul\":470:523   */\n      dup2\n      add\n      swap1\n        /* \"#utility.yul\":538:556   */\n      dup3\n      dup3\n      gt\n        /* \"#utility.yul\":558:580   */\n      dup2\n      dup4\n      lt\n        /* \"#utility.yul\":535:581   */\n      or\n        /* \"#utility.yul\":532:604   */\n      iszero\n      tag_156\n      jumpi\n        /* \"#utility.yul\":584:602   */\n      tag_156\n      tag_105\n      jump\t// in\n    tag_156:\n        /* \"#utility.yul\":624:634   */\n      dup2\n        /* \"#utility.yul\":620:622   */\n      0x40\n        /* \"#utility.yul\":613:635   */\n      mstore\n        /* \"#utility.yul\":659:661   */\n      dup4\n        /* \"#utility.yul\":651:657   */\n      dup2\n        /* \"#utility.yul\":644:662   */\n      mstore\n        /* \"#utility.yul\":705:708   */\n      dup7\n        /* \"#utility.yul\":698:702   */\n      0x20\n        /* \"#utility.yul\":693:695   */\n      dup6\n        /* \"#utility.yul\":685:691   */\n      dup9\n        /* \"#utility.yul\":681:696   */\n      add\n        /* \"#utility.yul\":677:703   */\n      add\n        /* \"#utility.yul\":674:709   */\n      gt\n        /* \"#utility.yul\":671:726   */\n      iszero\n      tag_157\n      jumpi\n        /* \"#utility.yul\":722:723   */\n      0x00\n        /* \"#utility.yul\":719:720   */\n      dup1\n        /* \"#utility.yul\":712:724   */\n      revert\n        /* \"#utility.yul\":671:726   */\n    tag_157:\n        /* \"#utility.yul\":786:788   */\n      dup4\n        /* \"#utility.yul\":779:783   */\n      0x20\n        /* \"#utility.yul\":771:777   */\n      dup8\n        /* \"#utility.yul\":767:784   */\n      add\n        /* \"#utility.yul\":760:764   */\n      0x20\n        /* \"#utility.yul\":752:758   */\n      dup4\n        /* \"#utility.yul\":748:765   */\n      add\n        /* \"#utility.yul\":735:789   */\n      calldatacopy\n        /* \"#utility.yul\":833:834   */\n      0x00\n        /* \"#utility.yul\":826:830   */\n      0x20\n        /* \"#utility.yul\":821:823   */\n      dup6\n        /* \"#utility.yul\":813:819   */\n      dup4\n        /* \"#utility.yul\":809:824   */\n      add\n        /* \"#utility.yul\":805:831   */\n      add\n        /* \"#utility.yul\":798:835   */\n      mstore\n        /* \"#utility.yul\":853:859   */\n      dup1\n        /* \"#utility.yul\":844:859   */\n      swap5\n      pop\n      pop\n      pop\n      pop\n      pop\n        /* \"#utility.yul\":146:865   */\n      swap3\n      swap2\n      pop\n      pop\n      jump\t// out\n        /* \"#utility.yul\":870:1748   */\n    tag_14:\n        /* \"#utility.yul\":985:991   */\n      0x00\n        /* \"#utility.yul\":993:999   */\n      dup1\n        /* \"#utility.yul\":1001:1007   */\n      0x00\n        /* \"#utility.yul\":1009:1015   */\n      dup1\n        /* \"#utility.yul\":1017:1023   */\n      0x00\n        /* \"#utility.yul\":1070:1073   */\n      0xa0\n        /* \"#utility.yul\":1058:1067   */\n      dup7\n        /* \"#utility.yul\":1049:1056   */\n      dup9\n        /* \"#utility.yul\":1045:1068   */\n      sub\n        /* \"#utility.yul\":1041:1074   */\n      slt\n        /* \"#utility.yul\":1038:1091   */\n      iszero\n      tag_159\n      jumpi\n        /* \"#utility.yul\":1087:1088   */\n      0x00\n        /* \"#utility.yul\":1084:1085   */\n      dup1\n        /* \"#utility.yul\":1077:1089   */\n      revert\n        /* \"#utility.yul\":1038:1091   */\n    tag_159:\n        /* \"#utility.yul\":1126:1135   */\n      dup6\n        /* \"#utility.yul\":1113:1136   */\n      calldataload\n      sub(shl(0xa0, 0x01), 0x01)\n        /* \"#utility.yul\":1169:1174   */\n      dup2\n        /* \"#utility.yul\":1165:1219   */\n      and\n        /* \"#utility.yul\":1158:1163   */\n      dup2\n        /* \"#utility.yul\":1155:1220   */\n      eq\n        /* \"#utility.yul\":1145:1238   */\n      tag_160\n      jumpi\n        /* \"#utility.yul\":1234:1235   */\n      0x00\n        /* \"#utility.yul\":1231:1232   */\n      dup1\n        /* \"#utility.yul\":1224:1236   */\n      revert\n        /* \"#utility.yul\":1145:1238   */\n    tag_160:\n        /* \"#utility.yul\":1257:1262   */\n      swap5\n      pop\n        /* \"#utility.yul\":1313:1315   */\n      0x20\n        /* \"#utility.yul\":1298:1316   */\n      dup7\n      add\n        /* \"#utility.yul\":1285:1317   */\n      calldataload\n        /* \"#utility.yul\":1336:1354   */\n      0xffffffffffffffff\n        /* \"#utility.yul\":1366:1380   */\n      dup1\n      dup3\n      gt\n        /* \"#utility.yul\":1363:1397   */\n      iszero\n      tag_161\n      jumpi\n        /* \"#utility.yul\":1393:1394   */\n      0x00\n        /* \"#utility.yul\":1390:1391   */\n      dup1\n        /* \"#utility.yul\":1383:1395   */\n      revert\n        /* \"#utility.yul\":1363:1397   */\n    tag_161:\n        /* \"#utility.yul\":1416:1466   */\n      tag_162\n        /* \"#utility.yul\":1458:1465   */\n      dup10\n        /* \"#utility.yul\":1449:1455   */\n      dup4\n        /* \"#utility.yul\":1438:1447   */\n      dup11\n        /* \"#utility.yul\":1434:1456   */\n      add\n        /* \"#utility.yul\":1416:1466   */\n      tag_139\n      jump\t// in\n    tag_162:\n        /* \"#utility.yul\":1406:1466   */\n      swap6\n      pop\n        /* \"#utility.yul\":1519:1521   */\n      0x40\n        /* \"#utility.yul\":1508:1517   */\n      dup9\n        /* \"#utility.yul\":1504:1522   */\n      add\n        /* \"#utility.yul\":1491:1523   */\n      calldataload\n        /* \"#utility.yul\":1475:1523   */\n      swap2\n      pop\n        /* \"#utility.yul\":1548:1550   */\n      dup1\n        /* \"#utility.yul\":1538:1546   */\n      dup3\n        /* \"#utility.yul\":1535:1551   */\n      gt\n        /* \"#utility.yul\":1532:1568   */\n      iszero\n      tag_163\n      jumpi\n        /* \"#utility.yul\":1564:1565   */\n      0x00\n        /* \"#utility.yul\":1561:1562   */\n      dup1\n        /* \"#utility.yul\":1554:1566   */\n      revert\n        /* \"#utility.yul\":1532:1568   */\n    tag_163:\n      pop\n        /* \"#utility.yul\":1587:1639   */\n      tag_164\n        /* \"#utility.yul\":1631:1638   */\n      dup9\n        /* \"#utility.yul\":1620:1628   */\n      dup3\n        /* \"#utility.yul\":1609:1618   */\n      dup10\n        /* \"#utility.yul\":1605:1629   */\n      add\n        /* \"#utility.yul\":1587:1639   */\n      tag_139\n      jump\t// in\n    tag_164:\n        /* \"#utility.yul\":870:1748   */\n      swap6\n      swap9\n      swap5\n      swap8\n      pop\n        /* \"#utility.yul\":1577:1639   */\n      swap5\n      swap6\n        /* \"#utility.yul\":1686:1688   */\n      0x60\n        /* \"#utility.yul\":1671:1689   */\n      dup2\n      add\n        /* \"#utility.yul\":1658:1690   */\n      calldataload\n      swap6\n      pop\n        /* \"#utility.yul\":1737:1740   */\n      0x80\n        /* \"#utility.yul\":1722:1741   */\n      add\n        /* \"#utility.yul\":1709:1742   */\n      calldataload\n      swap4\n        /* \"#utility.yul\":870:1748   */\n      swap3\n      pop\n      pop\n      pop\n      jump\t// out\n        /* \"#utility.yul\":2128:2308   */\n    tag_26:\n        /* \"#utility.yul\":2187:2193   */\n      0x00\n        /* \"#utility.yul\":2240:2242   */\n      0x20\n        /* \"#utility.yul\":2228:2237   */\n      dup3\n        /* \"#utility.yul\":2219:2226   */\n      dup5\n        /* \"#utility.yul\":2215:2238   */\n      sub\n        /* \"#utility.yul\":2211:2243   */\n      slt\n        /* \"#utility.yul\":2208:2260   */\n      iszero\n      tag_168\n      jumpi\n        /* \"#utility.yul\":2256:2257   */\n      0x00\n        /* \"#utility.yul\":2253:2254   */\n      dup1\n        /* \"#utility.yul\":2246:2258   */\n      revert\n        /* \"#utility.yul\":2208:2260   */\n    tag_168:\n      pop\n        /* \"#utility.yul\":2279:2302   */\n      calldataload\n      swap2\n        /* \"#utility.yul\":2128:2308   */\n      swap1\n      pop\n      jump\t// out\n        /* \"#utility.yul\":2445:3646   */\n    tag_29:\n        /* \"#utility.yul\":2713:2715   */\n      0x40\n        /* \"#utility.yul\":2725:2746   */\n      dup1\n      dup3\n      mstore\n        /* \"#utility.yul\":2795:2808   */\n      dup4\n      mload\n        /* \"#utility.yul\":2698:2716   */\n      swap1\n      dup3\n      add\n        /* \"#utility.yul\":2817:2839   */\n      dup2\n      swap1\n      mstore\n        /* \"#utility.yul\":2665:2669   */\n      0x00\n      swap1\n        /* \"#utility.yul\":2892:2896   */\n      0x20\n      swap1\n        /* \"#utility.yul\":2870:2872   */\n      0x60\n        /* \"#utility.yul\":2855:2873   */\n      dup5\n      add\n      swap1\n        /* \"#utility.yul\":2919:2934   */\n      dup3\n      dup8\n      add\n        /* \"#utility.yul\":2665:2669   */\n      dup5\n        /* \"#utility.yul\":2962:3180   */\n    tag_171:\n        /* \"#utility.yul\":2976:2982   */\n      dup3\n        /* \"#utility.yul\":2973:2974   */\n      dup2\n        /* \"#utility.yul\":2970:2983   */\n      lt\n        /* \"#utility.yul\":2962:3180   */\n      iszero\n      tag_173\n      jumpi\n        /* \"#utility.yul\":3041:3054   */\n      dup2\n      mload\n      sub(shl(0xa0, 0x01), 0x01)\n        /* \"#utility.yul\":3037:3099   */\n      and\n        /* \"#utility.yul\":3025:3100   */\n      dup5\n      mstore\n        /* \"#utility.yul\":3120:3132   */\n      swap3\n      dup5\n      add\n      swap3\n        /* \"#utility.yul\":3155:3170   */\n      swap1\n      dup5\n      add\n      swap1\n        /* \"#utility.yul\":2998:2999   */\n      0x01\n        /* \"#utility.yul\":2991:3000   */\n      add\n        /* \"#utility.yul\":2962:3180   */\n      jump(tag_171)\n    tag_173:\n      pop\n      pop\n      pop\n        /* \"#utility.yul\":3216:3235   */\n      dup4\n      dup2\n      sub\n        /* \"#utility.yul\":3196:3214   */\n      dup3\n      dup6\n      add\n        /* \"#utility.yul\":3189:3236   */\n      mstore\n        /* \"#utility.yul\":3286:3299   */\n      dup5\n      mload\n        /* \"#utility.yul\":3308:3329   */\n      dup1\n      dup3\n      mstore\n        /* \"#utility.yul\":3384:3399   */\n      dup6\n      dup4\n      add\n      swap2\n        /* \"#utility.yul\":3347:3359   */\n      dup4\n      add\n      swap1\n        /* \"#utility.yul\":3419:3420   */\n      0x00\n        /* \"#utility.yul\":3429:3618   */\n    tag_174:\n        /* \"#utility.yul\":3445:3453   */\n      dup2\n        /* \"#utility.yul\":3440:3443   */\n      dup2\n        /* \"#utility.yul\":3437:3454   */\n      lt\n        /* \"#utility.yul\":3429:3618   */\n      iszero\n      tag_176\n      jumpi\n        /* \"#utility.yul\":3514:3529   */\n      dup4\n      mload\n        /* \"#utility.yul\":3500:3530   */\n      dup4\n      mstore\n        /* \"#utility.yul\":3591:3608   */\n      swap3\n      dup5\n      add\n      swap3\n        /* \"#utility.yul\":3552:3566   */\n      swap2\n      dup5\n      add\n      swap2\n        /* \"#utility.yul\":3473:3474   */\n      0x01\n        /* \"#utility.yul\":3464:3475   */\n      add\n        /* \"#utility.yul\":3429:3618   */\n      jump(tag_174)\n    tag_176:\n      pop\n        /* \"#utility.yul\":3635:3640   */\n      swap1\n      swap8\n        /* \"#utility.yul\":2445:3646   */\n      swap7\n      pop\n      pop\n      pop\n      pop\n      pop\n      pop\n      pop\n      jump\t// out\n        /* \"#utility.yul\":3651:4074   */\n    tag_141:\n        /* \"#utility.yul\":3693:3696   */\n      0x00\n        /* \"#utility.yul\":3731:3736   */\n      dup2\n        /* \"#utility.yul\":3725:3737   */\n      mload\n        /* \"#utility.yul\":3758:3764   */\n      dup1\n        /* \"#utility.yul\":3753:3756   */\n      dup5\n        /* \"#utility.yul\":3746:3765   */\n      mstore\n        /* \"#utility.yul\":3783:3784   */\n      0x00\n        /* \"#utility.yul\":3793:3955   */\n    tag_178:\n        /* \"#utility.yul\":3807:3813   */\n      dup2\n        /* \"#utility.yul\":3804:3805   */\n      dup2\n        /* \"#utility.yul\":3801:3814   */\n      lt\n        /* \"#utility.yul\":3793:3955   */\n      iszero\n      tag_180\n      jumpi\n        /* \"#utility.yul\":3869:3873   */\n      0x20\n        /* \"#utility.yul\":3925:3938   */\n      dup2\n      dup6\n      add\n        /* \"#utility.yul\":3921:3943   */\n      dup2\n      add\n        /* \"#utility.yul\":3915:3944   */\n      mload\n        /* \"#utility.yul\":3897:3908   */\n      dup7\n      dup4\n      add\n        /* \"#utility.yul\":3893:3913   */\n      dup3\n      add\n        /* \"#utility.yul\":3886:3945   */\n      mstore\n        /* \"#utility.yul\":3822:3834   */\n      add\n        /* \"#utility.yul\":3793:3955   */\n      jump(tag_178)\n    tag_180:\n        /* \"#utility.yul\":3797:3800   */\n      pop\n        /* \"#utility.yul\":4000:4001   */\n      0x00\n        /* \"#utility.yul\":3993:3997   */\n      0x20\n        /* \"#utility.yul\":3984:3990   */\n      dup3\n        /* \"#utility.yul\":3979:3982   */\n      dup7\n        /* \"#utility.yul\":3975:3991   */\n      add\n        /* \"#utility.yul\":3971:3998   */\n      add\n        /* \"#utility.yul\":3964:4002   */\n      mstore\n        /* \"#utility.yul\":4063:4067   */\n      0x20\n        /* \"#utility.yul\":4056:4058   */\n      0x1f\n        /* \"#utility.yul\":4052:4059   */\n      not\n        /* \"#utility.yul\":4047:4049   */\n      0x1f\n        /* \"#utility.yul\":4039:4045   */\n      dup4\n        /* \"#utility.yul\":4035:4050   */\n      add\n        /* \"#utility.yul\":4031:4060   */\n      and\n        /* \"#utility.yul\":4026:4029   */\n      dup6\n        /* \"#utility.yul\":4022:4061   */\n      add\n        /* \"#utility.yul\":4018:4068   */\n      add\n        /* \"#utility.yul\":4011:4068   */\n      swap2\n      pop\n      pop\n        /* \"#utility.yul\":3651:4074   */\n      swap3\n      swap2\n      pop\n      pop\n      jump\t// out\n        /* \"#utility.yul\":4175:5069   */\n    tag_35:\n        /* \"#utility.yul\":4497:4501   */\n      0x00\n        /* \"#utility.yul\":4526:4529   */\n      0x0100\n      sub(shl(0xa0, 0x01), 0x01)\n        /* \"#utility.yul\":4560:4566   */\n      dup12\n        /* \"#utility.yul\":4556:4611   */\n      and\n        /* \"#utility.yul\":4545:4554   */\n      dup4\n        /* \"#utility.yul\":4538:4612   */\n      mstore\n        /* \"#utility.yul\":4648:4650   */\n      dup1\n        /* \"#utility.yul\":4643:4645   */\n      0x20\n        /* \"#utility.yul\":4632:4641   */\n      dup5\n        /* \"#utility.yul\":4628:4646   */\n      add\n        /* \"#utility.yul\":4621:4651   */\n      mstore\n        /* \"#utility.yul\":4674:4719   */\n      tag_183\n        /* \"#utility.yul\":4715:4717   */\n      dup2\n        /* \"#utility.yul\":4704:4713   */\n      dup5\n        /* \"#utility.yul\":4700:4718   */\n      add\n        /* \"#utility.yul\":4692:4698   */\n      dup12\n        /* \"#utility.yul\":4674:4719   */\n      tag_141\n      jump\t// in\n    tag_183:\n        /* \"#utility.yul\":4660:4719   */\n      swap1\n      pop\n        /* \"#utility.yul\":4767:4776   */\n      dup3\n        /* \"#utility.yul\":4759:4765   */\n      dup2\n        /* \"#utility.yul\":4755:4777   */\n      sub\n        /* \"#utility.yul\":4750:4752   */\n      0x40\n        /* \"#utility.yul\":4739:4748   */\n      dup5\n        /* \"#utility.yul\":4735:4753   */\n      add\n        /* \"#utility.yul\":4728:4778   */\n      mstore\n        /* \"#utility.yul\":4795:4828   */\n      tag_184\n        /* \"#utility.yul\":4821:4827   */\n      dup2\n        /* \"#utility.yul\":4813:4819   */\n      dup11\n        /* \"#utility.yul\":4795:4828   */\n      tag_141\n      jump\t// in\n    tag_184:\n        /* \"#utility.yul\":4859:4861   */\n      0x60\n        /* \"#utility.yul\":4844:4862   */\n      dup5\n      add\n        /* \"#utility.yul\":4837:4871   */\n      swap9\n      swap1\n      swap9\n      mstore\n      pop\n      pop\n        /* \"#utility.yul\":4902:4905   */\n      0x80\n        /* \"#utility.yul\":4887:4906   */\n      dup2\n      add\n        /* \"#utility.yul\":4880:4915   */\n      swap5\n      swap1\n      swap5\n      mstore\n        /* \"#utility.yul\":4946:4949   */\n      0xa0\n        /* \"#utility.yul\":4931:4950   */\n      dup5\n      add\n        /* \"#utility.yul\":4924:4959   */\n      swap3\n      swap1\n      swap3\n      mstore\n        /* \"#utility.yul\":5003:5017   */\n      iszero\n        /* \"#utility.yul\":4996:5018   */\n      iszero\n        /* \"#utility.yul\":4990:4993   */\n      0xc0\n        /* \"#utility.yul\":4975:4994   */\n      dup4\n      add\n        /* \"#utility.yul\":4968:5019   */\n      mstore\n        /* \"#utility.yul\":5050:5053   */\n      0xe0\n        /* \"#utility.yul\":5035:5054   */\n      swap1\n      swap2\n      add\n        /* \"#utility.yul\":5028:5063   */\n      mstore\n        /* \"#utility.yul\":4787:4828   */\n      swap4\n        /* \"#utility.yul\":4175:5069   */\n      swap3\n      pop\n      pop\n      pop\n      jump\t// out\n        /* \"#utility.yul\":5074:5558   */\n    tag_143:\n        /* \"#utility.yul\":5127:5130   */\n      0x00\n        /* \"#utility.yul\":5165:5170   */\n      dup2\n        /* \"#utility.yul\":5159:5171   */\n      mload\n        /* \"#utility.yul\":5192:5198   */\n      dup1\n        /* \"#utility.yul\":5187:5190   */\n      dup5\n        /* \"#utility.yul\":5180:5199   */\n      mstore\n        /* \"#utility.yul\":5218:5222   */\n      0x20\n        /* \"#utility.yul\":5247:5249   */\n      dup1\n        /* \"#utility.yul\":5242:5245   */\n      dup6\n        /* \"#utility.yul\":5238:5250   */\n      add\n        /* \"#utility.yul\":5231:5250   */\n      swap5\n      pop\n        /* \"#utility.yul\":5284:5286   */\n      dup1\n        /* \"#utility.yul\":5277:5282   */\n      dup5\n        /* \"#utility.yul\":5273:5287   */\n      add\n        /* \"#utility.yul\":5305:5306   */\n      0x00\n        /* \"#utility.yul\":5315:5533   */\n    tag_186:\n        /* \"#utility.yul\":5329:5335   */\n      dup4\n        /* \"#utility.yul\":5326:5327   */\n      dup2\n        /* \"#utility.yul\":5323:5336   */\n      lt\n        /* \"#utility.yul\":5315:5533   */\n      iszero\n      tag_188\n      jumpi\n        /* \"#utility.yul\":5394:5407   */\n      dup2\n      mload\n      sub(shl(0xa0, 0x01), 0x01)\n        /* \"#utility.yul\":5390:5452   */\n      and\n        /* \"#utility.yul\":5378:5453   */\n      dup8\n      mstore\n        /* \"#utility.yul\":5473:5485   */\n      swap6\n      dup3\n      add\n      swap6\n        /* \"#utility.yul\":5508:5523   */\n      swap1\n      dup3\n      add\n      swap1\n        /* \"#utility.yul\":5351:5352   */\n      0x01\n        /* \"#utility.yul\":5344:5353   */\n      add\n        /* \"#utility.yul\":5315:5533   */\n      jump(tag_186)\n    tag_188:\n      pop\n        /* \"#utility.yul\":5549:5552   */\n      swap5\n      swap6\n        /* \"#utility.yul\":5074:5558   */\n      swap5\n      pop\n      pop\n      pop\n      pop\n      pop\n      jump\t// out\n        /* \"#utility.yul\":5563:5998   */\n    tag_144:\n        /* \"#utility.yul\":5616:5619   */\n      0x00\n        /* \"#utility.yul\":5654:5659   */\n      dup2\n        /* \"#utility.yul\":5648:5660   */\n      mload\n        /* \"#utility.yul\":5681:5687   */\n      dup1\n        /* \"#utility.yul\":5676:5679   */\n      dup5\n        /* \"#utility.yul\":5669:5688   */\n      mstore\n        /* \"#utility.yul\":5707:5711   */\n      0x20\n        /* \"#utility.yul\":5736:5738   */\n      dup1\n        /* \"#utility.yul\":5731:5734   */\n      dup6\n        /* \"#utility.yul\":5727:5739   */\n      add\n        /* \"#utility.yul\":5720:5739   */\n      swap5\n      pop\n        /* \"#utility.yul\":5773:5775   */\n      dup1\n        /* \"#utility.yul\":5766:5771   */\n      dup5\n        /* \"#utility.yul\":5762:5776   */\n      add\n        /* \"#utility.yul\":5794:5795   */\n      0x00\n        /* \"#utility.yul\":5804:5973   */\n    tag_190:\n        /* \"#utility.yul\":5818:5824   */\n      dup4\n        /* \"#utility.yul\":5815:5816   */\n      dup2\n        /* \"#utility.yul\":5812:5825   */\n      lt\n        /* \"#utility.yul\":5804:5973   */\n      iszero\n      tag_188\n      jumpi\n        /* \"#utility.yul\":5879:5892   */\n      dup2\n      mload\n        /* \"#utility.yul\":5867:5893   */\n      dup8\n      mstore\n        /* \"#utility.yul\":5913:5925   */\n      swap6\n      dup3\n      add\n      swap6\n        /* \"#utility.yul\":5948:5963   */\n      swap1\n      dup3\n      add\n      swap1\n        /* \"#utility.yul\":5840:5841   */\n      0x01\n        /* \"#utility.yul\":5833:5842   */\n      add\n        /* \"#utility.yul\":5804:5973   */\n      jump(tag_190)\n        /* \"#utility.yul\":6003:8195   */\n    tag_47:\n        /* \"#utility.yul\":6193:6197   */\n      0x00\n        /* \"#utility.yul\":6222:6224   */\n      0x20\n        /* \"#utility.yul\":6262:6264   */\n      dup1\n        /* \"#utility.yul\":6251:6260   */\n      dup4\n        /* \"#utility.yul\":6247:6265   */\n      add\n        /* \"#utility.yul\":6292:6294   */\n      dup2\n        /* \"#utility.yul\":6281:6290   */\n      dup5\n        /* \"#utility.yul\":6274:6295   */\n      mstore\n        /* \"#utility.yul\":6315:6321   */\n      dup1\n        /* \"#utility.yul\":6350:6356   */\n      dup6\n        /* \"#utility.yul\":6344:6357   */\n      mload\n        /* \"#utility.yul\":6381:6387   */\n      dup1\n        /* \"#utility.yul\":6373:6379   */\n      dup4\n        /* \"#utility.yul\":6366:6388   */\n      mstore\n        /* \"#utility.yul\":6407:6409   */\n      0x40\n        /* \"#utility.yul\":6397:6409   */\n      swap3\n      pop\n        /* \"#utility.yul\":6440:6442   */\n      dup3\n        /* \"#utility.yul\":6429:6438   */\n      dup7\n        /* \"#utility.yul\":6425:6443   */\n      add\n        /* \"#utility.yul\":6418:6443   */\n      swap2\n      pop\n        /* \"#utility.yul\":6502:6504   */\n      dup3\n        /* \"#utility.yul\":6492:6498   */\n      dup2\n        /* \"#utility.yul\":6489:6490   */\n      0x05\n        /* \"#utility.yul\":6485:6499   */\n      shl\n        /* \"#utility.yul\":6474:6483   */\n      dup8\n        /* \"#utility.yul\":6470:6500   */\n      add\n        /* \"#utility.yul\":6466:6505   */\n      add\n        /* \"#utility.yul\":6540:6542   */\n      dup5\n        /* \"#utility.yul\":6532:6538   */\n      dup9\n        /* \"#utility.yul\":6528:6543   */\n      add\n        /* \"#utility.yul\":6561:6562   */\n      0x00\n        /* \"#utility.yul\":6571:8166   */\n    tag_194:\n        /* \"#utility.yul\":6585:6591   */\n      dup4\n        /* \"#utility.yul\":6582:6583   */\n      dup2\n        /* \"#utility.yul\":6579:6592   */\n      lt\n        /* \"#utility.yul\":6571:8166   */\n      iszero\n      tag_196\n      jumpi\n        /* \"#utility.yul\":6650:6672   */\n      dup9\n      dup4\n      sub\n      not(0x3f)\n        /* \"#utility.yul\":6646:6682   */\n      add\n        /* \"#utility.yul\":6634:6683   */\n      dup6\n      mstore\n        /* \"#utility.yul\":6706:6719   */\n      dup2\n      mload\n        /* \"#utility.yul\":6780:6789   */\n      dup1\n      mload\n      sub(shl(0xa0, 0x01), 0x01)\n        /* \"#utility.yul\":2379:2433   */\n      and\n        /* \"#utility.yul\":2367:2434   */\n      dup5\n      mstore\n        /* \"#utility.yul\":6742:6748   */\n      0x0140\n        /* \"#utility.yul\":6845:6847   */\n      dup9\n        /* \"#utility.yul\":6841:6843   */\n      dup3\n        /* \"#utility.yul\":6837:6848   */\n      add\n        /* \"#utility.yul\":6831:6849   */\n      mload\n        /* \"#utility.yul\":6886:6888   */\n      dup2\n        /* \"#utility.yul\":6881:6883   */\n      dup11\n        /* \"#utility.yul\":6873:6879   */\n      dup8\n        /* \"#utility.yul\":6869:6884   */\n      add\n        /* \"#utility.yul\":6862:6889   */\n      mstore\n        /* \"#utility.yul\":6916:6964   */\n      tag_198\n        /* \"#utility.yul\":6960:6962   */\n      dup3\n        /* \"#utility.yul\":6952:6958   */\n      dup8\n        /* \"#utility.yul\":6948:6963   */\n      add\n        /* \"#utility.yul\":6934:6946   */\n      dup3\n        /* \"#utility.yul\":6916:6964   */\n      tag_141\n      jump\t// in\n    tag_198:\n        /* \"#utility.yul\":6902:6964   */\n      swap2\n      pop\n      pop\n        /* \"#utility.yul\":7013:7015   */\n      dup8\n        /* \"#utility.yul\":7009:7011   */\n      dup3\n        /* \"#utility.yul\":7005:7016   */\n      add\n        /* \"#utility.yul\":6999:7017   */\n      mload\n        /* \"#utility.yul\":7066:7072   */\n      dup6\n        /* \"#utility.yul\":7058:7064   */\n      dup3\n        /* \"#utility.yul\":7054:7073   */\n      sub\n        /* \"#utility.yul\":7049:7051   */\n      dup10\n        /* \"#utility.yul\":7041:7047   */\n      dup8\n        /* \"#utility.yul\":7037:7052   */\n      add\n        /* \"#utility.yul\":7030:7074   */\n      mstore\n        /* \"#utility.yul\":7101:7142   */\n      tag_199\n        /* \"#utility.yul\":7135:7141   */\n      dup3\n        /* \"#utility.yul\":7119:7133   */\n      dup3\n        /* \"#utility.yul\":7101:7142   */\n      tag_141\n      jump\t// in\n    tag_199:\n        /* \"#utility.yul\":7165:7169   */\n      0x60\n        /* \"#utility.yul\":7212:7223   */\n      dup5\n      dup2\n      add\n        /* \"#utility.yul\":7206:7224   */\n      mload\n        /* \"#utility.yul\":7189:7204   */\n      swap1\n      dup9\n      add\n        /* \"#utility.yul\":7182:7225   */\n      mstore\n        /* \"#utility.yul\":7248:7252   */\n      0x80\n        /* \"#utility.yul\":7295:7306   */\n      dup1\n      dup6\n      add\n        /* \"#utility.yul\":7289:7307   */\n      mload\n        /* \"#utility.yul\":7272:7287   */\n      swap1\n      dup9\n      add\n        /* \"#utility.yul\":7265:7308   */\n      mstore\n        /* \"#utility.yul\":7331:7335   */\n      0xa0\n        /* \"#utility.yul\":7378:7389   */\n      dup1\n      dup6\n      add\n        /* \"#utility.yul\":7372:7390   */\n      mload\n        /* \"#utility.yul\":7355:7370   */\n      swap1\n      dup9\n      add\n        /* \"#utility.yul\":7348:7391   */\n      mstore\n        /* \"#utility.yul\":7414:7418   */\n      0xc0\n        /* \"#utility.yul\":7459:7470   */\n      dup1\n      dup6\n      add\n        /* \"#utility.yul\":7453:7471   */\n      mload\n        /* \"#utility.yul\":7508:7527   */\n      dup9\n      dup4\n      sub\n        /* \"#utility.yul\":7491:7506   */\n      dup3\n      dup11\n      add\n        /* \"#utility.yul\":7484:7528   */\n      mstore\n        /* \"#utility.yul\":7087:7142   */\n      swap2\n      swap4\n      pop\n        /* \"#utility.yul\":7414:7418   */\n      swap2\n      pop\n        /* \"#utility.yul\":7555:7607   */\n      tag_200\n        /* \"#utility.yul\":7087:7142   */\n      dup4\n        /* \"#utility.yul\":7453:7471   */\n      dup3\n        /* \"#utility.yul\":7555:7607   */\n      tag_143\n      jump\t// in\n    tag_200:\n        /* \"#utility.yul\":7541:7607   */\n      swap3\n      pop\n      pop\n      pop\n        /* \"#utility.yul\":7630:7634   */\n      0xe0\n        /* \"#utility.yul\":7683:7685   */\n      dup1\n        /* \"#utility.yul\":7679:7681   */\n      dup4\n        /* \"#utility.yul\":7675:7686   */\n      add\n        /* \"#utility.yul\":7669:7687   */\n      mload\n        /* \"#utility.yul\":7736:7742   */\n      dup7\n        /* \"#utility.yul\":7728:7734   */\n      dup4\n        /* \"#utility.yul\":7724:7743   */\n      sub\n        /* \"#utility.yul\":7719:7721   */\n      dup3\n        /* \"#utility.yul\":7711:7717   */\n      dup9\n        /* \"#utility.yul\":7707:7722   */\n      add\n        /* \"#utility.yul\":7700:7744   */\n      mstore\n        /* \"#utility.yul\":7771:7823   */\n      tag_201\n        /* \"#utility.yul\":7816:7822   */\n      dup4\n        /* \"#utility.yul\":7800:7814   */\n      dup3\n        /* \"#utility.yul\":7771:7823   */\n      tag_144\n      jump\t// in\n    tag_201:\n        /* \"#utility.yul\":7757:7823   */\n      swap3\n      pop\n      pop\n      pop\n        /* \"#utility.yul\":7847:7853   */\n      0x0100\n        /* \"#utility.yul\":7902:7905   */\n      dup1\n        /* \"#utility.yul\":7898:7900   */\n      dup4\n        /* \"#utility.yul\":7894:7906   */\n      add\n        /* \"#utility.yul\":7888:7907   */\n      mload\n        /* \"#utility.yul\":7920:7969   */\n      tag_202\n        /* \"#utility.yul\":7964:7967   */\n      dup3\n        /* \"#utility.yul\":7956:7962   */\n      dup9\n        /* \"#utility.yul\":7952:7968   */\n      add\n        /* \"#utility.yul\":7936:7950   */\n      dup3\n        /* \"#utility.yul\":4149:4162   */\n      iszero\n        /* \"#utility.yul\":4142:4163   */\n      iszero\n        /* \"#utility.yul\":4130:4164   */\n      swap1\n      mstore\n        /* \"#utility.yul\":4079:4170   */\n      jump\n        /* \"#utility.yul\":7920:7969   */\n    tag_202:\n      pop\n      pop\n        /* \"#utility.yul\":7993:7999   */\n      0x0120\n        /* \"#utility.yul\":8043:8055   */\n      swap2\n      dup3\n      add\n        /* \"#utility.yul\":8037:8056   */\n      mload\n        /* \"#utility.yul\":8019:8035   */\n      swap5\n      swap1\n      swap2\n      add\n        /* \"#utility.yul\":8012:8057   */\n      swap4\n      swap1\n      swap4\n      mstore\n        /* \"#utility.yul\":8144:8156   */\n      swap4\n      dup7\n      add\n      swap4\n        /* \"#utility.yul\":8109:8124   */\n      swap1\n      dup7\n      add\n      swap1\n        /* \"#utility.yul\":6607:6608   */\n      0x01\n        /* \"#utility.yul\":6600:6609   */\n      add\n        /* \"#utility.yul\":6571:8166   */\n      jump(tag_194)\n    tag_196:\n      pop\n        /* \"#utility.yul\":8183:8189   */\n      swap1\n      swap9\n        /* \"#utility.yul\":6003:8195   */\n      swap8\n      pop\n      pop\n      pop\n      pop\n      pop\n      pop\n      pop\n      pop\n      jump\t// out\n        /* \"#utility.yul\":8613:8993   */\n    tag_70:\n        /* \"#utility.yul\":8692:8693   */\n      0x01\n        /* \"#utility.yul\":8688:8700   */\n      dup2\n      dup2\n      shr\n      swap1\n        /* \"#utility.yul\":8735:8747   */\n      dup3\n      and\n      dup1\n        /* \"#utility.yul\":8756:8817   */\n      tag_205\n      jumpi\n        /* \"#utility.yul\":8810:8814   */\n      0x7f\n        /* \"#utility.yul\":8802:8808   */\n      dup3\n        /* \"#utility.yul\":8798:8815   */\n      and\n        /* \"#utility.yul\":8788:8815   */\n      swap2\n      pop\n        /* \"#utility.yul\":8756:8817   */\n    tag_205:\n        /* \"#utility.yul\":8863:8865   */\n      0x20\n        /* \"#utility.yul\":8855:8861   */\n      dup3\n        /* \"#utility.yul\":8852:8866   */\n      lt\n        /* \"#utility.yul\":8832:8850   */\n      dup2\n        /* \"#utility.yul\":8829:8867   */\n      sub\n        /* \"#utility.yul\":8826:8987   */\n      tag_111\n      jumpi\n        /* \"#utility.yul\":8909:8919   */\n      0x4e487b71\n        /* \"#utility.yul\":8904:8907   */\n      0xe0\n        /* \"#utility.yul\":8900:8920   */\n      shl\n        /* \"#utility.yul\":8897:8898   */\n      0x00\n        /* \"#utility.yul\":8890:8921   */\n      mstore\n        /* \"#utility.yul\":8944:8948   */\n      0x22\n        /* \"#utility.yul\":8941:8942   */\n      0x04\n        /* \"#utility.yul\":8934:8949   */\n      mstore\n        /* \"#utility.yul\":8972:8976   */\n      0x24\n        /* \"#utility.yul\":8969:8970   */\n      0x00\n        /* \"#utility.yul\":8962:8977   */\n      revert\n        /* \"#utility.yul\":9124:9669   */\n    tag_146:\n        /* \"#utility.yul\":9226:9228   */\n      0x1f\n        /* \"#utility.yul\":9221:9224   */\n      dup3\n        /* \"#utility.yul\":9218:9229   */\n      gt\n        /* \"#utility.yul\":9215:9663   */\n      iszero\n      tag_209\n      jumpi\n        /* \"#utility.yul\":9262:9263   */\n      0x00\n        /* \"#utility.yul\":9287:9292   */\n      dup2\n        /* \"#utility.yul\":9283:9285   */\n      dup2\n        /* \"#utility.yul\":9276:9293   */\n      mstore\n        /* \"#utility.yul\":9332:9336   */\n      0x20\n        /* \"#utility.yul\":9328:9330   */\n      dup2\n        /* \"#utility.yul\":9318:9337   */\n      keccak256\n        /* \"#utility.yul\":9402:9404   */\n      0x1f\n        /* \"#utility.yul\":9390:9400   */\n      dup6\n        /* \"#utility.yul\":9386:9405   */\n      add\n        /* \"#utility.yul\":9383:9384   */\n      0x05\n        /* \"#utility.yul\":9379:9406   */\n      shr\n        /* \"#utility.yul\":9373:9377   */\n      dup2\n        /* \"#utility.yul\":9369:9407   */\n      add\n        /* \"#utility.yul\":9438:9442   */\n      0x20\n        /* \"#utility.yul\":9426:9436   */\n      dup7\n        /* \"#utility.yul\":9423:9443   */\n      lt\n        /* \"#utility.yul\":9420:9467   */\n      iszero\n      tag_210\n      jumpi\n      pop\n        /* \"#utility.yul\":9461:9465   */\n      dup1\n        /* \"#utility.yul\":9420:9467   */\n    tag_210:\n        /* \"#utility.yul\":9516:9518   */\n      0x1f\n        /* \"#utility.yul\":9511:9514   */\n      dup6\n        /* \"#utility.yul\":9507:9519   */\n      add\n        /* \"#utility.yul\":9504:9505   */\n      0x05\n        /* \"#utility.yul\":9500:9520   */\n      shr\n        /* \"#utility.yul\":9494:9498   */\n      dup3\n        /* \"#utility.yul\":9490:9521   */\n      add\n        /* \"#utility.yul\":9480:9521   */\n      swap2\n      pop\n        /* \"#utility.yul\":9571:9653   */\n    tag_211:\n        /* \"#utility.yul\":9589:9591   */\n      dup2\n        /* \"#utility.yul\":9582:9587   */\n      dup2\n        /* \"#utility.yul\":9579:9592   */\n      lt\n        /* \"#utility.yul\":9571:9653   */\n      iszero\n      tag_213\n      jumpi\n        /* \"#utility.yul\":9634:9651   */\n      dup3\n      dup2\n      sstore\n        /* \"#utility.yul\":9615:9616   */\n      0x01\n        /* \"#utility.yul\":9604:9617   */\n      add\n        /* \"#utility.yul\":9571:9653   */\n      jump(tag_211)\n    tag_213:\n        /* \"#utility.yul\":9575:9578   */\n      pop\n      pop\n      pop\n        /* \"#utility.yul\":9215:9663   */\n    tag_209:\n        /* \"#utility.yul\":9124:9669   */\n      pop\n      pop\n      pop\n      jump\t// out\n        /* \"#utility.yul\":9845:11197   */\n    tag_58:\n        /* \"#utility.yul\":9971:9974   */\n      dup2\n        /* \"#utility.yul\":9965:9975   */\n      mload\n        /* \"#utility.yul\":9998:10016   */\n      0xffffffffffffffff\n        /* \"#utility.yul\":9990:9996   */\n      dup2\n        /* \"#utility.yul\":9987:10017   */\n      gt\n        /* \"#utility.yul\":9984:10040   */\n      iszero\n      tag_217\n      jumpi\n        /* \"#utility.yul\":10020:10038   */\n      tag_217\n      tag_105\n      jump\t// in\n    tag_217:\n        /* \"#utility.yul\":10049:10146   */\n      tag_218\n        /* \"#utility.yul\":10139:10145   */\n      dup2\n        /* \"#utility.yul\":10099:10137   */\n      tag_219\n        /* \"#utility.yul\":10131:10135   */\n      dup5\n        /* \"#utility.yul\":10125:10136   */\n      sload\n        /* \"#utility.yul\":10099:10137   */\n      tag_70\n      jump\t// in\n    tag_219:\n        /* \"#utility.yul\":10093:10097   */\n      dup5\n        /* \"#utility.yul\":10049:10146   */\n      tag_146\n      jump\t// in\n    tag_218:\n        /* \"#utility.yul\":10201:10205   */\n      0x20\n      dup1\n        /* \"#utility.yul\":10265:10267   */\n      0x1f\n        /* \"#utility.yul\":10254:10268   */\n      dup4\n      gt\n        /* \"#utility.yul\":10282:10283   */\n      0x01\n        /* \"#utility.yul\":10277:10940   */\n      dup2\n      eq\n      tag_221\n      jumpi\n        /* \"#utility.yul\":10984:10985   */\n      0x00\n        /* \"#utility.yul\":11001:11007   */\n      dup5\n        /* \"#utility.yul\":10998:11087   */\n      iszero\n      tag_222\n      jumpi\n      pop\n        /* \"#utility.yul\":11053:11072   */\n      dup6\n      dup4\n      add\n        /* \"#utility.yul\":11047:11073   */\n      mload\n        /* \"#utility.yul\":10998:11087   */\n    tag_222:\n      not(0x00)\n        /* \"#utility.yul\":9802:9803   */\n      0x03\n        /* \"#utility.yul\":9798:9809   */\n      dup7\n      swap1\n      shl\n        /* \"#utility.yul\":9794:9818   */\n      shr\n        /* \"#utility.yul\":9790:9819   */\n      not\n        /* \"#utility.yul\":9780:9820   */\n      and\n        /* \"#utility.yul\":9826:9827   */\n      0x01\n        /* \"#utility.yul\":9822:9833   */\n      dup6\n      swap1\n      shl\n        /* \"#utility.yul\":9777:9834   */\n      or\n        /* \"#utility.yul\":11100:11181   */\n      dup6\n      sstore\n        /* \"#utility.yul\":10247:11191   */\n      jump(tag_213)\n        /* \"#utility.yul\":10277:10940   */\n    tag_221:\n        /* \"#utility.yul\":9071:9072   */\n      0x00\n        /* \"#utility.yul\":9064:9078   */\n      dup6\n      dup2\n      mstore\n        /* \"#utility.yul\":9108:9112   */\n      0x20\n        /* \"#utility.yul\":9095:9113   */\n      dup2\n      keccak256\n      not(0x1f)\n        /* \"#utility.yul\":10313:10333   */\n      dup7\n      and\n      swap2\n        /* \"#utility.yul\":10431:10667   */\n    tag_225:\n        /* \"#utility.yul\":10445:10452   */\n      dup3\n        /* \"#utility.yul\":10442:10443   */\n      dup2\n        /* \"#utility.yul\":10439:10453   */\n      lt\n        /* \"#utility.yul\":10431:10667   */\n      iszero\n      tag_227\n      jumpi\n        /* \"#utility.yul\":10534:10553   */\n      dup9\n      dup7\n      add\n        /* \"#utility.yul\":10528:10554   */\n      mload\n        /* \"#utility.yul\":10513:10555   */\n      dup3\n      sstore\n        /* \"#utility.yul\":10626:10653   */\n      swap5\n      dup5\n      add\n      swap5\n        /* \"#utility.yul\":10594:10595   */\n      0x01\n        /* \"#utility.yul\":10582:10596   */\n      swap1\n      swap2\n      add\n      swap1\n        /* \"#utility.yul\":10461:10480   */\n      dup5\n      add\n        /* \"#utility.yul\":10431:10667   */\n      jump(tag_225)\n    tag_227:\n        /* \"#utility.yul\":10435:10438   */\n      pop\n        /* \"#utility.yul\":10695:10701   */\n      dup6\n        /* \"#utility.yul\":10686:10693   */\n      dup3\n        /* \"#utility.yul\":10683:10702   */\n      lt\n        /* \"#utility.yul\":10680:10881   */\n      iszero\n      tag_228\n      jumpi\n        /* \"#utility.yul\":10756:10775   */\n      dup8\n      dup6\n      add\n        /* \"#utility.yul\":10750:10776   */\n      mload\n      not(0x00)\n        /* \"#utility.yul\":10839:10840   */\n      0x03\n        /* \"#utility.yul\":10835:10849   */\n      dup9\n      swap1\n      shl\n        /* \"#utility.yul\":10851:10854   */\n      0xf8\n        /* \"#utility.yul\":10831:10855   */\n      and\n        /* \"#utility.yul\":10827:10864   */\n      shr\n        /* \"#utility.yul\":10823:10865   */\n      not\n        /* \"#utility.yul\":10808:10866   */\n      and\n        /* \"#utility.yul\":10793:10867   */\n      dup2\n      sstore\n        /* \"#utility.yul\":10680:10881   */\n    tag_228:\n      pop\n      pop\n      pop\n      pop\n      pop\n        /* \"#utility.yul\":10927:10928   */\n      0x01\n        /* \"#utility.yul\":10911:10925   */\n      swap1\n      dup2\n      shl\n        /* \"#utility.yul\":10907:10929   */\n      add\n        /* \"#utility.yul\":10894:10930   */\n      swap1\n      sstore\n      pop\n        /* \"#utility.yul\":9845:11197   */\n      jump\t// out\n        /* \"#utility.yul\":11202:11329   */\n    tag_148:\n        /* \"#utility.yul\":11263:11273   */\n      0x4e487b71\n        /* \"#utility.yul\":11258:11261   */\n      0xe0\n        /* \"#utility.yul\":11254:11274   */\n      shl\n        /* \"#utility.yul\":11251:11252   */\n      0x00\n        /* \"#utility.yul\":11244:11275   */\n      mstore\n        /* \"#utility.yul\":11294:11298   */\n      0x11\n        /* \"#utility.yul\":11291:11292   */\n      0x04\n        /* \"#utility.yul\":11284:11299   */\n      mstore\n        /* \"#utility.yul\":11318:11322   */\n      0x24\n        /* \"#utility.yul\":11315:11316   */\n      0x00\n        /* \"#utility.yul\":11308:11323   */\n      revert\n        /* \"#utility.yul\":11334:11531   */\n    tag_61:\n        /* \"#utility.yul\":11372:11375   */\n      0x00\n        /* \"#utility.yul\":11400:11406   */\n      0xffff\n        /* \"#utility.yul\":11441:11443   */\n      dup1\n        /* \"#utility.yul\":11434:11439   */\n      dup4\n        /* \"#utility.yul\":11430:11444   */\n      and\n        /* \"#utility.yul\":11468:11470   */\n      dup2\n        /* \"#utility.yul\":11459:11466   */\n      dup2\n        /* \"#utility.yul\":11456:11471   */\n      sub\n        /* \"#utility.yul\":11453:11494   */\n      tag_232\n      jumpi\n        /* \"#utility.yul\":11474:11492   */\n      tag_232\n      tag_148\n      jump\t// in\n    tag_232:\n        /* \"#utility.yul\":11523:11524   */\n      0x01\n        /* \"#utility.yul\":11510:11525   */\n      add\n      swap4\n        /* \"#utility.yul\":11334:11531   */\n      swap3\n      pop\n      pop\n      pop\n      jump\t// out\n        /* \"#utility.yul\":11536:11707   */\n    tag_63:\n        /* \"#utility.yul\":11604:11610   */\n      0xffff\n        /* \"#utility.yul\":11643:11653   */\n      dup3\n      dup2\n      and\n        /* \"#utility.yul\":11631:11641   */\n      dup3\n      dup3\n      and\n        /* \"#utility.yul\":11627:11654   */\n      sub\n      swap1\n        /* \"#utility.yul\":11666:11678   */\n      dup1\n      dup3\n      gt\n        /* \"#utility.yul\":11663:11701   */\n      iszero\n      tag_235\n      jumpi\n        /* \"#utility.yul\":11681:11699   */\n      tag_235\n      tag_148\n      jump\t// in\n    tag_235:\n        /* \"#utility.yul\":11663:11701   */\n      pop\n        /* \"#utility.yul\":11536:11707   */\n      swap3\n      swap2\n      pop\n      pop\n      jump\t// out\n        /* \"#utility.yul\":13098:13223   */\n    tag_99:\n        /* \"#utility.yul\":13163:13172   */\n      dup1\n      dup3\n      add\n        /* \"#utility.yul\":13184:13194   */\n      dup1\n      dup3\n      gt\n        /* \"#utility.yul\":13181:13217   */\n      iszero\n      tag_242\n      jumpi\n        /* \"#utility.yul\":13197:13215   */\n      tag_242\n      tag_148\n      jump\t// in\n    tag_242:\n        /* \"#utility.yul\":13098:13223   */\n      swap3\n      swap2\n      pop\n      pop\n      jump\t// out\n        /* \"#utility.yul\":13228:13355   */\n    tag_129:\n        /* \"#utility.yul\":13289:13299   */\n      0x4e487b71\n        /* \"#utility.yul\":13284:13287   */\n      0xe0\n        /* \"#utility.yul\":13280:13300   */\n      shl\n        /* \"#utility.yul\":13277:13278   */\n      0x00\n        /* \"#utility.yul\":13270:13301   */\n      mstore\n        /* \"#utility.yul\":13320:13324   */\n      0x32\n        /* \"#utility.yul\":13317:13318   */\n      0x04\n        /* \"#utility.yul\":13310:13325   */\n      mstore\n        /* \"#utility.yul\":13344:13348   */\n      0x24\n        /* \"#utility.yul\":13341:13342   */\n      0x00\n        /* \"#utility.yul\":13334:13349   */\n      revert\n        /* \"#utility.yul\":13360:13495   */\n    tag_131:\n        /* \"#utility.yul\":13399:13402   */\n      0x00\n        /* \"#utility.yul\":13420:13437   */\n      0x01\n      dup3\n      add\n        /* \"#utility.yul\":13417:13460   */\n      tag_246\n      jumpi\n        /* \"#utility.yul\":13440:13458   */\n      tag_246\n      tag_148\n      jump\t// in\n    tag_246:\n      pop\n        /* \"#utility.yul\":13487:13488   */\n      0x01\n        /* \"#utility.yul\":13476:13489   */\n      add\n      swap1\n        /* \"#utility.yul\":13360:13495   */\n      jump\t// out\n        /* \"#utility.yul\":13500:13628   */\n    tag_138:\n        /* \"#utility.yul\":13567:13576   */\n      dup2\n      dup2\n      sub\n        /* \"#utility.yul\":13588:13599   */\n      dup2\n      dup2\n      gt\n        /* \"#utility.yul\":13585:13622   */\n      iszero\n      tag_242\n      jumpi\n        /* \"#utility.yul\":13602:13620   */\n      tag_242\n      tag_148\n      jump\t// in\n\n    auxdata: 0xa264697066735822122037699cc9705ba50d429d57e3abbfb44271f548b69f2564f3ef4528f7ca01146564736f6c63430008110033\n}\n",
    "bytecode": {
      "linkReferences": {},
      "object": "60806040526001805461ffff1916905534801561001b57600080fd5b506111ab8061002b6000396000f3fe60806040526004361061007b5760003560e01c806342a4fda81161004e57806342a4fda814610143578063557ed1ba14610158578063a6b036331461016b578063e8c587631461018d57600080fd5b8063075843c31461008057806307ca140d146100b35780630fa91fa9146100e1578063141961bc1461010f575b600080fd5b34801561008c57600080fd5b506100a061009b366004610c1b565b6101ad565b6040519081526020015b60405180910390f35b3480156100bf57600080fd5b506001546100ce9061ffff1681565b60405161ffff90911681526020016100aa565b3480156100ed57600080fd5b506101016100fc366004610caf565b610302565b6040516100aa929190610cc8565b34801561011b57600080fd5b5061012f61012a366004610caf565b6103d1565b6040516100aa989796959493929190610d92565b610156610151366004610caf565b610531565b005b34801561016457600080fd5b50426100a0565b34801561017757600080fd5b50610180610753565b6040516100aa9190610e6b565b34801561019957600080fd5b506100a06101a8366004610caf565b610a9d565b60015461ffff166000908152602081905260408120600481015442116102405760405162461bcd60e51b815260206004820152602c60248201527f54686520646561646c696e652073686f756c642062652061206461746520696e60448201527f20746865206675747572652e000000000000000000000000000000000000000060648201526084015b60405180910390fd5b805473ffffffffffffffffffffffffffffffffffffffff19166001600160a01b038816178155600181016102748782611001565b50600281016102838682611001565b50600381018490556004810183905560006005820181905560088201805460ff19166001908117909155805461ffff9081166009850155815416916102c7836110d7565b82546101009290920a61ffff818102199093169183160217909155600180546102f393509091166110f8565b61ffff16979650505050505050565b6000818152602081815260409182902060068101805484518185028101850190955280855260609485949293600701929091849183018282801561036f57602002820191906000526020600020905b81546001600160a01b03168152600190910190602001808311610351575b50505050509150808054806020026020016040519081016040528092919081815260200182805480156103c157602002820191906000526020600020905b8154815260200190600101908083116103ad575b5050505050905091509150915091565b600060208190529081526040902080546001820180546001600160a01b0390921692916103fd90610f7e565b80601f016020809104026020016040519081016040528092919081815260200182805461042990610f7e565b80156104765780601f1061044b57610100808354040283529160200191610476565b820191906000526020600020905b81548152906001019060200180831161045957829003601f168201915b50505050509080600201805461048b90610f7e565b80601f01602080910402602001604051908101604052809291908181526020018280546104b790610f7e565b80156105045780601f106104d957610100808354040283529160200191610504565b820191906000526020600020905b8154815290600101906020018083116104e757829003601f168201915b505050506003830154600484015460058501546008860154600990960154949592949193509160ff169088565b6000818152602081905260409020600881015434919060ff16151560011461059b5760405162461bcd60e51b815260206004820152601c60248201527f5468652046756e64696e6720506572696f642068617320656e646564000000006044820152606401610237565b806004015442106105f85760405162461bcd60e51b815260206004820152602160248201527f5468652046756e64696e6720446561646c696e652068617320656c61707365646044820152601760f91b6064820152608401610237565b8060030154816005015411156106765760405162461bcd60e51b815260206004820152603060248201527f5468652046756e64696e672054617267657420686173206265656e207265616360448201527f686564206f722065786365656465642e000000000000000000000000000000006064820152608401610237565b6006810180546001808201835560009283526020808420909201805473ffffffffffffffffffffffffffffffffffffffff191633179055600784018054918201815583529082200183905581546040516001600160a01b039091169084908381818185875af1925050503d806000811461070c576040519150601f19603f3d011682016040523d82523d6000602084013e610711565b606091505b5050905080156107315782826005015461072b919061111a565b60058301555b816003015482600501541061074d5760088201805460ff191690555b50505050565b60015460609060009061ffff1667ffffffffffffffff81111561077857610778610b78565b60405190808252806020026020018201604052801561080a57816020015b6107f760405180610140016040528060006001600160a01b0316815260200160608152602001606081526020016000815260200160008152602001600081526020016060815260200160608152602001600015158152602001600081525090565b8152602001906001900390816107965790505b50905060005b60015461ffff16811015610a9757600081815260208181526040918290208251610140810190935280546001600160a01b031683526001810180549193928492908401919061085e90610f7e565b80601f016020809104026020016040519081016040528092919081815260200182805461088a90610f7e565b80156108d75780601f106108ac576101008083540402835291602001916108d7565b820191906000526020600020905b8154815290600101906020018083116108ba57829003601f168201915b505050505081526020016002820180546108f090610f7e565b80601f016020809104026020016040519081016040528092919081815260200182805461091c90610f7e565b80156109695780601f1061093e57610100808354040283529160200191610969565b820191906000526020600020905b81548152906001019060200180831161094c57829003601f168201915b50505050508152602001600382015481526020016004820154815260200160058201548152602001600682018054806020026020016040519081016040528092919081815260200182805480156109e957602002820191906000526020600020905b81546001600160a01b031681526001909101906020018083116109cb575b5050505050815260200160078201805480602002602001604051908101604052809291908181526020018280548015610a4157602002820191906000526020600020905b815481526020019060010190808311610a2d575b5050509183525050600882015460ff16151560208201526009909101546040909101528351849084908110610a7857610a78611133565b6020026020010181905250508080610a8f90611149565b915050610810565b50919050565b6000818152602081905260408120600881015460ff161515600114610b045760405162461bcd60e51b815260206004820152601c60248201527f5468652046756e64696e6720506572696f642068617320656e646564000000006044820152606401610237565b80600401544210610b615760405162461bcd60e51b815260206004820152602160248201527f5468652046756e64696e6720446561646c696e652068617320656c61707365646044820152601760f91b6064820152608401610237565b428160040154610b719190611162565b9392505050565b634e487b7160e01b600052604160045260246000fd5b600082601f830112610b9f57600080fd5b813567ffffffffffffffff80821115610bba57610bba610b78565b604051601f8301601f19908116603f01168101908282118183101715610be257610be2610b78565b81604052838152866020858801011115610bfb57600080fd5b836020870160208301376000602085830101528094505050505092915050565b600080600080600060a08688031215610c3357600080fd5b85356001600160a01b0381168114610c4a57600080fd5b9450602086013567ffffffffffffffff80821115610c6757600080fd5b610c7389838a01610b8e565b95506040880135915080821115610c8957600080fd5b50610c9688828901610b8e565b9598949750949560608101359550608001359392505050565b600060208284031215610cc157600080fd5b5035919050565b604080825283519082018190526000906020906060840190828701845b82811015610d0a5781516001600160a01b031684529284019290840190600101610ce5565b5050508381038285015284518082528583019183019060005b81811015610d3f57835183529284019291840191600101610d23565b5090979650505050505050565b6000815180845260005b81811015610d7257602081850181015186830182015201610d56565b506000602082860101526020601f19601f83011685010191505092915050565b60006101006001600160a01b038b168352806020840152610db58184018b610d4c565b90508281036040840152610dc9818a610d4c565b60608401989098525050608081019490945260a0840192909252151560c083015260e0909101529392505050565b600081518084526020808501945080840160005b83811015610e305781516001600160a01b031687529582019590820190600101610e0b565b509495945050505050565b600081518084526020808501945080840160005b83811015610e3057815187529582019590820190600101610e4f565b60006020808301818452808551808352604092508286019150828160051b87010184880160005b83811015610f7057888303603f19018552815180516001600160a01b0316845261014088820151818a870152610eca82870182610d4c565b9150508782015185820389870152610ee28282610d4c565b606084810151908801526080808501519088015260a0808501519088015260c080850151888303828a01529193509150610f1c8382610df7565b9250505060e08083015186830382880152610f378382610e3b565b9250505061010080830151610f4f8288018215159052565b50506101209182015194909101939093529386019390860190600101610e92565b509098975050505050505050565b600181811c90821680610f9257607f821691505b602082108103610a9757634e487b7160e01b600052602260045260246000fd5b601f821115610ffc57600081815260208120601f850160051c81016020861015610fd95750805b601f850160051c820191505b81811015610ff857828155600101610fe5565b5050505b505050565b815167ffffffffffffffff81111561101b5761101b610b78565b61102f816110298454610f7e565b84610fb2565b602080601f831160018114611064576000841561104c5750858301515b600019600386901b1c1916600185901b178555610ff8565b600085815260208120601f198616915b8281101561109357888601518255948401946001909101908401611074565b50858210156110b15787850151600019600388901b60f8161c191681555b5050505050600190811b01905550565b634e487b7160e01b600052601160045260246000fd5b600061ffff8083168181036110ee576110ee6110c1565b6001019392505050565b61ffff828116828216039080821115611113576111136110c1565b5092915050565b8082018082111561112d5761112d6110c1565b92915050565b634e487b7160e01b600052603260045260246000fd5b60006001820161115b5761115b6110c1565b5060010190565b8181038181111561112d5761112d6110c156fea264697066735822122037699cc9705ba50d429d57e3abbfb44271f548b69f2564f3ef4528f7ca01146564736f6c63430008110033",
      "opcodes": "PUSH1 0x80 PUSH1 0x40 MSTORE PUSH1 0x1 DUP1 SLOAD PUSH2 0xFFFF NOT AND SWAP1 SSTORE CALLVALUE DUP1 ISZERO PUSH2 0x1B JUMPI PUSH1 0x0 DUP1 REVERT JUMPDEST POP PUSH2 0x11AB DUP1 PUSH2 0x2B PUSH1 0x0 CODECOPY PUSH1 0x0 RETURN INVALID PUSH1 0x80 PUSH1 0x40 MSTORE PUSH1 0x4 CALLDATASIZE LT PUSH2 0x7B JUMPI PUSH1 0x0 CALLDATALOAD PUSH1 0xE0 SHR DUP1 PUSH4 0x42A4FDA8 GT PUSH2 0x4E JUMPI DUP1 PUSH4 0x42A4FDA8 EQ PUSH2 0x143 JUMPI DUP1 PUSH4 0x557ED1BA EQ PUSH2 0x158 JUMPI DUP1 PUSH4 0xA6B03633 EQ PUSH2 0x16B JUMPI DUP1 PUSH4 0xE8C58763 EQ PUSH2 0x18D JUMPI PUSH1 0x0 DUP1 REVERT JUMPDEST DUP1 PUSH4 0x75843C3 EQ PUSH2 0x80 JUMPI DUP1 PUSH4 0x7CA140D EQ PUSH2 0xB3 JUMPI DUP1 PUSH4 0xFA91FA9 EQ PUSH2 0xE1 JUMPI DUP1 PUSH4 0x141961BC EQ PUSH2 0x10F JUMPI JUMPDEST PUSH1 0x0 DUP1 REVERT JUMPDEST CALLVALUE DUP1 ISZERO PUSH2 0x8C JUMPI PUSH1 0x0 DUP1 REVERT JUMPDEST POP PUSH2 0xA0 PUSH2 0x9B CALLDATASIZE PUSH1 0x4 PUSH2 0xC1B JUMP JUMPDEST PUSH2 0x1AD JUMP JUMPDEST PUSH1 0x40 MLOAD SWAP1 DUP2 MSTORE PUSH1 0x20 ADD JUMPDEST PUSH1 0x40 MLOAD DUP1 SWAP2 SUB SWAP1 RETURN JUMPDEST CALLVALUE DUP1 ISZERO PUSH2 0xBF JUMPI PUSH1 0x0 DUP1 REVERT JUMPDEST POP PUSH1 0x1 SLOAD PUSH2 0xCE SWAP1 PUSH2 0xFFFF AND DUP2 JUMP JUMPDEST PUSH1 0x40 MLOAD PUSH2 0xFFFF SWAP1 SWAP2 AND DUP2 MSTORE PUSH1 0x20 ADD PUSH2 0xAA JUMP JUMPDEST CALLVALUE DUP1 ISZERO PUSH2 0xED JUMPI PUSH1 0x0 DUP1 REVERT JUMPDEST POP PUSH2 0x101 PUSH2 0xFC CALLDATASIZE PUSH1 0x4 PUSH2 0xCAF JUMP JUMPDEST PUSH2 0x302 JUMP JUMPDEST PUSH1 0x40 MLOAD PUSH2 0xAA SWAP3 SWAP2 SWAP1 PUSH2 0xCC8 JUMP JUMPDEST CALLVALUE DUP1 ISZERO PUSH2 0x11B JUMPI PUSH1 0x0 DUP1 REVERT JUMPDEST POP PUSH2 0x12F PUSH2 0x12A CALLDATASIZE PUSH1 0x4 PUSH2 0xCAF JUMP JUMPDEST PUSH2 0x3D1 JUMP JUMPDEST PUSH1 0x40 MLOAD PUSH2 0xAA SWAP9 SWAP8 SWAP7 SWAP6 SWAP5 SWAP4 SWAP3 SWAP2 SWAP1 PUSH2 0xD92 JUMP JUMPDEST PUSH2 0x156 PUSH2 0x151 CALLDATASIZE PUSH1 0x4 PUSH2 0xCAF JUMP JUMPDEST PUSH2 0x531 JUMP JUMPDEST STOP JUMPDEST CALLVALUE DUP1 ISZERO PUSH2 0x164 JUMPI PUSH1 0x0 DUP1 REVERT JUMPDEST POP TIMESTAMP PUSH2 0xA0 JUMP JUMPDEST CALLVALUE DUP1 ISZERO PUSH2 0x177 JUMPI PUSH1 0x0 DUP1 REVERT JUMPDEST POP PUSH2 0x180 PUSH2 0x753 JUMP JUMPDEST PUSH1 0x40 MLOAD PUSH2 0xAA SWAP2 SWAP1 PUSH2 0xE6B JUMP JUMPDEST CALLVALUE DUP1 ISZERO PUSH2 0x199 JUMPI PUSH1 0x0 DUP1 REVERT JUMPDEST POP PUSH2 0xA0 PUSH2 0x1A8 CALLDATASIZE PUSH1 0x4 PUSH2 0xCAF JUMP JUMPDEST PUSH2 0xA9D JUMP JUMPDEST PUSH1 0x1 SLOAD PUSH2 0xFFFF AND PUSH1 0x0 SWAP1 DUP2 MSTORE PUSH1 0x20 DUP2 SWAP1 MSTORE PUSH1 0x40 DUP2 KECCAK256 PUSH1 0x4 DUP2 ADD SLOAD TIMESTAMP GT PUSH2 0x240 JUMPI PUSH1 0x40 MLOAD PUSH3 0x461BCD PUSH1 0xE5 SHL DUP2 MSTORE PUSH1 0x20 PUSH1 0x4 DUP3 ADD MSTORE PUSH1 0x2C PUSH1 0x24 DUP3 ADD MSTORE PUSH32 0x54686520646561646C696E652073686F756C642062652061206461746520696E PUSH1 0x44 DUP3 ADD MSTORE PUSH32 0x20746865206675747572652E0000000000000000000000000000000000000000 PUSH1 0x64 DUP3 ADD MSTORE PUSH1 0x84 ADD JUMPDEST PUSH1 0x40 MLOAD DUP1 SWAP2 SUB SWAP1 REVERT JUMPDEST DUP1 SLOAD PUSH20 0xFFFFFFFFFFFFFFFFFFFFFFFFFFFFFFFFFFFFFFFF NOT AND PUSH1 0x1 PUSH1 0x1 PUSH1 0xA0 SHL SUB DUP9 AND OR DUP2 SSTORE PUSH1 0x1 DUP2 ADD PUSH2 0x274 DUP8 DUP3 PUSH2 0x1001 JUMP JUMPDEST POP PUSH1 0x2 DUP2 ADD PUSH2 0x283 DUP7 DUP3 PUSH2 0x1001 JUMP JUMPDEST POP PUSH1 0x3 DUP2 ADD DUP5 SWAP1 SSTORE PUSH1 0x4 DUP2 ADD DUP4 SWAP1 SSTORE PUSH1 0x0 PUSH1 0x5 DUP3 ADD DUP2 SWAP1 SSTORE PUSH1 0x8 DUP3 ADD DUP1 SLOAD PUSH1 0xFF NOT AND PUSH1 0x1 SWAP1 DUP2 OR SWAP1 SWAP2 SSTORE DUP1 SLOAD PUSH2 0xFFFF SWAP1 DUP2 AND PUSH1 0x9 DUP6 ADD SSTORE DUP2 SLOAD AND SWAP2 PUSH2 0x2C7 DUP4 PUSH2 0x10D7 JUMP JUMPDEST DUP3 SLOAD PUSH2 0x100 SWAP3 SWAP1 SWAP3 EXP PUSH2 0xFFFF DUP2 DUP2 MUL NOT SWAP1 SWAP4 AND SWAP2 DUP4 AND MUL OR SWAP1 SWAP2 SSTORE PUSH1 0x1 DUP1 SLOAD PUSH2 0x2F3 SWAP4 POP SWAP1 SWAP2 AND PUSH2 0x10F8 JUMP JUMPDEST PUSH2 0xFFFF AND SWAP8 SWAP7 POP POP POP POP POP POP POP JUMP JUMPDEST PUSH1 0x0 DUP2 DUP2 MSTORE PUSH1 0x20 DUP2 DUP2 MSTORE PUSH1 0x40 SWAP2 DUP3 SWAP1 KECCAK256 PUSH1 0x6 DUP2 ADD DUP1 SLOAD DUP5 MLOAD DUP2 DUP6 MUL DUP2 ADD DUP6 ADD SWAP1 SWAP6 MSTORE DUP1 DUP6 MSTORE PUSH1 0x60 SWAP5 DUP6 SWAP5 SWAP3 SWAP4 PUSH1 0x7 ADD SWAP3 SWAP1 SWAP2 DUP5 SWAP2 DUP4 ADD DUP3 DUP3 DUP1 ISZERO PUSH2 0x36F JUMPI PUSH1 0x20 MUL DUP3 ADD SWAP2 SWAP1 PUSH1 0x0 MSTORE PUSH1 0x20 PUSH1 0x0 KECCAK256 SWAP1 JUMPDEST DUP2 SLOAD PUSH1 0x1 PUSH1 0x1 PUSH1 0xA0 SHL SUB AND DUP2 MSTORE PUSH1 0x1 SWAP1 SWAP2 ADD SWAP1 PUSH1 0x20 ADD DUP1 DUP4 GT PUSH2 0x351 JUMPI JUMPDEST POP POP POP POP POP SWAP2 POP DUP1 DUP1 SLOAD DUP1 PUSH1 0x20 MUL PUSH1 0x20 ADD PUSH1 0x40 MLOAD SWAP1 DUP2 ADD PUSH1 0x40 MSTORE DUP1 SWAP3 SWAP2 SWAP1 DUP2 DUP2 MSTORE PUSH1 0x20 ADD DUP3 DUP1 SLOAD DUP1 ISZERO PUSH2 0x3C1 JUMPI PUSH1 0x20 MUL DUP3 ADD SWAP2 SWAP1 PUSH1 0x0 MSTORE PUSH1 0x20 PUSH1 0x0 KECCAK256 SWAP1 JUMPDEST DUP2 SLOAD DUP2 MSTORE PUSH1 0x20 ADD SWAP1 PUSH1 0x1 ADD SWAP1 DUP1 DUP4 GT PUSH2 0x3AD JUMPI JUMPDEST POP POP POP POP POP SWAP1 POP SWAP2 POP SWAP2 POP SWAP2 POP SWAP2 JUMP JUMPDEST PUSH1 0x0 PUSH1 0x20 DUP2 SWAP1 MSTORE SWAP1 DUP2 MSTORE PUSH1 0x40 SWAP1 KECCAK256 DUP1 SLOAD PUSH1 0x1 DUP3 ADD DUP1 SLOAD PUSH1 0x1 PUSH1 0x1 PUSH1 0xA0 SHL SUB SWAP1 SWAP3 AND SWAP3 SWAP2 PUSH2 0x3FD SWAP1 PUSH2 0xF7E JUMP JUMPDEST DUP1 PUSH1 0x1F ADD PUSH1 0x20 DUP1 SWAP2 DIV MUL PUSH1 0x20 ADD PUSH1 0x40 MLOAD SWAP1 DUP2 ADD PUSH1 0x40 MSTORE DUP1 SWAP3 SWAP2 SWAP1 DUP2 DUP2 MSTORE PUSH1 0x20 ADD DUP3 DUP1 SLOAD PUSH2 0x429 SWAP1 PUSH2 0xF7E JUMP JUMPDEST DUP1 ISZERO PUSH2 0x476 JUMPI DUP1 PUSH1 0x1F LT PUSH2 0x44B JUMPI PUSH2 0x100 DUP1 DUP4 SLOAD DIV MUL DUP4 MSTORE SWAP2 PUSH1 0x20 ADD SWAP2 PUSH2 0x476 JUMP JUMPDEST DUP3 ADD SWAP2 SWAP1 PUSH1 0x0 MSTORE PUSH1 0x20 PUSH1 0x0 KECCAK256 SWAP1 JUMPDEST DUP2 SLOAD DUP2 MSTORE SWAP1 PUSH1 0x1 ADD SWAP1 PUSH1 0x20 ADD DUP1 DUP4 GT PUSH2 0x459 JUMPI DUP3 SWAP1 SUB PUSH1 0x1F AND DUP3 ADD SWAP2 JUMPDEST POP POP POP POP POP SWAP1 DUP1 PUSH1 0x2 ADD DUP1 SLOAD PUSH2 0x48B SWAP1 PUSH2 0xF7E JUMP JUMPDEST DUP1 PUSH1 0x1F ADD PUSH1 0x20 DUP1 SWAP2 DIV MUL PUSH1 0x20 ADD PUSH1 0x40 MLOAD SWAP1 DUP2 ADD PUSH1 0x40 MSTORE DUP1 SWAP3 SWAP2 SWAP1 DUP2 DUP2 MSTORE PUSH1 0x20 ADD DUP3 DUP1 SLOAD PUSH2 0x4B7 SWAP1 PUSH2 0xF7E JUMP JUMPDEST DUP1 ISZERO PUSH2 0x504 JUMPI DUP1 PUSH1 0x1F LT PUSH2 0x4D9 JUMPI PUSH2 0x100 DUP1 DUP4 SLOAD DIV MUL DUP4 MSTORE SWAP2 PUSH1 0x20 ADD SWAP2 PUSH2 0x504 JUMP JUMPDEST DUP3 ADD SWAP2 SWAP1 PUSH1 0x0 MSTORE PUSH1 0x20 PUSH1 0x0 KECCAK256 SWAP1 JUMPDEST DUP2 SLOAD DUP2 MSTORE SWAP1 PUSH1 0x1 ADD SWAP1 PUSH1 0x20 ADD DUP1 DUP4 GT PUSH2 0x4E7 JUMPI DUP3 SWAP1 SUB PUSH1 0x1F AND DUP3 ADD SWAP2 JUMPDEST POP POP POP POP PUSH1 0x3 DUP4 ADD SLOAD PUSH1 0x4 DUP5 ADD SLOAD PUSH1 0x5 DUP6 ADD SLOAD PUSH1 0x8 DUP7 ADD SLOAD PUSH1 0x9 SWAP1 SWAP7 ADD SLOAD SWAP5 SWAP6 SWAP3 SWAP5 SWAP2 SWAP4 POP SWAP2 PUSH1 0xFF AND SWAP1 DUP9 JUMP JUMPDEST PUSH1 0x0 DUP2 DUP2 MSTORE PUSH1 0x20 DUP2 SWAP1 MSTORE PUSH1 0x40 SWAP1 KECCAK256 PUSH1 0x8 DUP2 ADD SLOAD CALLVALUE SWAP2 SWAP1 PUSH1 0xFF AND ISZERO ISZERO PUSH1 0x1 EQ PUSH2 0x59B JUMPI PUSH1 0x40 MLOAD PUSH3 0x461BCD PUSH1 0xE5 SHL DUP2 MSTORE PUSH1 0x20 PUSH1 0x4 DUP3 ADD MSTORE PUSH1 0x1C PUSH1 0x24 DUP3 ADD MSTORE PUSH32 0x5468652046756E64696E6720506572696F642068617320656E64656400000000 PUSH1 0x44 DUP3 ADD MSTORE PUSH1 0x64 ADD PUSH2 0x237 JUMP JUMPDEST DUP1 PUSH1 0x4 ADD SLOAD TIMESTAMP LT PUSH2 0x5F8 JUMPI PUSH1 0x40 MLOAD PUSH3 0x461BCD PUSH1 0xE5 SHL DUP2 MSTORE PUSH1 0x20 PUSH1 0x4 DUP3 ADD MSTORE PUSH1 0x21 PUSH1 0x24 DUP3 ADD MSTORE PUSH32 0x5468652046756E64696E6720446561646C696E652068617320656C6170736564 PUSH1 0x44 DUP3 ADD MSTORE PUSH1 0x17 PUSH1 0xF9 SHL PUSH1 0x64 DUP3 ADD MSTORE PUSH1 0x84 ADD PUSH2 0x237 JUMP JUMPDEST DUP1 PUSH1 0x3 ADD SLOAD DUP2 PUSH1 0x5 ADD SLOAD GT ISZERO PUSH2 0x676 JUMPI PUSH1 0x40 MLOAD PUSH3 0x461BCD PUSH1 0xE5 SHL DUP2 MSTORE PUSH1 0x20 PUSH1 0x4 DUP3 ADD MSTORE PUSH1 0x30 PUSH1 0x24 DUP3 ADD MSTORE PUSH32 0x5468652046756E64696E672054617267657420686173206265656E2072656163 PUSH1 0x44 DUP3 ADD MSTORE PUSH32 0x686564206F722065786365656465642E00000000000000000000000000000000 PUSH1 0x64 DUP3 ADD MSTORE PUSH1 0x84 ADD PUSH2 0x237 JUMP JUMPDEST PUSH1 0x6 DUP2 ADD DUP1 SLOAD PUSH1 0x1 DUP1 DUP3 ADD DUP4 SSTORE PUSH1 0x0 SWAP3 DUP4 MSTORE PUSH1 0x20 DUP1 DUP5 KECCAK256 SWAP1 SWAP3 ADD DUP1 SLOAD PUSH20 0xFFFFFFFFFFFFFFFFFFFFFFFFFFFFFFFFFFFFFFFF NOT AND CALLER OR SWAP1 SSTORE PUSH1 0x7 DUP5 ADD DUP1 SLOAD SWAP2 DUP3 ADD DUP2 SSTORE DUP4 MSTORE SWAP1 DUP3 KECCAK256 ADD DUP4 SWAP1 SSTORE DUP2 SLOAD PUSH1 0x40 MLOAD PUSH1 0x1 PUSH1 0x1 PUSH1 0xA0 SHL SUB SWAP1 SWAP2 AND SWAP1 DUP5 SWAP1 DUP4 DUP2 DUP2 DUP2 DUP6 DUP8 GAS CALL SWAP3 POP POP POP RETURNDATASIZE DUP1 PUSH1 0x0 DUP2 EQ PUSH2 0x70C JUMPI PUSH1 0x40 MLOAD SWAP2 POP PUSH1 0x1F NOT PUSH1 0x3F RETURNDATASIZE ADD AND DUP3 ADD PUSH1 0x40 MSTORE RETURNDATASIZE DUP3 MSTORE RETURNDATASIZE PUSH1 0x0 PUSH1 0x20 DUP5 ADD RETURNDATACOPY PUSH2 0x711 JUMP JUMPDEST PUSH1 0x60 SWAP2 POP JUMPDEST POP POP SWAP1 POP DUP1 ISZERO PUSH2 0x731 JUMPI DUP3 DUP3 PUSH1 0x5 ADD SLOAD PUSH2 0x72B SWAP2 SWAP1 PUSH2 0x111A JUMP JUMPDEST PUSH1 0x5 DUP4 ADD SSTORE JUMPDEST DUP2 PUSH1 0x3 ADD SLOAD DUP3 PUSH1 0x5 ADD SLOAD LT PUSH2 0x74D JUMPI PUSH1 0x8 DUP3 ADD DUP1 SLOAD PUSH1 0xFF NOT AND SWAP1 SSTORE JUMPDEST POP POP POP POP JUMP JUMPDEST PUSH1 0x1 SLOAD PUSH1 0x60 SWAP1 PUSH1 0x0 SWAP1 PUSH2 0xFFFF AND PUSH8 0xFFFFFFFFFFFFFFFF DUP2 GT ISZERO PUSH2 0x778 JUMPI PUSH2 0x778 PUSH2 0xB78 JUMP JUMPDEST PUSH1 0x40 MLOAD SWAP1 DUP1 DUP3 MSTORE DUP1 PUSH1 0x20 MUL PUSH1 0x20 ADD DUP3 ADD PUSH1 0x40 MSTORE DUP1 ISZERO PUSH2 0x80A JUMPI DUP2 PUSH1 0x20 ADD JUMPDEST PUSH2 0x7F7 PUSH1 0x40 MLOAD DUP1 PUSH2 0x140 ADD PUSH1 0x40 MSTORE DUP1 PUSH1 0x0 PUSH1 0x1 PUSH1 0x1 PUSH1 0xA0 SHL SUB AND DUP2 MSTORE PUSH1 0x20 ADD PUSH1 0x60 DUP2 MSTORE PUSH1 0x20 ADD PUSH1 0x60 DUP2 MSTORE PUSH1 0x20 ADD PUSH1 0x0 DUP2 MSTORE PUSH1 0x20 ADD PUSH1 0x0 DUP2 MSTORE PUSH1 0x20 ADD PUSH1 0x0 DUP2 MSTORE PUSH1 0x20 ADD PUSH1 0x60 DUP2 MSTORE PUSH1 0x20 ADD PUSH1 0x60 DUP2 MSTORE PUSH1 0x20 ADD PUSH1 0x0 ISZERO ISZERO DUP2 MSTORE PUSH1 0x20 ADD PUSH1 0x0 DUP2 MSTORE POP SWAP1 JUMP JUMPDEST DUP2 MSTORE PUSH1 0x20 ADD SWAP1 PUSH1 0x1 SWAP1 SUB SWAP1 DUP2 PUSH2 0x796 JUMPI SWAP1 POP JUMPDEST POP SWAP1 POP PUSH1 0x0 JUMPDEST PUSH1 0x1 SLOAD PUSH2 0xFFFF AND DUP2 LT ISZERO PUSH2 0xA97 JUMPI PUSH1 0x0 DUP2 DUP2 MSTORE PUSH1 0x20 DUP2 DUP2 MSTORE PUSH1 0x40 SWAP2 DUP3 SWAP1 KECCAK256 DUP3 MLOAD PUSH2 0x140 DUP2 ADD SWAP1 SWAP4 MSTORE DUP1 SLOAD PUSH1 0x1 PUSH1 0x1 PUSH1 0xA0 SHL SUB AND DUP4 MSTORE PUSH1 0x1 DUP2 ADD DUP1 SLOAD SWAP2 SWAP4 SWAP3 DUP5 SWAP3 SWAP1 DUP5 ADD SWAP2 SWAP1 PUSH2 0x85E SWAP1 PUSH2 0xF7E JUMP JUMPDEST DUP1 PUSH1 0x1F ADD PUSH1 0x20 DUP1 SWAP2 DIV MUL PUSH1 0x20 ADD PUSH1 0x40 MLOAD SWAP1 DUP2 ADD PUSH1 0x40 MSTORE DUP1 SWAP3 SWAP2 SWAP1 DUP2 DUP2 MSTORE PUSH1 0x20 ADD DUP3 DUP1 SLOAD PUSH2 0x88A SWAP1 PUSH2 0xF7E JUMP JUMPDEST DUP1 ISZERO PUSH2 0x8D7 JUMPI DUP1 PUSH1 0x1F LT PUSH2 0x8AC JUMPI PUSH2 0x100 DUP1 DUP4 SLOAD DIV MUL DUP4 MSTORE SWAP2 PUSH1 0x20 ADD SWAP2 PUSH2 0x8D7 JUMP JUMPDEST DUP3 ADD SWAP2 SWAP1 PUSH1 0x0 MSTORE PUSH1 0x20 PUSH1 0x0 KECCAK256 SWAP1 JUMPDEST DUP2 SLOAD DUP2 MSTORE SWAP1 PUSH1 0x1 ADD SWAP1 PUSH1 0x20 ADD DUP1 DUP4 GT PUSH2 0x8BA JUMPI DUP3 SWAP1 SUB PUSH1 0x1F AND DUP3 ADD SWAP2 JUMPDEST POP POP POP POP POP DUP2 MSTORE PUSH1 0x20 ADD PUSH1 0x2 DUP3 ADD DUP1 SLOAD PUSH2 0x8F0 SWAP1 PUSH2 0xF7E JUMP JUMPDEST DUP1 PUSH1 0x1F ADD PUSH1 0x20 DUP1 SWAP2 DIV MUL PUSH1 0x20 ADD PUSH1 0x40 MLOAD SWAP1 DUP2 ADD PUSH1 0x40 MSTORE DUP1 SWAP3 SWAP2 SWAP1 DUP2 DUP2 MSTORE PUSH1 0x20 ADD DUP3 DUP1 SLOAD PUSH2 0x91C SWAP1 PUSH2 0xF7E JUMP JUMPDEST DUP1 ISZERO PUSH2 0x969 JUMPI DUP1 PUSH1 0x1F LT PUSH2 0x93E JUMPI PUSH2 0x100 DUP1 DUP4 SLOAD DIV MUL DUP4 MSTORE SWAP2 PUSH1 0x20 ADD SWAP2 PUSH2 0x969 JUMP JUMPDEST DUP3 ADD SWAP2 SWAP1 PUSH1 0x0 MSTORE PUSH1 0x20 PUSH1 0x0 KECCAK256 SWAP1 JUMPDEST DUP2 SLOAD DUP2 MSTORE SWAP1 PUSH1 0x1 ADD SWAP1 PUSH1 0x20 ADD DUP1 DUP4 GT PUSH2 0x94C JUMPI DUP3 SWAP1 SUB PUSH1 0x1F AND DUP3 ADD SWAP2 JUMPDEST POP POP POP POP POP DUP2 MSTORE PUSH1 0x20 ADD PUSH1 0x3 DUP3 ADD SLOAD DUP2 MSTORE PUSH1 0x20 ADD PUSH1 0x4 DUP3 ADD SLOAD DUP2 MSTORE PUSH1 0x20 ADD PUSH1 0x5 DUP3 ADD SLOAD DUP2 MSTORE PUSH1 0x20 ADD PUSH1 0x6 DUP3 ADD DUP1 SLOAD DUP1 PUSH1 0x20 MUL PUSH1 0x20 ADD PUSH1 0x40 MLOAD SWAP1 DUP2 ADD PUSH1 0x40 MSTORE DUP1 SWAP3 SWAP2 SWAP1 DUP2 DUP2 MSTORE PUSH1 0x20 ADD DUP3 DUP1 SLOAD DUP1 ISZERO PUSH2 0x9E9 JUMPI PUSH1 0x20 MUL DUP3 ADD SWAP2 SWAP1 PUSH1 0x0 MSTORE PUSH1 0x20 PUSH1 0x0 KECCAK256 SWAP1 JUMPDEST DUP2 SLOAD PUSH1 0x1 PUSH1 0x1 PUSH1 0xA0 SHL SUB AND DUP2 MSTORE PUSH1 0x1 SWAP1 SWAP2 ADD SWAP1 PUSH1 0x20 ADD DUP1 DUP4 GT PUSH2 0x9CB JUMPI JUMPDEST POP POP POP POP POP DUP2 MSTORE PUSH1 0x20 ADD PUSH1 0x7 DUP3 ADD DUP1 SLOAD DUP1 PUSH1 0x20 MUL PUSH1 0x20 ADD PUSH1 0x40 MLOAD SWAP1 DUP2 ADD PUSH1 0x40 MSTORE DUP1 SWAP3 SWAP2 SWAP1 DUP2 DUP2 MSTORE PUSH1 0x20 ADD DUP3 DUP1 SLOAD DUP1 ISZERO PUSH2 0xA41 JUMPI PUSH1 0x20 MUL DUP3 ADD SWAP2 SWAP1 PUSH1 0x0 MSTORE PUSH1 0x20 PUSH1 0x0 KECCAK256 SWAP1 JUMPDEST DUP2 SLOAD DUP2 MSTORE PUSH1 0x20 ADD SWAP1 PUSH1 0x1 ADD SWAP1 DUP1 DUP4 GT PUSH2 0xA2D JUMPI JUMPDEST POP POP POP SWAP2 DUP4 MSTORE POP POP PUSH1 0x8 DUP3 ADD SLOAD PUSH1 0xFF AND ISZERO ISZERO PUSH1 0x20 DUP3 ADD MSTORE PUSH1 0x9 SWAP1 SWAP2 ADD SLOAD PUSH1 0x40 SWAP1 SWAP2 ADD MSTORE DUP4 MLOAD DUP5 SWAP1 DUP5 SWAP1 DUP2 LT PUSH2 0xA78 JUMPI PUSH2 0xA78 PUSH2 0x1133 JUMP JUMPDEST PUSH1 0x20 MUL PUSH1 0x20 ADD ADD DUP2 SWAP1 MSTORE POP POP DUP1 DUP1 PUSH2 0xA8F SWAP1 PUSH2 0x1149 JUMP JUMPDEST SWAP2 POP POP PUSH2 0x810 JUMP JUMPDEST POP SWAP2 SWAP1 POP JUMP JUMPDEST PUSH1 0x0 DUP2 DUP2 MSTORE PUSH1 0x20 DUP2 SWAP1 MSTORE PUSH1 0x40 DUP2 KECCAK256 PUSH1 0x8 DUP2 ADD SLOAD PUSH1 0xFF AND ISZERO ISZERO PUSH1 0x1 EQ PUSH2 0xB04 JUMPI PUSH1 0x40 MLOAD PUSH3 0x461BCD PUSH1 0xE5 SHL DUP2 MSTORE PUSH1 0x20 PUSH1 0x4 DUP3 ADD MSTORE PUSH1 0x1C PUSH1 0x24 DUP3 ADD MSTORE PUSH32 0x5468652046756E64696E6720506572696F642068617320656E64656400000000 PUSH1 0x44 DUP3 ADD MSTORE PUSH1 0x64 ADD PUSH2 0x237 JUMP JUMPDEST DUP1 PUSH1 0x4 ADD SLOAD TIMESTAMP LT PUSH2 0xB61 JUMPI PUSH1 0x40 MLOAD PUSH3 0x461BCD PUSH1 0xE5 SHL DUP2 MSTORE PUSH1 0x20 PUSH1 0x4 DUP3 ADD MSTORE PUSH1 0x21 PUSH1 0x24 DUP3 ADD MSTORE PUSH32 0x5468652046756E64696E6720446561646C696E652068617320656C6170736564 PUSH1 0x44 DUP3 ADD MSTORE PUSH1 0x17 PUSH1 0xF9 SHL PUSH1 0x64 DUP3 ADD MSTORE PUSH1 0x84 ADD PUSH2 0x237 JUMP JUMPDEST TIMESTAMP DUP2 PUSH1 0x4 ADD SLOAD PUSH2 0xB71 SWAP2 SWAP1 PUSH2 0x1162 JUMP JUMPDEST SWAP4 SWAP3 POP POP POP JUMP JUMPDEST PUSH4 0x4E487B71 PUSH1 0xE0 SHL PUSH1 0x0 MSTORE PUSH1 0x41 PUSH1 0x4 MSTORE PUSH1 0x24 PUSH1 0x0 REVERT JUMPDEST PUSH1 0x0 DUP3 PUSH1 0x1F DUP4 ADD SLT PUSH2 0xB9F JUMPI PUSH1 0x0 DUP1 REVERT JUMPDEST DUP2 CALLDATALOAD PUSH8 0xFFFFFFFFFFFFFFFF DUP1 DUP3 GT ISZERO PUSH2 0xBBA JUMPI PUSH2 0xBBA PUSH2 0xB78 JUMP JUMPDEST PUSH1 0x40 MLOAD PUSH1 0x1F DUP4 ADD PUSH1 0x1F NOT SWAP1 DUP2 AND PUSH1 0x3F ADD AND DUP2 ADD SWAP1 DUP3 DUP3 GT DUP2 DUP4 LT OR ISZERO PUSH2 0xBE2 JUMPI PUSH2 0xBE2 PUSH2 0xB78 JUMP JUMPDEST DUP2 PUSH1 0x40 MSTORE DUP4 DUP2 MSTORE DUP7 PUSH1 0x20 DUP6 DUP9 ADD ADD GT ISZERO PUSH2 0xBFB JUMPI PUSH1 0x0 DUP1 REVERT JUMPDEST DUP4 PUSH1 0x20 DUP8 ADD PUSH1 0x20 DUP4 ADD CALLDATACOPY PUSH1 0x0 PUSH1 0x20 DUP6 DUP4 ADD ADD MSTORE DUP1 SWAP5 POP POP POP POP POP SWAP3 SWAP2 POP POP JUMP JUMPDEST PUSH1 0x0 DUP1 PUSH1 0x0 DUP1 PUSH1 0x0 PUSH1 0xA0 DUP7 DUP9 SUB SLT ISZERO PUSH2 0xC33 JUMPI PUSH1 0x0 DUP1 REVERT JUMPDEST DUP6 CALLDATALOAD PUSH1 0x1 PUSH1 0x1 PUSH1 0xA0 SHL SUB DUP2 AND DUP2 EQ PUSH2 0xC4A JUMPI PUSH1 0x0 DUP1 REVERT JUMPDEST SWAP5 POP PUSH1 0x20 DUP7 ADD CALLDATALOAD PUSH8 0xFFFFFFFFFFFFFFFF DUP1 DUP3 GT ISZERO PUSH2 0xC67 JUMPI PUSH1 0x0 DUP1 REVERT JUMPDEST PUSH2 0xC73 DUP10 DUP4 DUP11 ADD PUSH2 0xB8E JUMP JUMPDEST SWAP6 POP PUSH1 0x40 DUP9 ADD CALLDATALOAD SWAP2 POP DUP1 DUP3 GT ISZERO PUSH2 0xC89 JUMPI PUSH1 0x0 DUP1 REVERT JUMPDEST POP PUSH2 0xC96 DUP9 DUP3 DUP10 ADD PUSH2 0xB8E JUMP JUMPDEST SWAP6 SWAP9 SWAP5 SWAP8 POP SWAP5 SWAP6 PUSH1 0x60 DUP2 ADD CALLDATALOAD SWAP6 POP PUSH1 0x80 ADD CALLDATALOAD SWAP4 SWAP3 POP POP POP JUMP JUMPDEST PUSH1 0x0 PUSH1 0x20 DUP3 DUP5 SUB SLT ISZERO PUSH2 0xCC1 JUMPI PUSH1 0x0 DUP1 REVERT JUMPDEST POP CALLDATALOAD SWAP2 SWAP1 POP JUMP JUMPDEST PUSH1 0x40 DUP1 DUP3 MSTORE DUP4 MLOAD SWAP1 DUP3 ADD DUP2 SWAP1 MSTORE PUSH1 0x0 SWAP1 PUSH1 0x20 SWAP1 PUSH1 0x60 DUP5 ADD SWAP1 DUP3 DUP8 ADD DUP5 JUMPDEST DUP3 DUP2 LT ISZERO PUSH2 0xD0A JUMPI DUP2 MLOAD PUSH1 0x1 PUSH1 0x1 PUSH1 0xA0 SHL SUB AND DUP5 MSTORE SWAP3 DUP5 ADD SWAP3 SWAP1 DUP5 ADD SWAP1 PUSH1 0x1 ADD PUSH2 0xCE5 JUMP JUMPDEST POP POP POP DUP4 DUP2 SUB DUP3 DUP6 ADD MSTORE DUP5 MLOAD DUP1 DUP3 MSTORE DUP6 DUP4 ADD SWAP2 DUP4 ADD SWAP1 PUSH1 0x0 JUMPDEST DUP2 DUP2 LT ISZERO PUSH2 0xD3F JUMPI DUP4 MLOAD DUP4 MSTORE SWAP3 DUP5 ADD SWAP3 SWAP2 DUP5 ADD SWAP2 PUSH1 0x1 ADD PUSH2 0xD23 JUMP JUMPDEST POP SWAP1 SWAP8 SWAP7 POP POP POP POP POP POP POP JUMP JUMPDEST PUSH1 0x0 DUP2 MLOAD DUP1 DUP5 MSTORE PUSH1 0x0 JUMPDEST DUP2 DUP2 LT ISZERO PUSH2 0xD72 JUMPI PUSH1 0x20 DUP2 DUP6 ADD DUP2 ADD MLOAD DUP7 DUP4 ADD DUP3 ADD MSTORE ADD PUSH2 0xD56 JUMP JUMPDEST POP PUSH1 0x0 PUSH1 0x20 DUP3 DUP7 ADD ADD MSTORE PUSH1 0x20 PUSH1 0x1F NOT PUSH1 0x1F DUP4 ADD AND DUP6 ADD ADD SWAP2 POP POP SWAP3 SWAP2 POP POP JUMP JUMPDEST PUSH1 0x0 PUSH2 0x100 PUSH1 0x1 PUSH1 0x1 PUSH1 0xA0 SHL SUB DUP12 AND DUP4 MSTORE DUP1 PUSH1 0x20 DUP5 ADD MSTORE PUSH2 0xDB5 DUP2 DUP5 ADD DUP12 PUSH2 0xD4C JUMP JUMPDEST SWAP1 POP DUP3 DUP2 SUB PUSH1 0x40 DUP5 ADD MSTORE PUSH2 0xDC9 DUP2 DUP11 PUSH2 0xD4C JUMP JUMPDEST PUSH1 0x60 DUP5 ADD SWAP9 SWAP1 SWAP9 MSTORE POP POP PUSH1 0x80 DUP2 ADD SWAP5 SWAP1 SWAP5 MSTORE PUSH1 0xA0 DUP5 ADD SWAP3 SWAP1 SWAP3 MSTORE ISZERO ISZERO PUSH1 0xC0 DUP4 ADD MSTORE PUSH1 0xE0 SWAP1 SWAP2 ADD MSTORE SWAP4 SWAP3 POP POP POP JUMP JUMPDEST PUSH1 0x0 DUP2 MLOAD DUP1 DUP5 MSTORE PUSH1 0x20 DUP1 DUP6 ADD SWAP5 POP DUP1 DUP5 ADD PUSH1 0x0 JUMPDEST DUP4 DUP2 LT ISZERO PUSH2 0xE30 JUMPI DUP2 MLOAD PUSH1 0x1 PUSH1 0x1 PUSH1 0xA0 SHL SUB AND DUP8 MSTORE SWAP6 DUP3 ADD SWAP6 SWAP1 DUP3 ADD SWAP1 PUSH1 0x1 ADD PUSH2 0xE0B JUMP JUMPDEST POP SWAP5 SWAP6 SWAP5 POP POP POP POP POP JUMP JUMPDEST PUSH1 0x0 DUP2 MLOAD DUP1 DUP5 MSTORE PUSH1 0x20 DUP1 DUP6 ADD SWAP5 POP DUP1 DUP5 ADD PUSH1 0x0 JUMPDEST DUP4 DUP2 LT ISZERO PUSH2 0xE30 JUMPI DUP2 MLOAD DUP8 MSTORE SWAP6 DUP3 ADD SWAP6 SWAP1 DUP3 ADD SWAP1 PUSH1 0x1 ADD PUSH2 0xE4F JUMP JUMPDEST PUSH1 0x0 PUSH1 0x20 DUP1 DUP4 ADD DUP2 DUP5 MSTORE DUP1 DUP6 MLOAD DUP1 DUP4 MSTORE PUSH1 0x40 SWAP3 POP DUP3 DUP7 ADD SWAP2 POP DUP3 DUP2 PUSH1 0x5 SHL DUP8 ADD ADD DUP5 DUP9 ADD PUSH1 0x0 JUMPDEST DUP4 DUP2 LT ISZERO PUSH2 0xF70 JUMPI DUP9 DUP4 SUB PUSH1 0x3F NOT ADD DUP6 MSTORE DUP2 MLOAD DUP1 MLOAD PUSH1 0x1 PUSH1 0x1 PUSH1 0xA0 SHL SUB AND DUP5 MSTORE PUSH2 0x140 DUP9 DUP3 ADD MLOAD DUP2 DUP11 DUP8 ADD MSTORE PUSH2 0xECA DUP3 DUP8 ADD DUP3 PUSH2 0xD4C JUMP JUMPDEST SWAP2 POP POP DUP8 DUP3 ADD MLOAD DUP6 DUP3 SUB DUP10 DUP8 ADD MSTORE PUSH2 0xEE2 DUP3 DUP3 PUSH2 0xD4C JUMP JUMPDEST PUSH1 0x60 DUP5 DUP2 ADD MLOAD SWAP1 DUP9 ADD MSTORE PUSH1 0x80 DUP1 DUP6 ADD MLOAD SWAP1 DUP9 ADD MSTORE PUSH1 0xA0 DUP1 DUP6 ADD MLOAD SWAP1 DUP9 ADD MSTORE PUSH1 0xC0 DUP1 DUP6 ADD MLOAD DUP9 DUP4 SUB DUP3 DUP11 ADD MSTORE SWAP2 SWAP4 POP SWAP2 POP PUSH2 0xF1C DUP4 DUP3 PUSH2 0xDF7 JUMP JUMPDEST SWAP3 POP POP POP PUSH1 0xE0 DUP1 DUP4 ADD MLOAD DUP7 DUP4 SUB DUP3 DUP9 ADD MSTORE PUSH2 0xF37 DUP4 DUP3 PUSH2 0xE3B JUMP JUMPDEST SWAP3 POP POP POP PUSH2 0x100 DUP1 DUP4 ADD MLOAD PUSH2 0xF4F DUP3 DUP9 ADD DUP3 ISZERO ISZERO SWAP1 MSTORE JUMP JUMPDEST POP POP PUSH2 0x120 SWAP2 DUP3 ADD MLOAD SWAP5 SWAP1 SWAP2 ADD SWAP4 SWAP1 SWAP4 MSTORE SWAP4 DUP7 ADD SWAP4 SWAP1 DUP7 ADD SWAP1 PUSH1 0x1 ADD PUSH2 0xE92 JUMP JUMPDEST POP SWAP1 SWAP9 SWAP8 POP POP POP POP POP POP POP POP JUMP JUMPDEST PUSH1 0x1 DUP2 DUP2 SHR SWAP1 DUP3 AND DUP1 PUSH2 0xF92 JUMPI PUSH1 0x7F DUP3 AND SWAP2 POP JUMPDEST PUSH1 0x20 DUP3 LT DUP2 SUB PUSH2 0xA97 JUMPI PUSH4 0x4E487B71 PUSH1 0xE0 SHL PUSH1 0x0 MSTORE PUSH1 0x22 PUSH1 0x4 MSTORE PUSH1 0x24 PUSH1 0x0 REVERT JUMPDEST PUSH1 0x1F DUP3 GT ISZERO PUSH2 0xFFC JUMPI PUSH1 0x0 DUP2 DUP2 MSTORE PUSH1 0x20 DUP2 KECCAK256 PUSH1 0x1F DUP6 ADD PUSH1 0x5 SHR DUP2 ADD PUSH1 0x20 DUP7 LT ISZERO PUSH2 0xFD9 JUMPI POP DUP1 JUMPDEST PUSH1 0x1F DUP6 ADD PUSH1 0x5 SHR DUP3 ADD SWAP2 POP JUMPDEST DUP2 DUP2 LT ISZERO PUSH2 0xFF8 JUMPI DUP3 DUP2 SSTORE PUSH1 0x1 ADD PUSH2 0xFE5 JUMP JUMPDEST POP POP POP JUMPDEST POP POP POP JUMP JUMPDEST DUP2 MLOAD PUSH8 0xFFFFFFFFFFFFFFFF DUP2 GT ISZERO PUSH2 0x101B JUMPI PUSH2 0x101B PUSH2 0xB78 JUMP JUMPDEST PUSH2 0x102F DUP2 PUSH2 0x1029 DUP5 SLOAD PUSH2 0xF7E JUMP JUMPDEST DUP5 PUSH2 0xFB2 JUMP JUMPDEST PUSH1 0x20 DUP1 PUSH1 0x1F DUP4 GT PUSH1 0x1 DUP2 EQ PUSH2 0x1064 JUMPI PUSH1 0x0 DUP5 ISZERO PUSH2 0x104C JUMPI POP DUP6 DUP4 ADD MLOAD JUMPDEST PUSH1 0x0 NOT PUSH1 0x3 DUP7 SWAP1 SHL SHR NOT AND PUSH1 0x1 DUP6 SWAP1 SHL OR DUP6 SSTORE PUSH2 0xFF8 JUMP JUMPDEST PUSH1 0x0 DUP6 DUP2 MSTORE PUSH1 0x20 DUP2 KECCAK256 PUSH1 0x1F NOT DUP7 AND SWAP2 JUMPDEST DUP3 DUP2 LT ISZERO PUSH2 0x1093 JUMPI DUP9 DUP7 ADD MLOAD DUP3 SSTORE SWAP5 DUP5 ADD SWAP5 PUSH1 0x1 SWAP1 SWAP2 ADD SWAP1 DUP5 ADD PUSH2 0x1074 JUMP JUMPDEST POP DUP6 DUP3 LT ISZERO PUSH2 0x10B1 JUMPI DUP8 DUP6 ADD MLOAD PUSH1 0x0 NOT PUSH1 0x3 DUP9 SWAP1 SHL PUSH1 0xF8 AND SHR NOT AND DUP2 SSTORE JUMPDEST POP POP POP POP POP PUSH1 0x1 SWAP1 DUP2 SHL ADD SWAP1 SSTORE POP JUMP JUMPDEST PUSH4 0x4E487B71 PUSH1 0xE0 SHL PUSH1 0x0 MSTORE PUSH1 0x11 PUSH1 0x4 MSTORE PUSH1 0x24 PUSH1 0x0 REVERT JUMPDEST PUSH1 0x0 PUSH2 0xFFFF DUP1 DUP4 AND DUP2 DUP2 SUB PUSH2 0x10EE JUMPI PUSH2 0x10EE PUSH2 0x10C1 JUMP JUMPDEST PUSH1 0x1 ADD SWAP4 SWAP3 POP POP POP JUMP JUMPDEST PUSH2 0xFFFF DUP3 DUP2 AND DUP3 DUP3 AND SUB SWAP1 DUP1 DUP3 GT ISZERO PUSH2 0x1113 JUMPI PUSH2 0x1113 PUSH2 0x10C1 JUMP JUMPDEST POP SWAP3 SWAP2 POP POP JUMP JUMPDEST DUP1 DUP3 ADD DUP1 DUP3 GT ISZERO PUSH2 0x112D JUMPI PUSH2 0x112D PUSH2 0x10C1 JUMP JUMPDEST SWAP3 SWAP2 POP POP JUMP JUMPDEST PUSH4 0x4E487B71 PUSH1 0xE0 SHL PUSH1 0x0 MSTORE PUSH1 0x32 PUSH1 0x4 MSTORE PUSH1 0x24 PUSH1 0x0 REVERT JUMPDEST PUSH1 0x0 PUSH1 0x1 DUP3 ADD PUSH2 0x115B JUMPI PUSH2 0x115B PUSH2 0x10C1 JUMP JUMPDEST POP PUSH1 0x1 ADD SWAP1 JUMP JUMPDEST DUP2 DUP2 SUB DUP2 DUP2 GT ISZERO PUSH2 0x112D JUMPI PUSH2 0x112D PUSH2 0x10C1 JUMP INVALID LOG2 PUSH5 0x6970667358 0x22 SLT KECCAK256 CALLDATACOPY PUSH10 0x9CC9705BA50D429D57E3 0xAB 0xBF 0xB4 TIMESTAMP PUSH18 0xF548B69F2564F3EF4528F7CA01146564736F PUSH13 0x63430008110033000000000000 "
    },
    "gasEstimates": {
      "creation": {
        "codeDepositCost": "904600",
        "executionCost": "25160",
        "totalCost": "929760"
      },
      "external": {
        "campaigns(uint256)": "infinite",
        "createCampaign(address,string,string,uint256,uint256)": "infinite",
        "donateToCampaign(uint256)": "infinite",
        "getCampaigns()": "infinite",
        "getDonators(uint256)": "infinite",
        "getTime()": "202",
        "getTimeLeft(uint256)": "6872",
        "numberOfCampaigns()": "2336"
      }
    },
    "methodIdentifiers": {
      "campaigns(uint256)": "141961bc",
      "createCampaign(address,string,string,uint256,uint256)": "075843c3",
      "donateToCampaign(uint256)": "42a4fda8",
      "getCampaigns()": "a6b03633",
      "getDonators(uint256)": "0fa91fa9",
      "getTime()": "557ed1ba",
      "getTimeLeft(uint256)": "e8c58763",
      "numberOfCampaigns()": "07ca140d"
    }
  },
  "storageLayout": {
    "storage": [
      {
        "astId": 29,
        "contract": "CoinCamp.sol:CoinCamp",
        "label": "campaigns",
        "offset": 0,
        "slot": "0",
        "type": "t_mapping(t_uint256,t_struct(Campaign)24_storage)"
      },
      {
        "astId": 32,
        "contract": "CoinCamp.sol:CoinCamp",
        "label": "numberOfCampaigns",
        "offset": 0,
        "slot": "1",
        "type": "t_uint16"
      }
    ],
    "types": {
      "t_address": {
        "encoding": "inplace",
        "label": "address",
        "numberOfBytes": "20"
      },
      "t_array(t_address)dyn_storage": {
        "base": "t_address",
        "encoding": "dynamic_array",
        "label": "address[]",
        "numberOfBytes": "32"
      },
      "t_array(t_uint256)dyn_storage": {
        "base": "t_uint256",
        "encoding": "dynamic_array",
        "label": "uint256[]",
        "numberOfBytes": "32"
      },
      "t_bool": {
        "encoding": "inplace",
        "label": "bool",
        "numberOfBytes": "1"
      },
      "t_mapping(t_uint256,t_struct(Campaign)24_storage)": {
        "encoding": "mapping",
        "key": "t_uint256",
        "label": "mapping(uint256 => struct CoinCamp.Campaign)",
        "numberOfBytes": "32",
        "value": "t_struct(Campaign)24_storage"
      },
      "t_string_storage": {
        "encoding": "bytes",
        "label": "string",
        "numberOfBytes": "32"
      },
      "t_struct(Campaign)24_storage": {
        "encoding": "inplace",
        "label": "struct CoinCamp.Campaign",
        "members": [
          {
            "astId": 3,
            "contract": "CoinCamp.sol:CoinCamp",
            "label": "owner",
            "offset": 0,
            "slot": "0",
            "type": "t_address"
          },
          {
            "astId": 5,
            "contract": "CoinCamp.sol:CoinCamp",
            "label": "title",
            "offset": 0,
            "slot": "1",
            "type": "t_string_storage"
          },
          {
            "astId": 7,
            "contract": "CoinCamp.sol:CoinCamp",
            "label": "description",
            "offset": 0,
            "slot": "2",
            "type": "t_string_storage"
          },
          {
            "astId": 9,
            "contract": "CoinCamp.sol:CoinCamp",
            "label": "target",
            "offset": 0,
            "slot": "3",
            "type": "t_uint256"
          },
          {
            "astId": 11,
            "contract": "CoinCamp.sol:CoinCamp",
            "label": "deadline",
            "offset": 0,
            "slot": "4",
            "type": "t_uint256"
          },
          {
            "astId": 13,
            "contract": "CoinCamp.sol:CoinCamp",
            "label": "amountCollected",
            "offset": 0,
            "slot": "5",
            "type": "t_uint256"
          },
          {
            "astId": 16,
            "contract": "CoinCamp.sol:CoinCamp",
            "label": "donators",
            "offset": 0,
            "slot": "6",
            "type": "t_array(t_address)dyn_storage"
          },
          {
            "astId": 19,
            "contract": "CoinCamp.sol:CoinCamp",
            "label": "donations",
            "offset": 0,
            "slot": "7",
            "type": "t_array(t_uint256)dyn_storage"
          },
          {
            "astId": 21,
            "contract": "CoinCamp.sol:CoinCamp",
            "label": "active",
            "offset": 0,
            "slot": "8",
            "type": "t_bool"
          },
          {
            "astId": 23,
            "contract": "CoinCamp.sol:CoinCamp",
            "label": "id",
            "offset": 0,
            "slot": "9",
            "type": "t_uint256"
          }
        ],
        "numberOfBytes": "320"
      },
      "t_uint16": {
        "encoding": "inplace",
        "label": "uint16",
        "numberOfBytes": "2"
      },
      "t_uint256": {
        "encoding": "inplace",
        "label": "uint256",
        "numberOfBytes": "32"
      }
    }
  },
  "userdoc": {
    "kind": "user",
    "methods": {},
    "version": 1
  }
}